:020000041000EA
:1000000000B5324B212058609868022188439860DF
:10001000D860186158612E4B002199600221596106
:100020000121F02299502B49196001219960352056
:1000300000F044F80222904214D00621196600F024
:1000400034F8196E01211966002018661A6600F04E
:100050002CF8196E196E196E052000F02FF8012189
:100060000842F9D1002199601B49196000215960AB
:100070001A491B48016001219960EB211966A021F2
:10008000196600F012F800219960164914480160C1
:100090000121996001BC002800D000471248134993
:1000A000086003C880F30888084703B5996A0420EC
:1000B0000142FBD001200142F8D103BD02B5186610
:1000C0001866FFF7F2FF186E186E02BD00000240BE
:1000D000000000180000070000035F00212200005C
:1000E000F4000018222000A00001001008ED00E03C
:1000F00000000000000000000000000074B24E7A12
:1001000000200420F7010010C3010010C5010010F9
:10011000C1010010C1010010C1010010C101001097
:10012000C1010010C1010010C1010010C701001081
:10013000C1010010C1010010C9010010CB01001065
:10014000CD010010CD010010CD010010CD01001037
:10015000CD010010CD010010CD010010CD01001027
:10016000CD010010CD010010CD010010CD01001017
:10017000CD010010CD010010CD010010CD01001007
:10018000CD010010CD010010CD010010CD010010F7
:10019000CD010010CD010010CD010010CD010010E7
:1001A000CD010010CD010010CD010010CD010010D7
:1001B000CD010010CD010010CD010010CD010010C7
:1001C00000BE00BE00BE00BE00BE00BEEFF3058054
:1001D000103800BEF2EB8871585100107C510010AD
:1001E0003402001090A31AE700201F49086006C8D7
:1001F00081F3088810471D48006800282FD10DA4FE
:100200000ECC002902D000F012F8F9E71849194A7B
:10021000002000E001C19142FCD1174988471749ED
:1002200088471749884700BEFDE701C901C29A42C5
:10023000FBD370477C510010C0000020D00D00207F
:100240008C5E001000000420000004208C5E001072
:10025000001004200010042000000000704709482E
:1002600002F02EF80047000008ED00E0000000D08A
:10027000E00D00205C19002039210010550300100A
:100280002D2200105756000006005250ABB36053A9
:10029000BC4F001006005250861C0302D44F0010C1
:1002A000060052505422A29DEC4F001005005250FF
:1002B000DE65F4688C5E0010F8B5C0460448054B56
:1002C00010B5834203D0044B002B00D0984710BDDB
:1002D000D00D0020D00D0020000000000648074986
:1002E000091A8B10C90FC91810B5491003D0044B57
:1002F000002B00D0984710BDD00D0020D00D00205D
:100300000000000010B5074C2378002B09D1FFF73F
:10031000D5FF054B002B02D0044800E000BF0123AD
:10032000237010BD6810002000000000604E001017
:10033000054B10B5002B03D00449054800E000BF71
:10034000FFF7CCFF10BDC046000000006C1000207D
:10035000604E0010F0B5C64600B502F02FFD00203B
:1003600002F07CFF1C4B1D4A1D491A6001221D4BE7
:100370001D4D1A701D4B1E4F1A8000221D4E5980B4
:100380009A80D9801A815A819A81012000214042A5
:1003900002F0D0FF01F052F93B682C689846002922
:1003A00011D0FA220023920001F0FAFF001B8045D1
:1003B000EBD8307844442C6002F010FD01223378F1
:1003C00053403370E1E7FA21890001F0ABFF001BD5
:1003D0004045DAD3EDE7C0461018002080BB00008E
:1003E00080BBFFFF551900202C1900201418002095
:1003F000B80C002057190020FA22024B92001A6014
:100400007047C046B80C0020FA22014B1A607047B2
:10041000B80C0020014B024A1A607047B80C00204B
:10042000C4090000FA22024B92001A607047C046CD
:10043000B80C0020002070470020704730B54B7882
:100440000020012B02D14B79022B00D030BDCB789C
:100450008C78012B10D0022BF8D1CB798D791B022F
:100460002B43022BF2D1537810780A491B02034325
:10047000640001200B53E9E7CB798D791B022B43F4
:10048000012BE3D11278044B52B2511E8A41012054
:100490001A55DBE74C190020F417002000207047A4
:1004A0000020704730B5CB788A784D791B021A430B
:1004B000040083B01B0A012D0DD0022D04D00020B2
:1004C000042D28D003B030BDD2B2012B1DD0022B99
:1004D0000DD00020F6E70020022BF3D16B460095EB
:1004E0006A4698800623200004F034F8EAE74B7847
:1004F000012B1AD0022BECD1184B6A460093184BF3
:100500000193082304F026F8DCE7164BD2180123E8
:1005100003F0F4FBD6E7012B0ED0022BD2D101233E
:100520002000114A03F0EAFBCCE7104B5200D2182E
:10053000022303F0E3FBC5E74B78012B07D0022B26
:10054000C0D10E2320000A4A03F0D8FBBAE70423E7
:100550002000084A03F0D2FBB4E7C0460100A6FF22
:100560005A000100F4170020551900204C190020F2
:10057000141800201018002010B560220020024935
:1005800003F014FD012010BD0810002030B56A4CA6
:100590006A4A2388581C991CDD1C0004090418436E
:1005A0002D04090C29431060181D51600004591DC9
:1005B0000904000C0843991DDD1D09042D04090CD4
:1005C000294390601800D1601900083009310004F7
:1005D0000904000C084319001D000A310B350904F9
:1005E0002D04090C294310611800516119000C30C9
:1005F0000D3100040904000C084319001D000E31E0
:100600000F3509042D04090C294390611800D161AC
:1006100019001030113100040904000C08431900BE
:100620001D001231133509042D04090C29431062F1
:100630001800516219001430153100040904000C2F
:10064000084319001D001631173509042D04090C43
:10065000294390621800D162190018301931000442
:100660000904000C084319001D001A311B35090448
:100670002D04090C294310631800516319001C3024
:100680001D3100040904000C084319001D001E312F
:100690001F3509042D04090C294390631800D16308
:1006A00019002030213100040904000C084319000E
:1006B0001D002231233509042D04090C294310643F
:1006C0001800516419002430253100040904000C7D
:1006D000084319001D002631273509042D04090C93
:1006E000294390641800D16419002830293100048E
:1006F0000904000C084319001D002A312B35090498
:100700002D04090C294310651800516519002C307F
:100710002D3100040904000C084319001D002E317E
:100720002F3509042D04090C294330339065D16518
:100730000120238030BDC046501900200810002041
:100740000022024B01201A807047C0465019002039
:1007500000487047184F001000487047884E00103E
:1007600010B5002825D004282ED8184B8000C45876
:10077000200004F0F5FAC0B2011C1F2814D8C9B239
:1007800000281FD00023124AE05C01331080D8B249
:1007900002328142F8D8C0230131C9B249009B001E
:1007A0000B430C48038010BD1F21C9B20028E9D1BA
:1007B00008E0064B02221968054802F0ADF8C12393
:1007C0009B00EEE7044BECE70020ECE7BC0C0020BC
:1007D000D2100020D010002002030000094A10B5FA
:1007E00094464024830063441A68C0006240803409
:1007F00014408022520113431C60034B9C4660440A
:10080000416010BD04C0014000400140034BC000E6
:100810009C46604443681F201840704700400140D8
:10082000074B80009C4660440368C90092000A435D
:100830005A400C231A4080235B0103431A6070471F
:1008400004C00140074BC0009C4660440368090493
:100850005940C0239B02194080235B010343196068
:100860007047C04604400140074BC0009C466044AE
:10087000036809035940C0239B01194080235B0191
:10088000034319607047C04604400140024B18689A
:100890008007C00F7047C04600C006408023DB05BC
:1008A0001868000F7047C04670B5EFF3108C72B631
:1008B0000D4D2B68002BFCD0BFF35F8F0724CB08B6
:1008C000C618C05C01230C40A3401C000440034236
:1008D00007D118433070BFF35F8F2C608CF3108802
:1008E00070BD100001F0A6FC2C0100D0F8B5474601
:1008F000CE46884680B5EFF3108C72B6214D2C6839
:10090000002CFCD0BFF35F8F9A422CD8D408072765
:10091000055D061901241740BC402C421FD0072159
:100920000127894609E0D408055D06194C463900BF
:100930001440A1400C00294211D001329342F2D25E
:1009400001204042BFF35F8F00220E4B1A608CF3F0
:10095000108800280FDBC0BCB946B046F8BD25435F
:1009600010003570EEE7BFF35F8F00232B608CF330
:100970001088012040424346002BECD0089801F03B
:1009800059FCC0462C0100D00021044B044ABFF39F
:100990005F8F02C39342FAD17047C046000100D076
:1009A000800100D0044A1078431CDBB2172B00D919
:1009B000102313707047C046D00C002010B5064BB2
:1009C000064C82B00100009318221F232000FFF77D
:1009D0008DFF02B010BDC0462C4F0010F412002055
:1009E00001238340002904D0034A1360034A1360A3
:1009F0007047034A1360FBE780E200E000E100E09B
:100A000080E100E0024B10309B688000C0587047C6
:100A100000ED00E070B50D00EFF3108672B60F4ADE
:100A20001368002BFCD0BFF35F8F0D4B10309B6819
:100A300084001B590B4A934203D09D4201D001F020
:100A400011FC074B9B681D51BFF35F8FBFF35F8F96
:100A50000022024B1A6086F3108870BD240100D07A
:100A600000ED00E0CD010010F0B557464E46DE46E1
:100A70004546E0B585B0060000911700EFF3108BF6
:100A800072B66A4A1368002BFCD0BFF35F8F002553
:100A9000674B5D579A46002D00DA8BE06B00654C82
:100AA00001935B199B009846A146C1444B465246B0
:100AB0009B7910361370604BB6009B6899590B1BDD
:100AC0002F2B33D95D4B994200D0ACE0019B4246BD
:100AD0009C465B4B6544AD0063535A4B0232A218EF
:100AE000043B9B1A1B05584A5B0D651913436B8029
:100AF000564B0121AB80FF23AB71009BEF71AB60C4
:100B00004B460B4319004C4B9B689951BFF35F8FC9
:100B1000BFF35F8F0022454B1A608BF3108805B03E
:100B2000F0BCBB46B246A946A046F0BD01200A0073
:100B30008243D3798C46BB4231D8454613004449A1
:100B40001B1B5B415943090D3D4B63533D4B023524
:100B50006519043B5B1B1B053B4D5B0D2B43AA46F4
:100B60004D466B800425AC465546E044131F444473
:100B70001B1B1B055B0D1D434B46997100999D8006
:100B800099604946DF71334B01431360BBE758005E
:100B9000C01880002018C179B94211D9020006237B
:100BA000D356002BF3DA0293131D9A462A4B614663
:100BB000039319E001F056FB002553465D576DE79E
:100BC000908802934005131D9A46031561469C4682
:100BD0004046D444634604302018181AE023000528
:100BE000400D1B021843039004235B429C46E144E2
:100BF00050464B461B1A1B055B0D9C46124B9571CC
:100C000098466346404603439380019B5A199200DD
:100C1000039BA418A380029B0E4AA371009B226031
:100C2000E771A3606FE701F01DFB4FE7240100D0DF
:100C300056190020D40C002000ED00E0CD0100107A
:100C400000A1FFFF040D002000E0FFFF01BDFFFF3A
:100C5000AAAA00000148804701BD0000F0B5DE46A9
:100C600057464E464546E0B50C0083B0EFF310887A
:100C700072B65D4A1368002BFCD0BFF35F8F5B4BED
:100C80005B499A68030010339F00D5598D4239D0D3
:100C9000A5424AD0574EAA1B2F2A33D8012292468A
:100CA000824091464846544A126810400190484696
:100CB000524A1060BFF35F8FEFF305829346002A1C
:100CC00035D0934201D001F0CDFA2A0053469A4321
:100CD0009068844208D175E04B005B189B00F318C4
:100CE0009868A04234D01A00062151560029F3DA40
:100CF000844253D0019B002B26D04A46404B1A60B9
:100D00003D4B1A60394B9B68DD51BFF35F8FBFF3DA
:100D10005F8F0022344B1A6088F3108803B0F0BC58
:100D2000BB46B246A946A046F0BD0D00EAE72A0040
:100D300053469A4390688442D6D106201056130039
:100D4000002809DA0D0031E04A462C4B1A60D9E739
:100D500006201856002822DB42001118890074185A
:100D60008A46A1689960E179D97106216156997125
:100D7000002925DBA488F11A6405241554440919B7
:100D8000E0240905490D24022143998013181D4AC6
:100D90009B001178F31899711070ABE71300594656
:100DA000002914D1FF3191711749918015490A78B2
:100DB0009A71164A9B1B5B415A43120D0A7099E7C0
:100DC0001349E2E70620105613000028C4DA114A3E
:100DD0001149D21A083A5002400D014399800F4937
:100DE00052080A43DA8085E7240100D000ED00E0D4
:100DF000CD010010D40C002000E100E080E100E013
:100E000080E200E05619002001BDFFFFAAAA000001
:100E100001BD00000E0D002000F0FFFF00F8FFFFF5
:100E200070B5EFF3058101240443EFF3108C72B623
:100E3000214A1368002BFCD0BFF35F8F1F4B0500C6
:100E40001F4AED1A6D416A43120D1E4D8900AE68AE
:100E500052B27658A6421CD00621595691421CD057
:100E600012215956914222D01E215956914220D02A
:100E70002A2159560324914210D0134B19781A7025
:100E80008171BFF35F8F00220B4B1A608CF31088C7
:100E900070BDAB680D4C5C50EFE700246100091990
:100EA00089005B18FF21997109499980E5E70124C0
:100EB000F4E70224F2E7C046240100D0D40C00205D
:100EC000AAAA000000ED00E056190020CD01001094
:100ED00001BDFFFF054B064A1360064A13605360CD
:100EE0009360D36013615361936170478080808009
:100EF00000E400E004E400E0024B9C466144890009
:100F0000016070474000003410B50400FFF74AFD4F
:100F100001002000FFF7F0FFFF232371BFF35F8F75
:100F200010BDC04610B50400FFF73CFD01002000D5
:100F3000FFF7E2FFFF23A380BFF35F8F10BDC04622
:100F400010B504000120FFF739FD034BC3189B00C7
:100F50002360BFF35F8F10BD4000003483680B48EF
:100F600010B58446614462441201090159189B1866
:100F70005C684A680120944201D802D00020C0B2C7
:100F800010BD1A680B689A42F9D8F7E7FFFFFF0F08
:100F90000A4B1968EFF3108072B60A68002AFCD079
:100FA000BFF35F8F1B68BFF35F8F00221A6080F36F
:100FB000108840BF002000217047C046281900203B
:100FC000F8B5574645464E46DE46E0B598460CAB6A
:100FD0001C780DAB1B78070091469A460568002CDB
:100FE0005ED1AC7B002C3BD0660029683619033EED
:100FF00089194B78AB73002B00D1EB7300238B70F6
:101000004B700B702D4BE218BB6812019B184A46BF
:101010001A6042465A600A9A9A600B9ADA60002374
:101020008B704B700B706B7B9B46002B2BD0220080
:101030005946A8686B6898472A68002816D05B460E
:1010400058465B005B449619033BB070D118D35CE3
:10105000002B00D073705B460C706B735C4513D033
:10106000F0BCBB46B246A946A046F8BD5B465B0055
:101070005B44033BD3189C709119925D002A00D009
:101080005A705B460B706C734A464346387D00F0DD
:1010900059FB051E0AD10E9B002BE1D01D70DFE726
:1010A000660029683619033E8919ABE75346002BC1
:1010B000F1D12100386800F069FDECE7FFFFFF0F78
:1010C000F0B5DE4657464E4645460023E0B58BB0A8
:1010D0000893684B8200D45800239B46099000F087
:1010E000ADFA02000B006068EFF3108A72B6564644
:1010F00001680029FCD0B246BFF35F8F21684F7BA7
:101100008C46002F2ED0A5685B49A94679180901A5
:10111000894449460868496805000E00AD1A9E4199
:10112000002E5FDD02000B00099800F00BFB00238E
:10113000002299460023069207930023984663688D
:10114000BFF35F8F5A461A608AF310884346002B1C
:1011500012D10028C3D10BB0F0BCBB46B246A946A1
:10116000A046F0BD00230022994600230692079373
:10117000002300209846E2E7089B494618023843BE
:10118000C047626805000E00EFF3108A72B613685C
:10119000002BFCD0BFF35F8F002E41DB2B003343CD
:1011A00002D02369002B56D12368D97B002905D0B2
:1011B0001A68480041185218033A57709A7B002A5F
:1011C00000D19F73DF73E268013FD35D0133D355D4
:1011D0005B4623616368BFF35F8F5A461A608AF3E8
:1011E00010887CE7002E02D1002D00D09AE7002164
:1011F000604600F049FC4B461A685B68069207930C
:101200004B469B6898464B46DB689946E368DB197A
:10121000013B1B7808931B020343236100208EE7E8
:101220002369002BC0D0069A079B8021521BB34133
:1012300009068B4202D30122104B52420021049135
:1012400001310391494601914146200002970091E6
:10125000FFF7B6FEBCE700F0F1F92A0033001218E0
:101260004B41802109068B42E8D30122034B5242B5
:10127000E4E7C04600180020FFFFFF0FFFFFFF7FDD
:1012800010B5144C6368002B04D00A211248FFF7F4
:1012900033FE10BD2300114A1021206800F00AFB24
:1012A000032000F0BFF9032000F0B4FA03200C493A
:1012B00000F002FAFFF776FB0A4B9C4603232375E6
:1012C000D0231B061B6860446375074B8000606079
:1012D000DC60DAE71C0D0020281900205D0F0010EB
:1012E000C110001040000034001800200048704772
:1012F0001C0D0020F0B557464E464546DE46E0B58B
:1013000085B0019310AB1B780600039300239A4627
:10131000984600927268EFF3108B72B61368002B38
:10132000FCD0BFF35F8F3568AC7B002C00D16FE041
:1013300067002B683F19033FDB195A78AA73002A0C
:1013400000D1EA734B4AA118B268090152180098FB
:101350000199106051600E9991600F99D1604246D9
:101360009A705A701A706B7B9946002B00D170E00E
:1013700022004946A8686B6898472A6800285BD015
:101380004B4648465B004B44D719033BB870D11815
:10139000D35C002B00D07B704B460C706B734C45BC
:1013A00058D0F3681B19013B18787368BFF35F8F3F
:1013B00042461A608BF310885346002B08D1000276
:1013C000204305B0F0BCBB46B246A946A046F0BDDE
:1013D000039B002B4BD00E9B00200F9998470300D6
:1013E00004000D000B4342D000291ADA009A019B39
:1013F000121BAB410092019380221206934204D348
:1014000001231D4C5B4200930194039B9A4681E7A4
:101410007368BFF35F8F1C608BF31088012040421C
:10142000CFE700F00BF9802224184D4112060094FA
:1014300001959542E9D3E3E74B465B004B44033B00
:10144000D3189C70D119D25D002A00D05A704B4637
:101450000B706C73307D009A019B00F073F982462B
:1014600000289ED02100306800F090FB99E7002012
:10147000A7E7C046FFFFFF0FFFFFFF7FF0B5EFF3C9
:101480000583CE46474680B505000C0085B0002B8D
:101490000DD0324A0020536A9C4203D8926A013030
:1014A000AA4232D305B0C0BCB946B046F0BD2C4EFE
:1014B000029301932B4B0200009330000B00FFF7C7
:1014C00019FF031EE5DD20BF7168EFF3108772B6C8
:1014D0000A68002AFCD0BFF35F8FDAB29446306806
:1014E000427B624516D0FF2201681A4089465100AE
:1014F00088464946904441440339897800290BD1F4
:101500003269934210D131610EE0E31A5A1E9341C1
:10151000D8B2C7E7FF221A40F1681B0A8A18013ABD
:101520001278DBB29A4214D07368BFF35F8F002247
:101530001A6087F31088094B00205A6A9442B1D888
:101540009B6A0130AB42ADD2A41A631E9C41E0B24B
:10155000A8E7614600F01AFBE6E7C04600400540F8
:101560001C0D0020910F0010F0B5EFF30582D64658
:101570004F4646461000C0B51038EFF3108872B6DB
:10158000214C2368002BFCD0BFF35F8F012319008F
:1015900081401E4D1F006963AA461D4D29601D4DE7
:1015A0002E78AC463500C5402F402B4215D053460F
:1015B0005F6A194B8500EB589F4218D36246174B60
:1015C0008E43EB581670BFF35F8F0022226088F3C2
:1015D0001088002B06D0984704E0BFF35F8F276088
:1015E00088F31088E0BCBA46B146A846F0BD0C4B63
:1015F00092009C46624413681360BFF35F8F002320
:10160000236088F31088EDE7280100D000400540F2
:101610003C70054058190020301900207412002039
:10162000D03F054010B5034B01001800024AFFF7F8
:101630003BF910BD54190020484F0010034B596A64
:101640000A00986A596A8A42FAD1704700400540F8
:1016500070B504000D00174A536A1900966A536A60
:101660008B42FAD13000190024184D41AB4216D8F4
:1016700013D0104B2A005B6A9D4203D90D494B6A77
:101680009342FCD3934207D10A4A02E0516A99423D
:1016900002D1916AA142F9D370BDA642E9D9054BA6
:1016A0005B6A1C005A1CEFD0012201246442E5173A
:1016B0005242E3E70040054070B504000D00EFF32F
:1016C000108672B61A4A1368002BFCD0BFF35F8FE6
:1016D000002D1BD02000FFF795F9164981420AD052
:1016E0002000FFF797F901212000FFF779F9012386
:1016F000A340114A1360114BA400E550BFF35F8F64
:1017000000220B4B1A6086F3108870BD0121A140A6
:101710000A4BA200D5500A4B20001A788A4305498B
:101720001A70FFF79BFA00212000FFF759F9E5E74F
:10173000280100D06915001038600540741200209F
:1017400058190020F0B54F46D6464646C0B50700AA
:101750002B4C616A0D00A66A616AA942FAD18B42DC
:1017600008D805D00120E0BCBA46B146A846F0BD75
:10177000B242F7D9EFF3108A72B622480168002905
:10178000FCD0BFF35F8F0125BD401F491C4C88462C
:10179000097889462943C9B28C464146604608709B
:1017A000391D890065630A511849B8004350216A00
:1017B0000020294219D0616A0800A66A616A814244
:1017C000FAD18B4219D801D1B24216D8CC450BD0F0
:1017D0000B4B1F221D625D6301233A4093400C4A6C
:1017E000136043464A461A700120BFF35F8F002200
:1017F000044B1A608AF31088B5E70020F5E7C0466D
:1018000000400540280100D0581900203019002060
:1018100080E200E0EFF3108C72B60A490B68002BEF
:10182000FCD0BFF35F8F01238340074A0748136250
:1018300002789A430270BFF35F8F00230B608CF332
:1018400010887047280100D000400540581900203A
:1018500070B505000E001400002923D0002A12D014
:1018600080686B689847296800280ED063001B19B0
:101870007200033B9219CB18033A9E7088188A5C59
:10188000002A11D10470300070BD73009B196200F2
:10189000033B1219CB18033A9C7088188A5C002A03
:1018A00005D106702000EFE75A700470EBE75A701C
:1018B0000670F7E730B583600023CCB24373013381
:1018C000047342608373C4730D000068012C06D951
:1018D000421C0133DBB2137003329C42F9D1FF2169
:1018E00029404B005B18C01800230338437030BDFB
:1018F00070B505000C1E07D0630001681B19033B7F
:10190000CB185A78002A01D1200070BD50008018F1
:101910000338091800204E784870210058702800BC
:10192000FFF796FF310004002800FFF7E1FF0600F3
:10193000002C26D00028E7D021003200A8686B6870
:101940009847296800280ED073009B196200033B5A
:101950001219CB18033A9C7088188A5C002A00D0B0
:101960005A700670D0E763001B197200033B92198E
:10197000CB18033A9E7088188A5C002A00D05A70EF
:1019800004703400C0E7C046F0B557464546DE4611
:101990004E46E0B50D006F0001687F19033F04005B
:1019A000C85D83B00192CA19002850D043001B18AB
:1019B000033BCB185E78B446002E1AD1019E002E50
:1019C00042D0E67B002E04D073009B19CB18033B5A
:1019D0005D70A37B002B00D1A573E57300282FD188
:1019E0000023537003B0F0BCBB46B246A946A046E4
:1019F000F0BD72006244033A8A185178884600218B
:101A0000517089465970320001002000FFF720FF15
:101A100043468246002B07D05B0021684344033BCA
:101A2000CB185A78002A16D1424651462000FFF7BB
:101A30000FFF2168019BCA19002BC2D10028CFD00B
:101A400043001B18033BCB1800219970C8E7019B8A
:101A5000002BB6D1C4E75000801803380918487825
:101A6000834648464870587041462000FFF7F0FE14
:101A7000594680462000FFF73BFF41460200200008
:101A8000FFF7E6FE8046CFE7F0B557464546DE460F
:101A90004E46E0B583B00191457B04006F000068BD
:101AA0007F19033FC15DC219002952D04B005B185A
:101AB000033BC3185E78B446002E1CD1019E002E55
:101AC00044D0E67B002E04D073009B19C318033B5F
:101AD0005D70A37B002B00D1A573E573002931D184
:101AE000002328005370617303B0F0BCBB46B246BC
:101AF000A946A046F0BD72006244033A82185078AD
:101B00008046002050708146587032002000FFF758
:101B10009FFE43468246002B07D05B00216843446A
:101B2000033BCB185A78002A17D142465146200071
:101B3000FFF78EFE019B01002068C219002BC0D167
:101B40000029CDD04B005B18033BC31800209870D0
:101B5000C6E7019B002BB4D1C2E7500080180338C0
:101B60000918487883464846487058704146200016
:101B7000FFF76EFE594680462000FFF7B9FE41464A
:101B800002002000FFF764FE8046CEE770B5050036
:101B900000292CD0437B8B422ED04C000068641867
:101BA000033C0419A278002A21D053009B18033B60
:101BB000C25CC6188A4202D11BE0002A08D053003A
:101BC0009B18033BC3185A788A42F6D162785A7040
:101BD000002301222800A3706370FFF7D5FE697B04
:101BE00002002800FFF734FE6873012000E00020A7
:101BF00070BD63783370EBE701221900FFF7C4FE74
:101C0000F2E7C046F8B5CE464746040080B5062048
:101C10000E0000F01FFA051E51D0524B5249E21837
:101C200053425A418023DB039C4692054F4B62444A
:101C30001A604F4B1A6010008B689843FBD1494BD8
:101C40004C4AE31859424B4180215B004900062071
:101C5000995200F0FFF93100C00000F063FBC309A6
:101C600032D14022012190466162A362256BEB07CD
:101C700036D427008026E36A00232C3776013E43C2
:101C800033600620256300F0E5F94146800000F04E
:101C900049FB236B05009846DB073BD46023E26ACF
:101CA0005A400E331340336043462363802310228F
:101CB0009B013B431A60304B23630323A36428003A
:101CC000C0BCB946B046F8BD2C4A93423FD9002368
:101CD0002B492C4A6162A362256B9046EB07C8D55D
:101CE0002200C02330329B011343234A06201A608E
:101CF000666AA36AB601F61800F0ACF9224900F052
:101D000011FBB6020100300000F00CFB0021FFF7D0
:101D10009FFCAEE72200C02330329B011343164ADA
:101D200006201A60636AA26A9B019946914400F0FA
:101D300091F94B4614499B02994600F0F3FA0100D1
:101D4000484600F0EFFA0021FFF782FCA6E77F2269
:101D5000990188460240013252081900904413004C
:101D600082E7C0460080FCBF00C0004000E00040A9
:101D700000F000404019002001030000FEFF0000B9
:101D8000FFFF0000C0FF3F004E0E000010B50C200A
:101D900082B000F0B5F9FEF779FD002810D08B4B2A
:101DA0008B488B498B4A186059609860D9601861DC
:101DB00059619861D961186259625A6202B010BDC6
:101DC000854CA06700F0A4F90122844B1A60636C73
:101DD000012BFCD10322824B1A607F4A936B012BAB
:101DE000FCD1013301217F4A7F480093043300F086
:101DF00037F905237D4A009301217D4800F030F931
:101E00007C4B5A68FF2A02D8802252005A608022F6
:101E1000734B6E4C12011A602169002907D060696A
:101E200000F080FA013043001B18033BFDD2E02292
:101E3000704B714819680A400260022219685140CB
:101E400001320A40042102609A681142FCD08021CC
:101E50006A4A09011160802252005A60684B23616E
:101E6000684B5968FF2900D85A60032201215B4B57
:101E70001A60644A93681942FCD0E023106803405A
:101E800061480360126803234A40022113405D4AFF
:101E9000036093681942FCD080215C4B09011960F2
:101EA00080215B4B4900516063615A4B5A68FF2A9D
:101EB00000D859608022584B12011A60E16900294C
:101EC00007D0606900F02EFA013043001B18033B75
:101ED000FDD2E0234F4A11680B4050490B6080212E
:101EE0004F4B090119608021394B49005160E36172
:101EF0004C4B5A68FF2A00D8596080224A4B120185
:101F00001A60216A002907D0606900F00BFA0130DD
:101F100043001B18033BFDD2E023424A11680B40EB
:101F200042490B608021424B0901196080235B000C
:101F300053608022264BD20223623E4B5968914265
:101F400000D25A6080223C4B12011A60616A00295B
:101F500007D0606900F0E6F9013043001B18033B2D
:101F6000FDD2E023334A11680B4034490B608021D5
:101F7000334B090119608023DB025360154B636208
:101F8000304B5A68FF2A02D8802252005A608022C1
:101F90002D4B12011A60A169002907D0606900F079
:101FA000C1F9013043001B18033BFDD2E023254A51
:101FB00011680B4025490B608021254B09011960F0
:101FC00080235B005360124BA361F7E6E00D002015
:101FD000006CDC021BB70000008000403CB00040F9
:101FE00030B00040002F685900800240008C8647C6
:101FF00000C00240308000403090004030A00040DF
:10200000001BB7003C8000403C9000403CA00040DA
:10201000405973075480004054B000405490004031
:1020200054A000406080004060B0004060900040DC
:1020300060A000406C8000406CB000406C9000409C
:102040006CA000404880004048B0004048900040EC
:1020500048A00040014B8000C0587047E00D0020B0
:10206000F8B5040021481D0017000E0000F05AF9D1
:102070000100380000F056F9069B29041B031943A0
:102080002368002B20DB1A4B1A4DE21853425A41A9
:1020900080235B019C461203174B62441A60174B66
:1020A0001A601700AB689F43FBD1C022231D920129
:1020B0001A4321232660A06013602368002BFCDAFA
:1020C0000823E1601360F8BD3F2322681340B34248
:1020D000D9D1A3681B051B0D8342D4D1EE22E3683E
:1020E000D20213408B42CED1EDE7C046001BB700B1
:1020F0000040FDBF00C0004000E0004000F0004094
:102100008023024A9B000343D3627047008005404E
:10211000AA23064A1B0113602133FF33D36004490D
:10212000044B19605368002BFCDA704700400240F2
:1021300000B0FA00006002402C4B2D4A70B51A60C6
:102140002C4A2D4B2D491A6014008B689C43FBD1FF
:102150002B4D2C4EB54208D2013E761BB60808CD59
:10216000984723000134B342F9D1FFF70FFE264A06
:10217000214B1A60214A9368DB43DB01DD09002B08
:10218000F9D14022214B224C224E9A675A671A6796
:10219000DA66B44208D223682000002B20D008342D
:1021A000FEF7C0FEB442F6D31B4C1C4EC022B168F1
:1021B000200000F0B1FBB460FEF7E6FBFEF78AFEFC
:1021C000FFF75EF8164C174EB44208D2013E361B9C
:1021D000B60808CC98472B0001359E42F9D170BD56
:1021E0000834FEF791FEB442D5D3DDE700E00040AD
:1021F000BFCDFBFEFE7F3C0000F0004000C0004071
:10220000B80D0020C80D0020FFFFFF0100F00140C5
:10221000B00D0020B80D00200000002000ED00E00F
:10222000C80D0020D00D002000BEFDE710B5FFF75F
:10223000FBFFC0460FB400B5084883B000F01CFC9B
:10224000049B002B07D005A91800019100F018F895
:10225000034800F011FC0120FFF7E6FF6C4F00106F
:102260007C4F001010B50148FFF7E4FF804F0010CD
:1022700010B5002800D110BD00F0B2FBFBE7C0464E
:1022800010B5094A0300146884B0002C08D001225C
:1022900000910648524203A9A047012004B010BD96
:1022A00000F0EAFB0020F9E79017002071220010EF
:1022B00001480421014B1847500D0020E122001075
:1022C000142310B50100188804331B88984710BDEB
:1022D000162310B50100188802331B88984710BDDB
:1022E000F8B54746CE4680B50F1E19D0142399463F
:1022F000043304000025012698464B4618884346BF
:1023000021681B88984701C4431E9841013540420B
:102310000640AF42F1D13000C0BCB946B046F8BD6E
:102320000126F8E7114A936F9B0813D21066516695
:10233000002905D0FFE7FFE7FFE7516F106F7047F7
:1023400004B5002801D00020C04302F059FD00214F
:1023500004BDC046F0B5146E556E576F166FFFF78B
:10236000E5FF1466556657671667F0BD000000D09C
:1023700094464A4A926F9208624601D228E0C046CB
:10238000F0B5464E346E756E776F366F00F020F8FC
:102390009446424A14665566576716676246F0BD12
:1023A00094463E4A926F9208624601D254E0C0467B
:1023B000F0B53A4E346E756E776F366F00F04CF8AC
:1023C0009446364A14665566576716676246F0BDEE
:1023D000002B24DB11D000293EDA00B5C94340426E
:1023E00000D1013100F038F8C943404200D1013139
:1023F000DB43524200D1013300BD002AEBD100285B
:1024000001D1002905D00020C90FC90701D1C0435F
:10241000410800B502F0DCFC0022002300BD00B53D
:1024200000290ADBDB43524200D1013300F014F8EB
:10243000C943404200D1013100BDC943404200D1EF
:102440000131DB43524200D1013300F005F8DB4398
:10245000524200D1013300BD002923D1002B18D1F5
:10246000002A0CD0BC460D4F38667A660021002346
:10247000FFE7FFE7FFE77A6F386F6746704700288E
:1024800001D00748010000B502F0A2FC00220023A1
:1024900000BD02000B00002000217047000000D0AA
:1024A000FFFFFFFF002B00D0BFE0130C28D1002A54
:1024B000E7D080B4114F39667A66FFE7FFE730B4A2
:1024C000040C7B6F396F1B0423433B667A66FFE77E
:1024D000FFE7FFE7C04684B27B6F3D6F1B042343D9
:1024E0003B667A66FFE7FFE7C04600232C042D0C0D
:1024F0007A6F386F00196941B0BC7047000000D096
:10250000F0B594460025140E01D112020835140FBF
:1025100001D112010435940F01D192000235D40F7C
:1025200001D152000135D40B0134254F7C66254C76
:102530003C660E0C93B2FFE7FFE7FFE73C6F664394
:10254000360C7703BE467343DF0B5B04C01AB941F8
:10255000130C7343DB18C91ACE086643360CB64415
:1025600093B273431F0F1B01C01AB941130C73437D
:102570001F0B1B05C01AB941860D8F023E436643EF
:10258000360C092D24DB520A7243801A7703460A5F
:102590006643360C16235B1BDE40DF40BF196446E2
:1025A0006643821B7046043506330100D940A840BB
:1025B000C01900D30131A24206D20023F0BD0000B1
:1025C000000000D0FFFFFFFF121B0130F3D3F1E743
:1025D00009277F1BFE406446A2B27243801A00D2D4
:1025E0000139220C7243130C1204821A99410B0018
:1025F0007046043513370100F940A840801900D314
:102600000131002B02D1A2420AD2F0BD013000D329
:102610000131121BFAD2013BF8D1A24200D2F0BD27
:10262000013000D30131121BF7E7F0B51C0C00D0CC
:1026300080E00CB400251C0A04D11B02160E3343A3
:10264000120208351C0B04D11B01160F3343120173
:1026500004359C0B04D19B00960F33439200023546
:10266000DC0B02D192185B4101351C0097186441C4
:102670000134464F7C66464C3C660E0CFFE7FFE794
:10268000FFE7C0463C6F6643360C7703BE4697B201
:102690007743C01B00D20139C01B00D201399FB261
:1026A0007743C91BC91B170C77437E04FF0B801BA4
:1026B000B941CE086643360C0C2D33DBB644120B01
:1026C0001F053A431B0B97B27743C01B00D2013959
:1026D0009FB27743C91B170C77433E043F0C801B06
:1026E000B941860D8F023E43664329277F1BFE407A
:1026F0000C3D7746AF40BF1930BCA2B2ABB27243BB
:102700007343801A9941220C7243130C1204801AED
:10271000994102000B000137001BA941F9D2781E34
:102720000021F0BD0C277F1BFE4077467F0BAF409A
:10273000FF19E0E700245D1C07D0144F7D66396661
:10274000FFE7FFE7FFE7FFE73C6F95B29EB2654307
:102750006643401BB141150C1E0C654366433604AD
:102760002F0C3E432D04401BB141994204D202007C
:102770000B0020000021F0BD01D19042F7D3801A58
:10278000994101349942F2D3F6E70000000000D0ED
:10279000FFFFFFFF10B50148FFF74CFD8C4F001005
:1027A000132370B51D78012D15D010DD1B48FFF7E0
:1027B0008FFD1B4C01008022200000F0ADF8022D9F
:1027C00006D01848FFF77CFD174B186070BD144CFD
:1027D000164BA364F5E7164B114C23606360A360AE
:1027E000E36023616361A361E36123626362A362C7
:1027F000E36223636363A363E36323646364A364A7
:10280000E36423656365A365E36523666366A36686
:10281000E36623676367A367E367D9E75344000070
:10282000080F00204C330000241800203528001029
:102830009527001007B5604601880A0A0230DF2A92
:10284000FAD1C9B2820804D3028840880004104338
:1028500000E00068014A5050039007BD080F0020B7
:1028600051434343C9188C46110C83B24B4310B4F7
:10287000040C614392B280B2504362431C041B0CAF
:10288000001910BC59411304120CC0185141614485
:102890007047000010B50148FFF7CCFC804E0010D7
:1028A000132310B510481C78FFF712FD0100012C0E
:1028B0000AD003DD80220D4800F02EF80C48FFF707
:1028C000FFFC0C4B186010BD084C5422200000F097
:1028D00023F82200084980322368002B00D12160B0
:1028E00004349442F8D1E9E7534600002818002048
:1028F0004C330000241800209528001001480421C2
:10290000014B1847600D0020E1220010014B1B68AD
:1029100018470000600D0020014B5B68184700005D
:10292000600D0020F0B546464F46D646C0B5437D03
:1029300080460E001700002B4BD0002A32DD274BBB
:1029400001259A464B1E00240020994607E0335D7E
:102950000A2B2CD02B0001340135BB4213DA002C9A
:10296000F5D133780A2BF5D143461B7D002BF1D1ED
:102970004346504602211B68984728002B0001342B
:102980000135BB42EBDB874204DD4346391A1B6845
:1029900030189847F619013E33780D3B5A4253419F
:1029A00042461375E0BCBA46B146A846F0BD4B4658
:1029B0001B5D0D2BCED0A042DADA4346211A1B68EC
:1029C000301898474346504602211B689847280014
:1029D000D4E70368110030009847E3E71C5000106B
:1029E000F0B5CE46474680B583B06B460600DD1D88
:1029F0002870FEF723FE00231A4A12184B4180214B
:102A000009068B4202D30122174B52421749080094
:102A1000884602F005FA164B81461C68002C14D03B
:102A2000144F02E02469002C0FD02368002BF9D04A
:102A30003B68002B01D0A342F4D1200001222900E1
:102A4000FFF770FF2469002CEFD14B46002B05D116
:102A5000300003B0C0BCB946B046F0BD404602F0FD
:102A6000AFF9F5E740420F00FFFFFF7FB00D0020F8
:102A70007813002088130020F0B5DE4657464E46F6
:102A80004546E0B585B0070002F06AF90600FEF79A
:102A9000D5FD00232B4A12184B41802109068B4299
:102AA00002D30122284B5242284908008B4602F0EB
:102AB000B7F9274B01901C689A46002C3BD0254B58
:102AC000984602ABDD1D0A23994602E02469002CDA
:102AD00017D02368002BF9D043461B68002B01D088
:102AE000A342F3D1200032003900FFF71BFF4B4611
:102AF0002000012229002B70FFF714FF2469002C0D
:102B0000E7D1019B002B18D153461C68002C06D03E
:102B10006368002B0BD098472469002CF8D1300053
:102B200005B0F0BCBB46B246A946A046F0BD24693C
:102B3000002CEDD1F3E70028F1D0584602F040F91F
:102B4000E2E7C04640420F00FFFFFF7FB00D0020CC
:102B500078130020881300200A4A1368002B05D13F
:102B60000CE01A001B691032002B07D09842F8D1F4
:102B7000002902D103691360016170470029FCD06C
:102B80001060FAE778130020F0B5002915DD0E4B30
:102B90000D271A680D4B0E4CD3185D426B4145183A
:102BA00020215B001E5F0478A64207D0936919427A
:102BB000FCD101301460A842F5D1F0BD93691942EF
:102BC000FCD11760F2E7C046481900200080FCBF26
:102BD0004019002030B504000D1E30DD002010210A
:102BE000204B013C1A689369194217D1013093694F
:102BF0001942FCD1136823548542F4D11A4B1B6847
:102C0000002B09D0502338219363536B3432194081
:102C100080235B011343196028000FE0124B1B68EF
:102C2000002B09D0502338219363536B3432194061
:102C300080235B011A431160002810D030BD0A4B7D
:102C40001B68002B0BD050223821064B1B689A635F
:102C50005A6B343311408022520113431960032010
:102C60004042EBE748190020EC120020064B10B55B
:102C70001B68002B06D00021044A12689163044AA5
:102C80001068984710BDC046EC120020481900207B
:102C9000F01200201D4BF0B51A68C64698461C4B32
:102CA0000E00D31859424B411A4F14331C00050033
:102CB00000B53B68002807D0002B11D0164B3D60B3
:102CC0001E6080BCB846F0BD002BF7D09063002199
:102CD0002000FDF785FE20001049FDF7BFFFEDE75E
:102CE00020000E49FDF796FE01212000FDF778FE39
:102CF0004346502238211B689A635A6B3433114083
:102D00008022520113431960D8E7C04648190020B9
:102D10000080FCBFEC120020F01200206D2C00108F
:102D200070B50C4E0D001C003060002A03DB022140
:102D30001000FDF753FD002C03DB02212000FDF7FE
:102D40004DFD29003068FEF75DFF01210248FFF7C5
:102D500003FF70BD48190020700D002010B5114C04
:102D6000114B22689A4210D1104B62689A420CD1E2
:102D70000F4BA2689A4208D100230E482360FFF748
:102D80009FFA0021030000209847074B0021236091
:102D9000064B09486360064BA360FEF759FC00230D
:102DA000236010BDD00D0020DE8116F0299B72BD7E
:102DB0007ABE59D355420000400D0300E12110B501
:102DC000044B05480022186049020123FFF7A8FFC1
:102DD00010BDC04644190020004003407047C04663
:102DE00010B501210520FDF7FBFD10BD10B5002237
:102DF0000021024800F008FA10BDC046B0130020C0
:102E00008022024B5202DA647047C0460020115003
:102E1000F0B5C64600B5060000F0D0F90C231B4DF6
:102E2000FF22AB6705201A49FDF71EFE4023984696
:102E3000184C402200212000FFF768FD434601277F
:102E4000238321210023144A6770A2601360635416
:102E50005F31618441462187053963540F4A104927
:102E60006360E260A1620B606362E26201F0E0FF16
:102E700080239B052F64EB6490230A4A3000EA50BC
:102E8000FFF7BEFF80BCB846F0BDC0460000115041
:102E900029030020901300208400105000011050DE
:102EA0008000105010D001000B785B0602D14B78E7
:102EB000052B00D070478A78014B1A60FAE7C046AC
:102EC00000001150F0B5C64600B5CC7888780A7974
:102ED0004B797F21A40701401B02C50913434F0012
:102EE000A20F1400324E7A195201B21890700120CC
:102EF0006840507000205B055B0DD0701383D47662
:102F00008046CA00012D33D02A4884468801624495
:102F10008446B4446046826040461060002933D045
:102F2000254AC90090466246414451603F223F33E2
:102F30009343022C00D15B0020487A1901685201AA
:102F4000B218D1601E4ACB18036051405A4080230A
:102F500088465B019A4228D84346A4061C43802336
:102F60007F197F01F61972681B062343136011E075
:102F700014488446880162448446B44460468262B0
:102F800040461060002909D100236D0175196B605E
:102F90000D4BEB60012080BCB846F0BD084AC9006B
:102FA0009046624641445162C0E7FFF75BF9D3E7C0
:102FB000901300208400105004001050F8170020D7
:102FC00000001050800010500001105010B501F0AA
:102FD0002FFF10BD10B57F200C0020404000E409F9
:102FE000110000191A00034B4001C01800F00CF941
:102FF000012010BD901300207F23180010B5084059
:103000000B420BD0C90980224000074B40184001F9
:103010000021C018120101F01BFF10BD0223034A5A
:10302000C9095B1A9366EEE7901300200020115047
:103030007F22130010B50B400A4200D110BDC90910
:103040005B005B1804485B01C018002300220349A1
:10305000C37001F0FDFEF1E790130020FFF7FFFFC2
:103060007F20002308404000C90910B54018504C8B
:1030700040012018426800211360826813602022FA
:10308000FFF744FCE36C002B00D090E0E36E002BD4
:1030900000D08CE08C33E358002B00D087E0AC33B9
:1030A000E358002B00D082E0CC33E358002B7ED1D4
:1030B000EC33E358002B7AD10D33FF33E358002B68
:1030C00075D12D33FF33E358002B70D14D33FF33CF
:1030D000E358002B6BD16D33FF33E358002B66D1DF
:1030E0008D33FF33E358002B61D1AD33FF33E35809
:1030F000002B5CD1CD33FF33E358002B57D1ED3398
:10310000FF33E358002B52D183239B00E358002B5D
:103110004DD18B239B00E358002B48D193239B0078
:10312000E358002B43D19B239B00E358002B3ED157
:10313000A3239B00E358002B39D1AB239B00E3581A
:10314000002B34D1B3239B00E358002B2FD1BB239A
:103150009B00E358002B2AD1C3239B00E358002B8C
:1031600025D1CB239B00E358002B20D1D3239B00F8
:10317000E358002B1BD1DB239B00E358002B16D117
:10318000E3239B00E358002B11D1EB239B00E35872
:10319000002B0CD1F3239B00E358002B07D1FB231A
:1031A0009B00E358002B02D1024B034A1A6010BD6A
:1031B00090130020F81700208001105080220D4B42
:1031C000520410B51A600C4B0C491A6010008B6841
:1031D0009843FBD10A4C9C2200212000FFF796FB6C
:1031E0008022002152010748FFF790FB0923636703
:1031F00010BDC04600E0004000F0004000C00040AC
:103200000000115000001050002310B5C38201339C
:10321000828283760161040001F0E2FD002804D07F
:1032200080219023074A8902D150200001F0E0FD5F
:10323000002802D00123237710BD200001F000FEFA
:10324000FAE7C04600201150034B1878FF38431EA0
:103250009841C0B27047C046AC0D0020F0B5C646DC
:1032600000B52A4E05003378FF2B01D001203FE046
:10327000532200212648FFF749FB264C2000FDF78A
:1032800043FE254B1C60254C2000143CFDF758FEE6
:10329000200001F059FC224B224F1C60224B984623
:1032A000002B1DD0380000E000BF204B18603B7899
:1032B00042460024002A15D01D4A904642469C42B0
:1032C00019D3904701343B78E4B2A342F6D22800E8
:1032D0003570FFF79DFD2800FFF782FD012007E014
:1032E0003B78E5E700F072FE3B78002BEFD0002042
:1032F00080BCB846F0BD0D4A630012681B19DB00A4
:10330000D318002BF3D01A68DBE7C046AC0D0020C1
:103310005811002010110020AC110020A40D002035
:10332000B01100205219002000000000841000207D
:10333000CD3F0010F0B5DE4657464E464546E0B557
:103340008FB001F09BF9002800D117E1CA4BCB4E9A
:103350009B46CB4B0BAC9946CA4B9A4635686A697B
:10336000EFF3108172B61368002BFCD0BFF35F8FB0
:10337000A9612800210001F029FA6A69AB69BFF34D
:103380005F8F0021116083F31088002800D1F5E0E1
:103390006378082BE2D85A469B00D3589F4663684F
:1033A000002BDBD0A0689847D8E77F222179B44D65
:1033B0000A405300C809EB181B181D0001273035BF
:1033C000E878B843E870E8780337B843E870002A33
:1033D00000D1F0E0AC4ADB7C002A06D0AB4A127880
:1033E000934200D264E19B1ADBB2002B00D0C5E00F
:1033F000A74DA36862792078A847AFE70122A04DC6
:1034000001202B78042113432B703323EA5C824381
:10341000EA54EA5C8A43EA540133EA5C8243EA54A0
:10342000EA5C00208A43EA542378019300F0C6FC4A
:10343000602322791340602B0DD0402B00D1C0E0D7
:10344000D206D20E012A00D13DE1022A00D1D5E0F8
:10345000002A00D1C4E020780021FFF7CDFD8021B3
:103460002078FFF7C9FD79E74B461B78DB0700D4CE
:1034700074E7884B002B00D170E7FCF7D3FF6DE7B2
:103480007F4D2B78DB0700D468E7834B002B00D1FE
:1034900064E728780007C00FFCF7BCFF5EE72378DD
:1034A0007A4F794A984600253B78002A4BD05246FD
:1034B000B2463E0017003A00AB4266D840469047FD
:1034C00001353378EDB2AB42F5D25646BA466C4D73
:1034D000532200212800FFF719FA1022FF21E81CCF
:1034E000FFF714FA28002022FF211330FFF70EFA0D
:1034F0002FE02378654F644A984600253B78002AE0
:1035000030D05246B2463E0017003A009D4247D3A3
:103510004046904701353378EDB2AB42F5D256467E
:10352000BA46574D532200212800FFF7EFF9102229
:10353000FF21E81CFFF7EAF928002022FF211330C1
:10354000FFF7E4F915E0404600F06EFD3B78002BF4
:10355000BDD000F029FC514B002B00D1FEE6FCF75A
:1035600053FFFBE6404600F05FFD3B78002BD8D0D0
:10357000434D00F019FC2379AB70EFE60FB0F0BCBF
:10358000BB46B246A946A046F0BD454A6B0012684C
:103590005B19DB00D318002B00D1ADE15A688DE731
:1035A0003F4A6B0012685B19DB00D318002B00D177
:1035B000A5E15A68ACE7A3686279207800F012FCB4
:1035C000CCE63848002800D145E700F0F7FB0121A0
:1035D00001980CAA00E000BF002800D0BEE63AE740
:1035E000202B00D1A4E0002B00D034E76379092B15
:1035F00000D930E72C4A9B00D3589F467022217A8D
:103600000A4200D027E70F320A405200CF09A8181B
:10361000C019C07C029284461B48002808D01B4871
:103620000078844500D2A5E06246101AC2B29446E2
:103630006046002800D098E0002B00D058E11B4BDA
:10364000984660790222030003909343012B00D136
:1036500058E1002800D0FEE6029B0AAAEB18DB190D
:103660003033DB7802329B07DB0F13800198022393
:103670000CA900F043FB71E6B4500010B01100201B
:1036800058110020294000100000000052190020AD
:103690002D45001025040010150400100904001029
:1036A0008410002000000000D8500010405100108D
:1036B000BF4A58001268C318DB00D318002B00D192
:1036C0005CE71D6995E6237A0F2B00D9C3E6B94A5A
:1036D000EB18DB78002A05D0B74A1278934265D3FD
:1036E0009B1ADBB2002B00D0B5E6B448B44D00F015
:1036F00065FB0121EB6801980CAA9847002800D0CF
:103700002CE66022150023791D401A4200D0A2E663
:1037100063790A3B012B00D99DE600F04FFB6379EA
:103720000A2B00D12EE101980CA900F0D1FA15E680
:10373000237A0F2B00D98EE69E4AEB18DB78002AFD
:1037400006D09D4A1278934200D2FCE09B1ADBB26D
:10375000002B00D07FE69948994D00F02FFB012106
:10376000EB6801980CAA984736E79846002B00D1E1
:1037700067E770E6624652009046C44462468C4851
:10378000D20000689446020062449046002B00D1AB
:1037900057E7002A00D15EE6D06800F00FFB4346F1
:1037A0000121DB6801980CAA984715E7804A590067
:1037B0001568CB18DB00ED18002D00D14BE6E8684A
:1037C00095E7E388012B00D045E608222B78019885
:1037D00093430CA92B7000F07BFABFE502202978F7
:1037E0000AAB9A1C8B068908DB0F01400B433CE7B0
:1037F000A37904931A006B789A4207D06B78002B58
:1038000000D044E1049B002B00D0E5E0049B01982C
:103810000CA96B7000F05CFAA0E56B780AAA023282
:103820001370019801230CA900F068FA96E5E3886B
:103830001A0AD8B20F2A00D90DE662499300CB5874
:103840009F460CA800F0C0FAA1790198FFF7CEFAC4
:1038500002222B7813432B7080E5E388012B00D0E4
:10386000F9E508222B78019813430CA92B7000F07E
:103870002FFA73E5544B002B00D1ECE500E000BFBC
:10388000021E00D1E7E5D37891781B020B43019823
:103890000CA900F033FA9FE64C4B002B00D1DAE57F
:1038A00000E000BF021E00D1D5E5137801980CA9F5
:1038B00000F024FA90E62189FCF752FF021EF4D1B1
:1038C000C9E5022A00D160E1414B002B00D1C2E5DD
:1038D00000E000BF0200002A00D1BCE5D3E7FCF7FE
:1038E00037FF122302000CA9019800F007FA73E6D3
:1038F000334B3248984650E75646BA4629E6564674
:10390000BA4635E6E388002B08D1012826D0029B71
:10391000EA18D7193037FB789B073CD54746002F6C
:1039200000D11BE5F86800F049FAFB6801210CAAF8
:1039300001989847002000F041FA3423EB5CDB0744
:1039400000D50BE5EFE61A4A59001568CB18DB00E5
:10395000ED18002D00D17EE5E868FEE6029BEA182E
:10396000D7193037FB789B07D8D51A4B1878FFF753
:103970005FFB0222FB789343FB70FB78039A93432F
:10398000FB70CBE70AAB9A1C019801230CA91570B8
:1039900000F0B4F9E2E40F4B1878FFF72DFB022298
:1039A000FB7813430122FB70FB781343FB70B5E7F0
:1039B00084100020000000005219002085400010F3
:1039C00040510010005100100000000000000000F5
:1039D00000000000AC0D0020581EC0B2FCF7BCFE79
:1039E000002800D137E54378022B00D033E50121D0
:1039F000C2790700931152110B400A4012015B017A
:103A000013432A782F318A4313432B70C37882786B
:103A10001B021343C3180693644B09370593644B89
:103A200002960993019B98465B46AB460393069B1F
:103A3000BB4200D8ADE001227B7807920B2B03D16B
:103A4000FB7807933B78FF187B78042B63D1002524
:103A5000069BDB1B9BB20193059B1A78554B089381
:103A6000099BAB424CD0089BAA4200D984E0019E3E
:103A70003900320040469847082801D9864259D279
:103A8000059B01351A78EDB2AA42ECD243E0019BC6
:103A900018009846FFF79AFA0021AB78434F444A42
:103AA000039302913B78002A21D0434A0192029964
:103AB000019A8B4233D840469047029B0133DBB2D8
:103AC0001A0002933B789342F1D24346019353226A
:103AD00000212800FEF71AFF1022FF213748FEF7C9
:103AE00015FF2022FF213648FEF710FF05E0019860
:103AF00000F09AFA3B78002BE9D0039BAB7081E68B
:103B000039004046019A00F09DFA0600082802D9C3
:103B1000019B83420FD2039B029E9B469BE48C46F3
:103B2000284B4A001B686244D2009B18002B20D00F
:103B30005A68C0E706000022584609E0BB78D3184F
:103B4000DBB2C318D978FF29E5D10132DD70D2B2DA
:103B5000079B9A42F2D12B00390083463200184865
:103B600000F0CEFD059BBF191B78AB4200D35EE78A
:103B7000D1E743460193C0E71822124B6A431B6802
:103B80009B18002BC7D09B6871E7FCF7E5FD02008E
:103B9000A1E643460193039B5D469B460A4B029E6A
:103BA000002B00D132E6FCF727FC2FE6521900204B
:103BB0000000000045400010294000105B1100206B
:103BC0006B11002084100020F9030010702270B5E2
:103BD000094B0C001D788B781A4201D0002070BD73
:103BE000064B2000997800F04DFD0028F6D021000A
:103BF0002800FFF767F9F2E7AC0D0020581100200C
:103C000070B57F240F480C4064000419CD09641975
:103C10003034E078C00701D5002070BD0126E5787A
:103C2000094835430078E570FFF7D4F90028F4D14E
:103C30000122E3789343E370E37803329343E37024
:103C4000EAE7C04658110020AC0D00207F2210B5D5
:103C50000B4B0A4052009C18C80924183034E378F2
:103C60009B0700D410BD074B1878FFF7E1F902223B
:103C7000E3789343E370E378013A9343E370F1E729
:103C800058110020AC0D00200E4B10B50C00002B7D
:103C900017D00D4B1878FFF7E3F97F2302210B4A69
:103CA00023405B00D318E4091B193033DA788A43C8
:103CB000DA70DA7801398A43DA70DA7803318A43C4
:103CC000DA7010BD61300010AC0D002058110020DA
:103CD00070B5094C0600082220000D00FEF71CFEFE
:103CE00000238021E360A3602B78300099430022F9
:103CF0000023FFF785FF70BDBC100020F8B5CE464D
:103D000047469046264E80B58146082230000D0079
:103D10001F00FEF701FE4346B3600023F381EC79F8
:103D2000AB7924021C43231CBC4200D93B1C9FB22C
:103D3000B381002C0ED0002F18D04346002B2CD07E
:103D40003B1C402F1BD89FB233787F2B1CD80021FF
:103D5000144A0FE080212B78002299434846002323
:103D6000FFF74EFFC0BCB946B046F8BD7F23002226
:103D7000317899433B004846FFF742FFF2E7402382
:103D80009FB233787F2BE2D9064C3A00414620009F
:103D9000FEF7C2FD80212200ECE70020E2E7C046EA
:103DA000BC1000201811002010B514220021024878
:103DB000FEF7ACFD10BDC046BC100020014B1861E1
:103DC0007047C046BC10002010B5054C0100082209
:103DD0002000FEF7A1FD0023A360E36010BDC046F4
:103DE000BC10002070B5394C1D0023780600DA099C
:103DF000C9098A4213D00020002D00D070BD344B79
:103E0000002B03D021003000FFF74EF82369002B70
:103E100003D022000321300098470120EEE77F2BDA
:103E200006D8A068002834D02A002A49FEF774FD7D
:103E3000E289A1685219E38892B24919E281A1602E
:103E4000934214D03F2D12D9A389981A051C80B231
:103E500040282AD82078ADB27F2828D800219A425D
:103E600032D01C4A2B003000FFF7CAFEC6E7236998
:103E7000002B05D0220002213000984700280AD0EC
:103E8000802123780022994330000023FFF7B8FEF9
:103E9000B4E70020B2E700213000FFF7ADF83000B2
:103EA0008021FFF7A9F80120A8E74025D2E79A4230
:103EB00007D0084C2A002000FEF72EFD80212200AA
:103EC000D0E780210022CDE70022CBE7BC10002004
:103ED000A92E001018110020F0B5304C05006368C1
:103EE000207B83B0002B20D0E1891A78083959183B
:103EF0009B18DA799E79120232439B18994214D9A1
:103F0000002603E01A789B1899420ED95A78042AA1
:103F1000F8D1DA78002AF5D19A78824208D01A7856
:103F200001369B18F6B29942F0D8002003B0F0BDDC
:103F3000A3699B5D002BF8D0194A002A06D0002106
:103F40002800227AFCF718FB0028EED0154F380025
:103F500000F026FC1C3F7B891F1C83421BD82000DD
:103F6000BFB23A00216B1C3000F07EFC3B00280001
:103F7000226B217AFFF744FE0028D6D00A4B002B93
:103F8000D4D0A269237A925D3900009228000022E1
:103F9000FCF7FCFACAE7071CE1E7C04688100020DE
:103FA00079050010A41000208D05001010B5002820
:103FB00007D105484368002B03D01C3000F00CFDEE
:103FC00000E0002010BDC0468810002030B5104C25
:103FD00083B0342200212000FEF798FC0D4B200016
:103FE0002361402323750C4B6122A36101230B49FC
:103FF00000931C3000F09EFB094D2800FCF784FF65
:104000000023E362074BA562236303B030BDC046C3
:1040100088100020F812002084120020881200204E
:10402000801300209417002010B5054C10220021A9
:104030002000FEF76BFC20001C3000F085FD10BD59
:10404000881000204A79030010B50020012A02D10F
:104050008A79012A00D010BDCA79202AFBD10A79B9
:10406000012AF8D0CA78002AF5D1054A5468002CF4
:10407000F1D1137084237C205160D381EBE7C046DB
:1040800088100020F0B54546DE4657464E46E0B55E
:104090001400050083B001293ED0022907D0012079
:1040A00003B0F0BCBB46B246A946A046F0BD1378AB
:1040B0001F22190091432029F1D1DB06DB0E012BD1
:1040C00000D10CE1022B64D160792279B44B00025B
:1040D0001043002B5DD0B34FC0B27B68F989002B31
:1040E00057D01A7859189B18DA799E791202324300
:1040F0009B18994204D84CE01A789B18994248D9E9
:104100005A78052AF8D19A788242F5D12100280000
:104110003A69FCF78FF9C3E7602310781A00024070
:104120009046034233D163780A2B69D00B2B30D1F0
:10413000637922791B029B4F1343E278A178120224
:104140007E680A439346002E23D0FA893178083AD4
:10415000B2187618F179B079090201437618B242A3
:1041600017D9DBB2994603E03378F618B24210D97A
:104170007378042BF8D1F3789A46002BF4D1B378F6
:104180004B4566D043460133DBB29846ECE7202A24
:1041900001D0002084E7637926791B02C2063343ED
:1041A000D20E012A00D1ECE0022AF2D17D4F7B68C9
:1041B000F989002BEDD098461A7859189044434657
:1041C0009A799446DA79634612021A4313004344FB
:1041D000994204D8DDE71A789B189942D9D95A78C0
:1041E000052AF8D19A78B242F5D140B2002800DA17
:1041F0006CE1210028003B7D3A69FFF77FFD4FE726
:10420000684F607922797B6800021043002BC0D090
:10421000F9891A78083959189B18DA799E791202A7
:1042200032439B189942B4D9C0B203E01A789B1864
:104230009942AED95A78042AF8D1DA78002AF5D111
:104240009A78824200D194E042460132D2B290463E
:10425000ECE73B7B4B4500D121E15B464146DAB2BE
:10426000BB695A547968FB898846083B9844B04535
:1042700004D879E03378F618B04575D97378042BF3
:10428000F8D1B3784B45F5D1F3789342F2D1337935
:104290009B46002B5ED0B04500D87AE73378F618FD
:1042A000D34554D9B04500D873E77378052BF5D1C1
:1042B00031002800FFF78AFC002800D169E7B378B5
:1042C000280019000193FFF7C1FC019BDB09012BBA
:1042D00000D104E153460133DBB29A46DEE766794A
:1042E0002079002E00D17CE02F4A002A00D150E72F
:1042F00000212C4FF6B27A68002A00D149E7002944
:1043000000D046E79378834200D042E7137898467E
:104310009044434699798C46D979634609021943FA
:1043200043468C461978C4440B0043449C4505D849
:104330002FE719785B1801219C45DDD9D978B14266
:10434000F7D1210028003A69FCF778F8A8E6D345B0
:1043500000D01EE7154B002B06D02100280000E0FE
:1043600000BF002800D114E721002800FFF7B0FCAF
:1043700095E6BA690123210028004244FFF7BEFCFC
:104380008EE61B0A4FD1074F7B68F9899C46002BAC
:1043900000D1FEE6083961448B420ED3F9E6C046EF
:1043A00035040010881000203D04001000000000BB
:1043B0001A789B18994200D8EBE65A78042AF7D16C
:1043C00062469278B242F3D140B2002800DB10E797
:1043D000504B002B00D1DCE621002800FCF760F8F0
:1043E0005EE64D4B002B00D1D3E64C4F7E68F98939
:1043F000002E00D1CDE6083971188E4200D3C8E6F0
:10440000330004E01A789B18994200D8C1E65A7824
:10441000042AF7D1B2788242F4D1210028003A6907
:10442000FCF70AF83CE63D4FDBB29C467B68002275
:104430009A465346002B00D1ABE6002A00D0A8E6EE
:1044400053469A78B24200D0A3E61A785244937940
:1044500093469846D3791B02994643464A461343EE
:1044600099465B461B785A469846D9444244914542
:1044700005D88EE6137898464244914547D9D378BB
:104480006345F7D140B2002800DBB2E6244B002B95
:1044900000D17EE621002800FCF704F800E6534630
:1044A0002800397A3B73FFF7EFFB38001C3000F02F
:1044B0004BFB1C4B002B06D021002800FCF740F9D9
:1044C000002800D165E600233B72C6E6164B002BA0
:1044D00000D15EE621002800FBF7E0FFE0E5302296
:1044E000F3781A4200D0F5E6019B28003B724B4658
:1044F0003B73737932791B0213435B055B0D7B8140
:10450000FFF7EAFC002800D0E4E60020C8E50A0036
:104510008FE7C046A1040010390400108810002065
:10452000A5040010410700109D04001010B5020002
:1045300007488369007A884207D10020002B00D108
:1045400010BD1000FFF7C8FCFAE70020F8E7C046EE
:1045500088100020F0B5D6464F4646469C460B785C
:10456000C0B5924607000E0000207F2B3AD94C7947
:104570000A792402DB061443DB0E012B37D0022B11
:1045800030D13D4B5C689846DB89002C2AD02578D9
:10459000E3186419A579A9464946E5792D020D432A
:1045A0006419A34204D81DE020782418A3423ED900
:1045B0006578052DF8D1A0789042F5D143461B7D52
:1045C0001C1C634500D964464346A4B222005146F0
:1045D0001869FEF7A1F9434631001A693800230033
:1045E000FFF78CFBE0BCBA46B146A846F0BD240AF2
:1045F0001FD1214B98465B6899464346DD894B465F
:10460000002BEFD0083D4D44A945EBD24C4603E0CA
:104610002378E418A5420AD96378042BF8D14B46D5
:104620009B789342CAD02378E418A542F4D800209E
:10463000D8E7114B002598465868E4B20028F6D018
:10464000002DF4D183789342F1D10378C318DD793A
:1046500099792D020D43A9461D7899445B19994516
:1046600005D8E4E71D785B1901259945E6D9DD7881
:10467000A542F7D1A2E7C0468810002010B5FEF78A
:10468000E3FD10BD437902791B0213435B055A0D0C
:10469000C3789B079B0F022B05D0032B15D000205E
:1046A000012B08D0704702291ED0002040239342DE
:1046B0004041C0B2F6E702394B4259410D4B9C468E
:1046C000614491424041C0B2ECE702394B1E99412E
:1046D000094B494219408023DB009C46002061447D
:1046E00091424041C0B2DDE7044BD01843425841EB
:1046F000C0B2D7E7FF03000040FCFFFF00FEFFFF52
:104700008A1870B5914207D27F264C78052C04D0C8
:104710000C7809198A42F8D870BD34008D782C4085
:1047200064000419ED0963550C7809198A42ECD824
:10473000F2E7C046F0B5C64600B5040006A8057805
:104740008020884617001E000002824226D8E068BA
:10475000002803D00121494200F05AFB20690028BB
:1047600003D00121494200F053FB43462360730408
:104770005B0CED031D430023E0686381A780E580A7
:104780002381002801D000F01BFB2069002801D004
:1047900000F016FB012080BCB846F0BD0020FAE70F
:1047A00010B5048941898288A3B288B28C4207D3AC
:1047B0001B1A9BB2101C9A4200D9181C80B210BD63
:1047C0005100091A5B189BB2F4E7C04670B50400AB
:1047D00000690E00002803D00121494200F018FBB7
:1047E00025896089A288A9B283B285422BD3CD1ACC
:1047F000ADB2002D2DD0AA4208D291422FD3891AF2
:104800008BB263819A4203D89B1A9BB29A42FBD91E
:10481000E28821685204520C53433000C918FEF755
:104820007BF863890125591C89B2A2888B4212D971
:104830005200891A89B220696181002801D000F0F4
:10484000BFFA280070BD5500ED1A4D19ADB2002D0C
:10485000D1D1618989B252009142ECDBE9E7891834
:104860008BB26381CEE7C046F0B546464F46D6468A
:10487000C0B50600006989469046002803D0012192
:10488000494200F0C5FA31897289B5888BB294B279
:10489000914254D31F1BBFB2002F4AD0BD4205D254
:1048A000AB4251D25B199CB22F0074814346B8458C
:1048B0003DD89FB2A54203D8641BA4B2A542FBD940
:1048C000F28831685204520C904662432B1B9BB213
:1048D000891842469F4225D953439BB21A00484645
:1048E0009A46FEF719F8434648467D1B64195C4317
:1048F00031685044A2B2FEF70FF87189B588CB1920
:104900009BB26A00994216D99B1A9BB23069738197
:10491000002801D000F054FA3800E0BCBA46B14695
:10492000A846F0BD48467A43FDF7F6FFE5E73B1C95
:10493000BFE773899BB26A009342E7DBE4E76F004D
:104940003F1BDF19BFB2A7E75B1B9CB2ACE7C046B9
:10495000F8B50400C0680E00002803D001214942C8
:1049600000F056FA258920896189A288ADB283B208
:104970008FB2884228D3DB1B9BB29A4209D8E779D1
:10498000FF0906D1E068002801D000F019FA3800CC
:10499000F8BD2B00954203D39B1A9BB29342FBD2E6
:1049A000E28820685204520C53433100C018FDF7CE
:1049B000B3FFA2886B1C9BB252009D4209D99B1A7F
:1049C0009BB201272381DDE75100C91B5B189BB215
:1049D000D3E79342F5DBF2E7F0B54546DE465746AE
:1049E0004E46E0B588460500140083B0002A6FD01B
:1049F000C068002803D00121494200F009FA2E893D
:104A0000EB796A89B6B292B2DB0940D1AB889642A3
:104A100067D259008A1AB21892B20027934230D94D
:104A20009A1A171C92B2A24200D9271CEA88BFB278
:104A30005204520C9146F21992B29246FA1A92B26C
:104A400093463400B34203D8E41AA4B29C42FBD28A
:104A50004A46624328681B1B9BB280184A46BB42E9
:104A600053D341467A43FDF757FFAB885B00B2450D
:104A700001D39A4503DB5246D31A9BB29A4653465A
:104A80002B81E868002824D000F09AF921E0AF8853
:104A9000BC4229D296424AD3B31A9BB279001B1961
:104AA0008B4208DBD3199BB21E1BB6B29A46B242A8
:104AB00042D9761AB6B2EB885B045B0C9946A3190F
:104AC0009BB29A46E31B9BB29B463B002700B8E78C
:104AD0000027380003B0F0BCBB46B246A946A0464A
:104AE000F0BDB21A92B298E7002FCAD0EB88E41B4F
:104AF0005B045B0C5C4399461600D31900229BB201
:104B00009A4693463B00A0449BE7534399B20A0060
:104B100001915C444146FDF7FFFE22004B465A439B
:104B20000199286892B24144FDF7F6FE9DE77900AD
:104B30008B1AF3189BB2B2E7B142BADDEB885B0483
:104B40005B0C9946BEE7C04610B50400C06800285B
:104B500003D00121494200F05BF92069002803D00D
:104B60000121494200F054F90023E0686381238168
:104B7000002801D000F024F92069002801D000F0BD
:104B80001FF9012010BDC04680210A4A4902136D59
:104B90000B42FCD0092353670422074B00201A6004
:104BA000064B00211A68064BDA67064B1A68064B5B
:104BB0001A64704700001150803011508C1300208F
:104BC00000400140FC17002000C0014070B51020DB
:104BD00084B0FBF71BFE082862D0334B334DDB6FEC
:104BE000334C2B60334B01221B6C01210F202360BF
:104BF000FBF716FE02210F20FBF736FE2E4B03219A
:104C00001A6808235A40173313402C4A0F201360A8
:104C1000FBF718FE02220421294BDA677E329950F5
:104C2000284B743A5A671B6D1B079B0F012B34D11D
:104C3000FCF75CFB0600FCF701FDFA220023920062
:104C400012184B41802109068B4202D301221E4BD0
:104C5000524201210291002101911C493000009132
:104C6000FCF748FB002801DB04B070BDFA200021EE
:104C70008000FCF7EDFC8021124A4902136D0B42C3
:104C8000FCD0092353670422114B1A602A68064B93
:104C9000DA672268074B1A64E6E7FDF7E3FAC7E72D
:104CA000FDF7E0FA99E7C046004001408C13002070
:104CB000FC17002000C001407C4001407C500140B6
:104CC0000020115000001150FFFFFF7F894B0010A2
:104CD00080301150074B10B51B6D1B079B0F03D184
:104CE000FA200021800010BDFFF770FF0020002196
:104CF000F9E7C0460000115010B584B0FBF7CEFDB7
:104D0000012801D004B010BDFCF7F0FA0400FCF754
:104D100095FCFA220023920012184B4180210906CB
:104D20008B4202D301220B4B5242012102910021FE
:104D30000191094920000091FCF7DCFA0028E1DA32
:104D4000032206490B6D9B081A42FBD0FFF73EFF7A
:104D5000D8E7C046FFFFFF7FD54C00100000115080
:104D600010B583070AD00300032102E001330B4290
:104D700005D01A78002AF9D1181A10BD0300196855
:104D80000C4A0D4C8A188A4322420FD15968094AAD
:104D900004338A188A43224208D15968054A0433E9
:104DA0008A188A432242F1D000E001331A78002A9F
:104DB000FBD1E1E7FFFEFEFE80808080F8B5C046B3
:104DC00001B40248844601BC604700BFED010020E9
:104DD00001B40248844601BC604700BF350C002086
:104DE00001B40248844601BC604700BF4908002066
:104DF00001B40248844601BC604700BF710800202E
:104E000001B40248844601BC604700BF350C002055
:104E100001B40248844601BC604700BF5D01002028
:104E200001B40248844601BC604700BFC1000020B5
:104E300001B40248844601BC604700BF150200204F
:104E400001B40248844601BC604700BFE509002068
:104E500001B40248844601BC604700BF8D090020B0
:104E600050616E6952436F72700000004D69634E6D
:104E70006F646500313233343536000055414332BA
:104E8000000000000904000009028D0002010080FA
:104E900032080B000201002000090400000001019B
:104EA00020000924010002033C000008240A040138
:104EB00001010011240201010203040100000000AD
:104EC000000400000C24030301010102040000009F
:104ED0000E240602010F0000000F0000000009046C
:104EE000010000010220000904010101010220006B
:104EF0001024010300010100000001000000000077
:104F00000624020102100705810560000108250141
:104F1000000000000000000012010002EF0201404A
:104F2000FECA104000010102030100004E6F207311
:104F300070696E6C6F636B7320617265206176615E
:104F4000696C61626C6500004861726477617265CA
:104F500020616C61726D20256420616C72656164F2
:104F60007920636C61696D65640000000A2A2A2A51
:104F70002050414E4943202A2A2A0A000A000000F4
:104F80004861726420617373657274006D69737334
:104F9000696E6720646F75626C652066756E6374F8
:104FA000696F6E0052656C6561736500626F6F7446
:104FB000325F77323571303830000000312E352EB7
:104FC0003100000061646166727569745F6B623202
:104FD0003034300074696E797573625F6465765F32
:104FE000617564696F5F7465737400004F6374204A
:104FF000313720323032330006005250D3F0754240
:10500000A44F001006005250E182887FAC4F001080
:1050100006005250BBFF3CB6C44F00100D0A000002
:10502000646F75626C65207265736574202D3E2017
:10503000424F4F5453454C000600525053B4F4A114
:10504000205000100800525012000000556E686198
:105050006E646C65642049525120307825780A00CE
:1050600065702025642025732077617320616C7240
:105070006561647920617661696C61626C650000CC
:1050800043616E277420636F6E74696E7565207856
:10509000666572206F6E20696E6163746976652043
:1050A0006570202564202573000000006F75740072
:1050B000696E00005C330010F23400109E34001062
:1050C0005C3300108034001068340010FC33001092
:1050D000AA3300109E330010DC370010C2370010D6
:1050E000563400105A380010563400104238001060
:1050F0002E380010563400101A380010F037001007
:1051000056340010DE380010C2380010B6380010D7
:10511000563400105634001098380010C238001071
:105120005634001056340010563400105634001017
:1051300056340010563400105634001074380010E5
:10514000CD3F001029400010454000108540001060
:085150002D450010310C002078
:10515800F84F001004500010880200101050001082
:1051680094020010A0020010AC0200103850001089
:04517800445000108F
:10517C00F0B5C646150000B504001E000268EFF33A
:10518C00108172B61368002BFCD0BFF35F8F042321
:10519C00E356002B2DDB2268BFF35F8F00201060DD
:1051AC0081F31088D0221206127852B290469A429D
:1051BC0003D1002080BCB846F0BD00270BE023686B
:1051CC00BFF35F8F1F6081F310882800310000F05F
:1051DC0093FD0028EDD12268EFF3108172B61368AD
:1051EC00002BFCD0BFF35F8F23797F2BE7D943468D
:1051FC0002E0D0231B061B6823712368BFF35F8F6B
:10520C0000221A6081F310880120D3E7F0B5C6465E
:10521C0000B50D00040000F08FFDFA2206000F000F
:10522C00002328000021920000F096FD8023361800
:10523C004F411B069F4202D30126174F7642D023C3
:10524C001B061B68002598460BE02368BFF35F8F95
:10525C001D6081F310883000390000F04DFD0028EE
:10526C0018D12268EFF3108172B61368002BFCD0B2
:10527C00BFF35F8F23797F2BE7D9434623712368D4
:10528C00BFF35F8F00221A6081F31088012080BC6D
:10529C00B846F0BD0020FAE7FFFFFF7F0268EFF38E
:1052AC00108172B61368002BFCD0BFF35F8FFF2305
:1052BC0003710368BFF35F8F00221A6081F31088BB
:1052CC0040BF70470022154B10B59A60DA601A6126
:1052DC005A619A61DA611A625A629A62DA621A63E4
:1052EC005A639A63DA631A645A649A64DA641A65C4
:1052FC005A659A65DA651A665A669A66DA661A67A4
:10530C005A679A67DA67F03292000021044800F07D
:10531C000BFD044B044A1A6010BDC046000010502F
:10532C00D0130020F817002080011050F0B557461C
:10533C00DE464E464546E0B5244B87B09F6D002FA8
:10534C0023D0234B0024994601239846214B012658
:10535C009A4604E001347600E4B2202C15D03E428B
:10536C00F8D04B469E65434665086D00A343ED1887
:10537C006D015544280000F0C3FB00280CD101340A
:10538C00B743E4B27600002FE7D107B0F0BCBB46C0
:10539C00B246A946A046F0BDAB7802A89B46EB8A64
:1053AC00062200210630019300F0BEFCE023594692
:1053BC0002AADB009380019B117203A801210593C3
:1053CC0000F0C6FB280000F033FBD8E700001150BA
:1053DC0000301150901300209823CB4AF0B5D558CB
:1053EC0080232C009B02102685B01C401D427AD0D5
:1053FC00C64BC74C9A6AC74B00261A603B23E35C2A
:10540C00022B00D1E4E07B23E35C022B00D1BFE153
:10541C00BB23E35C022B00D1AFE1FB23E35C022B4B
:10542C0000D19FE13C23FF33E35C022B00D15DE113
:10543C007C23FF33E35C022B00D14AE1BC23FF3316
:10544C00E35C022B00D137E1FC23FF33E35C022B3E
:10545C0000D124E1B04BE35C022B00D113E1AF4B44
:10546C00E35C022B00D102E1AD4BE35C022B00D1DB
:10547C00F1E0AC4BE35C022B00D1E0E0AA4BE35C27
:10548C00022B00D1CFE0A94BE35C022B00D1B0E0A2
:10549C00A74BE35C022B00D185E1A64BE35C022B0E
:1054AC0000D19CE1002E08D1A34B1B78002B04D11A
:1054BC008021A24A90338902D150934B0A229C6CD2
:1054CC006B460021981D00F02FFCC023640501AE33
:1054DC009B00640D3380300002940121802400F085
:1054EC0037FB974EA402EB0600D56DE080235B02E0
:1054FC001D4214D0012223211C43854B5A54DA70CF
:10550C00C023904ADB00019302AB03CA03C3012101
:10551C0001A800F01DFB8022884B92021A65EB0457
:10552C0033D48023DB011D421CD180231B021D427E
:10553C0004D1AC4200D0D2E105B0F0BD1C436B46A7
:10554C000A220021981D00F0EFFBA02301AEDB0026
:10555C0033800121300000F0FBFA8022774B1201DE
:10556C001A65E6E71C436B460A220021981D00F0E1
:10557C00DBFB802301AEDB0033800121300000F027
:10558C00E7FA10226D4B1A65CFE700235E4E01AF90
:10559C003360FFF797FE6B460A220021981D00F03E
:1055AC00C3FB80235B003B800121380000F0D0FA64
:1055BC008022624B12031A65F36CDB0300D520E1E9
:1055CC0080235B011C43ACE7FFF7B0FE34008DE792
:1055DC003833E65C002E00D115E70233E25C002A7A
:1055EC0000D110E7200000222030E25400F052FAE3
:1055FC0009E7554BE75C002F00D149E70233E25C29
:10560C00002A00D064E14A4BE35C022B00D1DCE0C1
:10561C00484BE35C022B00D04FE74C4BE35C002B78
:10562C0000D0E1E049E74A4BE75C002F00D12AE7C4
:10563C000233E25C002A00D042E13E0023E7454BF6
:10564C00E75C002F00D119E70233E25C002A00D09E
:10565C002EE13E0012E7404BE75C002F00D108E73B
:10566C000233E25C002A00D01AE13E0001E73B4B1A
:10567C00E75C002F00D1F7E60233E25C002A00D091
:10568C0006E13E00F0E6364BE75C002F00D1E6E683
:10569C000233E25C002A00D0F2E03E00DFE6F93390
:1056AC00FF33E75C002F00D1D4E60233E25C002A22
:1056BC0000D0DCE03E00CDE6B933FF33E75C002FD1
:1056CC0000D1C1E60233E25C002A00D0C6E03E0005
:1056DC00BAE67933FF33E75C002F00D1AEE6023334
:1056EC00E25C002A00D0B0E03E00A7E63933FF337D
:1056FC00E75C002F00D19BE60233E25C002A00D06D
:10570C009AE03E0094E6C04600001150004005406F
:10571C00901300207C1300203B0200007B02000051
:10572C00BB020000FB0200003B0300007B030000F7
:10573C00BB030000FB030000531900200030115084
:10574C0010000200000010507A030000FA03000061
:10575C003A030000FA020000BA0200007A020000CC
:10576C003A020000F833E75C002F00D15AE602330E
:10577C00E25C002A58D13E0054E6B833E75C002FB7
:10578C0000D14AE60233E25C002A45D13E0044E6F1
:10579C007833E75C002F00D13AE60233E25C002A52
:1057AC0032D13E0034E6504BE35C002B00D174E662
:1057BC00EF239B00E25C002A00D129E70022E2548F
:1057CC001C3BE01800F066F922E7474BE35C002B2A
:1057DC00EED1464BE35C022B00D06EE63E00444B10
:1057EC00E35C002B00D15DE6FF239B00E25C002A0A
:1057FC0000D162E60022E2541C3BE01800F04AF9AA
:10580C005BE600F0A1FADBE6200000226030E254F7
:10581C003E0000F03FF9FBE520000022A030E254EE
:10582C003E0000F037F9F8E520000022E030E254A9
:10583C003E0000F02FF9F5E5200000222130FF306A
:10584C00E2543E0000F026F9F2E52000002261301F
:10585C00FF30E2543E0000F01DF9EFE5200000227D
:10586C00A130FF30E2543E0000F014F9ECE52000CA
:10587C000022E130FF30E2543E0000F00BF9E9E584
:10588C000022E2541C3BE01800F004F93E00E6E56F
:10589C000022E2541C3BE01800F0FCF83E00E3E56B
:1058AC000022E2541C3BE01800F0F4F83E00E0E566
:1058BC000022E2541C3BE01800F0ECF83E00DDE561
:1058CC000022E2541C3BE01800F0E4F83E00DAE55C
:1058DC000022E2541C3BE01800F0DCF893E62100B7
:1058EC000448694000F010FABA030000FB03000002
:1058FC00FA0300004C500010084A0300126C002000
:10590C00920703D49A78D209012A00D07047D87E26
:10591C00023843425841C0B2F8E7C046000011506B
:10592C0010B5FFF7E9FF00280CD00749074B8C4650
:10593C00074A9B6A126863449B1A0020C6229A424B
:10594C004041C0B210BDC046E0FCFFFF0040054026
:10595C007C130020F8B5028B838A04000F00161C00
:10596C009A4200D91E1CE27880211500681E8541E0
:10597C00B6B2C90031436D030D4301214A409B1B54
:10598C00E27062789BB2A382002A09D0002B02D16C
:10599C008023DB011D43002F00D02D042800F8BD0F
:1059AC00E068BB01C0183200216900F09DF9236941
:1059BC009B19236180231B021D43A38AE6E7C04683
:1059CC00836870B504001D68002900D02D0C637825
:1059DC00AD05AD0D002B09D1E38AEB18E382238BC7
:1059EC00AB4201D90023A382280070BDE368890172
:1059FC0059182A00206900F077F9E38AEB18E38242
:105A0C0023695B192361EAE710B504008368002160
:105A1C001B68FFF7D5FF63681B685B0002D5238BFF
:105A2C00834200D010BD01212000FFF7C9FFF9E728
:105A3C0000238376436103617047C04610B58368C9
:105A4C00002901D01C682140002A11D08024E400D8
:105A5C00114322420CD01A6822420BD10A4A0A4046
:105A6C001A60FFE7FFE7FFE7FFE7FFE7FFE7836861
:105A7C00196010BD81787F20CA09044B9200014047
:105A8C00D258034800F040F9FFFBFFFF880D0020BF
:105A9C0060500010436870B5002180251E6804001A
:105AAC00FFF758FF134B6D011B6C05439B070FD57C
:105ABC00A3785B060FD0104B1E4080239B0533430D
:105ACC0062680021136020002A00FFF7B7FF70BD49
