:020000041000EA
:1000000000B5324B212058609868022188439860DF
:10001000D860186158612E4B002199600221596106
:100020000121F02299502B49196001219960352056
:1000300000F044F80222904214D00621196600F024
:1000400034F8196E01211966002018661A6600F04E
:100050002CF8196E196E196E052000F02FF8012189
:100060000842F9D1002199601B49196000215960AB
:100070001A491B48016001219960EB211966A021F2
:10008000196600F012F800219960164914480160C1
:100090000121996001BC002800D000471248134993
:1000A000086003C880F30888084703B5996A0420EC
:1000B0000142FBD001200142F8D103BD02B5186610
:1000C0001866FFF7F2FF186E186E02BD00000240BE
:1000D000000000180000070000035F00212200005C
:1000E000F4000018222000A00001001008ED00E03C
:1000F00000000000000000000000000074B24E7A12
:1001000000200420F7010010C3010010C5010010F9
:10011000C1010010C1010010C1010010C101001097
:10012000C1010010C1010010C1010010C701001081
:10013000C1010010C1010010C9010010CB01001065
:10014000CD010010CD010010CD010010CD01001037
:10015000CD010010CD010010CD010010CD01001027
:10016000CD010010CD010010CD010010CD01001017
:10017000CD010010CD010010CD010010CD01001007
:10018000CD010010CD010010CD010010CD010010F7
:10019000CD010010CD010010CD010010CD010010E7
:1001A000CD010010CD010010CD010010CD010010D7
:1001B000CD010010CD010010CD010010CD010010C7
:1001C00000BE00BE00BE00BE00BE00BEEFF3058054
:1001D000103800BEF2EB8871085200102C5200104B
:1001E0003402001090A31AE700201F49086006C8D7
:1001F00081F3088810471D48006800282FD10DA4FE
:100200000ECC002902D000F012F8F9E71849194A7B
:10021000002000E001C19142FCD1174988471749ED
:1002200088471749884700BEFDE701C901C29A42C5
:10023000FBD370472C520010C0000020F00D0020AE
:100240005C5F001000000420000004205C5F0010D0
:10025000001004200010042000000000704709482E
:1002600001F096FF0047000008ED00E0000000D01C
:10027000000E00203C1A0020092000105503001039
:10028000FD2000105756000006005250ABB36053DB
:100290005050001006005250861C03026850001097
:1002A000060052505422A29D845000100500525066
:1002B000DE65F4685C5F0010F8B5C0460448054B85
:1002C00010B5834203D0044B002B00D0984710BDDB
:1002D000F00D0020F00D0020000000000648074946
:1002E000091A8B10C90FC91810B5491003D0044B57
:1002F000002B00D0984710BDF00D0020F00D00201D
:100300000000000010B5074C2378002B09D1FFF73F
:10031000D5FF054B002B02D0044800E000BF0123AD
:10032000237010BD2810002000000000A84D001010
:10033000054B10B5002B03D00449054800E000BF71
:10034000FFF7CCFF10BDC046000000002C100020BD
:10035000A84D0010F0B5DE4657464E464546E0B57E
:1003600093B002F093FC002002F08EFE5C4B5D4FD8
:1003700099466B46DE1D5C4B9A465C4B98460A23B9
:100380009B4601200021404202F0F4FE002003F0D1
:100390007FFC00285CD14B461B78002B23D101F059
:1003A000B5F853463C681D68002914D0FA22002392
:1003B000920001F05DFF001B8542E2D843466419BC
:1003C00018783C6002F072FC434601221B785340CF
:1003D00042461370D5E7FA21890001F00BFF001B9C
:1003E000A842CED3EAE7002003F0D6FE0028D6D0FC
:1003F0004022002002A903F0DDFE4B461B780500D9
:10040000002B63D1002003F043FC0028C7D0002D4F
:100410001AD002ACA446654402E00134AC4213D0C9
:100420002378012233703100002003F0CDFC2378C3
:100430000D2BF2D15B4601223100002033700134D4
:1004400003F0C2FCAC42EBD1002003F081FCA6E734
:10045000002003F037FC00289DD04022002002A994
:1004600003F03EFC4B461B780500002B25D10020F5
:1004700003F00EFC00288ED0002D1AD002ACA4464A
:10048000654402E00134AC4213D02378012233707A
:100490003100002003F098FC23780D2BF2D15B464D
:1004A0000122310000203370013403F08DFCAC4296
:1004B000EBD1002003F04CFC6DE7020002A9002004
:1004C00003F0A4FE002003F0D5FED0E7020002A94D
:1004D000002003F09BFE002003F0CCFE92E7C04614
:1004E0003A1A0020141A0020E00C0020381A0020CC
:1004F000FA22024B92001A607047C046E00C0020BE
:10050000FA22014B1A607047E00C0020014B024AAE
:100510001A607047E00C0020C4090000FA22024B68
:1005200092001A607047C046E00C0020F0B505004C
:100530001400012083B0012912D113785B069B0FB0
:10054000012B0FD00020022B0AD15378012B21D090
:10055000022B05D1637912791B021343072B20D09C
:1005600003B0F0BD53780020222BF9D1E3789278C4
:100570001B0213431900481E81411A4A1170002BB7
:100580001FD1FA22184B92001A602100280003F0B4
:100590007BFAE5E72F2321002800144A03F08AFAAA
:1005A000DEE76B46124E9F1D31000222380002F03A
:1005B0001BF93200210028003B88083A03F07AFA40
:1005C000CEE7012002F072FB0122074B52421A6073
:1005D00008491F32002003F019FE002003F04AFEF4
:1005E000D3E7C0463A1A0020E00C0020EC4D001082
:1005F000644E0010A84D001010B5002901D0002A4B
:1006000000D110BD21220249002003F0DDFBF8E7F4
:10061000C84D00107047C04600487047B04F0010EA
:10062000004870474C4F001000487047104F0010B2
:1006300010B5002825D005282ED8184B8000C458A6
:10064000200004F031FBC0B2011C1F2814D8C9B22D
:1006500000281FD00023124AE05C01331080D8B27A
:1006600002328142F8D8C0230131C9B249009B004F
:100670000B430C48038010BD1F21C9B20028E9D1EB
:1006800008E0064B02221968054802F0ADF8C123C4
:100690009B00EEE7044BECE70020ECE7E40C0020C5
:1006A000A6110020A411002002030000094A10B581
:1006B00094464024830063441A68C000624080343A
:1006C00014408022520113431C60034B9C4660443B
:1006D000416010BD04C0014000400140034BC00018
:1006E0009C46604443681F2018407047004001400A
:1006F000074B80009C4660440368C90092000A438F
:100700005A400C231A4080235B0103431A60704750
:1007100004C00140074BC0009C46604403680904C4
:100720005940C0239B02194080235B010343196099
:100730007047C04604400140074BC0009C466044DF
:10074000036809035940C0239B01194080235B01C2
:10075000034319607047C04604400140024B1868CB
:100760008007C00F7047C04600C006408023DB05ED
:100770001868000F7047C04670B5EFF3108C72B662
:100780000D4D2B68002BFCD0BFF35F8F0724CB08E7
:10079000C618C05C01230C40A3401C000440034267
:1007A00007D118433070BFF35F8F2C608CF3108833
:1007B00070BD100001F0A6FC2C0100D0F8B5474632
:1007C000CE46884680B5EFF3108C72B6214D2C686A
:1007D000002CFCD0BFF35F8F9A422CD8D408072797
:1007E000055D061901241740BC402C421FD007218B
:1007F0000127894609E0D408055D06194C463900F1
:100800001440A1400C00294211D001329342F2D28F
:1008100001204042BFF35F8F00220E4B1A608CF321
:10082000108800280FDBC0BCB946B046F8BD254390
:1008300010003570EEE7BFF35F8F00232B608CF361
:100840001088012040424346002BECD0089801F06C
:1008500059FCC0462C0100D00021044B044ABFF3D0
:100860005F8F02C39342FAD17047C046000100D0A7
:10087000800100D0044A1078431CDBB2172B00D94A
:10088000102313707047C046FC0C002010B5064BB7
:10089000064C82B00100009318221F232000FFF7AE
:1008A0008DFF02B010BDC046C44F00109C14002044
:1008B00001238340002904D0034A1360034A1360D4
:1008C0007047034A1360FBE780E200E000E100E0CC
:1008D00080E100E0024B10309B688000C0587047F8
:1008E00000ED00E070B50D00EFF3108672B60F4A10
:1008F0001368002BFCD0BFF35F8F0D4B10309B684B
:1009000084001B590B4A934203D09D4201D001F051
:1009100011FC074B9B681D51BFF35F8FBFF35F8FC7
:100920000022024B1A6086F3108870BD240100D0AB
:1009300000ED00E0CD010010F0B557464E46DE4612
:100940004546E0B585B0060000911700EFF3108B27
:1009500072B66A4A1368002BFCD0BFF35F8F002584
:10096000674B5D579A46002D00DA8BE06B00654CB3
:1009700001935B199B009846A146C1444B465246E1
:100980009B7910361370604BB6009B6899590B1B0E
:100990002F2B33D95D4B994200D0ACE0019B4246EE
:1009A0009C465B4B6544AD0063535A4B0232A21820
:1009B000043B9B1A1B05584A5B0D651913436B805A
:1009C000564B0121AB80FF23AB71009BEF71AB60F5
:1009D0004B460B4319004C4B9B689951BFF35F8FFB
:1009E000BFF35F8F0022454B1A608BF3108805B070
:1009F000F0BCBB46B246A946A046F0BD01200A00A5
:100A00008243D3798C46BB4231D8454613004449D2
:100A10001B1B5B415943090D3D4B63533D4B023555
:100A20006519043B5B1B1B053B4D5B0D2B43AA4625
:100A30004D466B800425AC465546E044131F4444A4
:100A40001B1B1B055B0D1D434B46997100999D8037
:100A500099604946DF71334B01431360BBE758008F
:100A6000C01880002018C179B94211D902000623AC
:100A7000D356002BF3DA0293131D9A462A4B614694
:100A8000039319E001F056FB002553465D576DE7CF
:100A9000908802934005131D9A46031561469C46B3
:100AA0004046D444634604302018181AE023000559
:100AB000400D1B021843039004235B429C46E14413
:100AC00050464B461B1A1B055B0D9C46124B9571FD
:100AD00098466346404603439380019B5A1992000F
:100AE000039BA418A380029B0E4AA371009B226063
:100AF000E771A3606FE701F01DFB4FE7240100D011
:100B0000371A0020000D002000ED00E0CD0100109C
:100B100000A1FFFF300D002000E0FFFF01BDFFFF3F
:100B2000AAAA00000148804701BD0000F0B5DE46DA
:100B300057464E464546E0B50C0083B0EFF31088AB
:100B400072B65D4A1368002BFCD0BFF35F8F5B4B1E
:100B50005B499A68030010339F00D5598D4239D004
:100B6000A5424AD0574EAA1B2F2A33D801229246BB
:100B7000824091464846544A1268104001904846C7
:100B8000524A1060BFF35F8FEFF305829346002A4D
:100B900035D0934201D001F0CDFA2A0053469A4352
:100BA0009068844208D175E04B005B189B00F318F5
:100BB0009868A04234D01A00062151560029F3DA71
:100BC000844253D0019B002B26D04A46404B1A60EA
:100BD0003D4B1A60394B9B68DD51BFF35F8FBFF30C
:100BE0005F8F0022344B1A6088F3108803B0F0BC8A
:100BF000BB46B246A946A046F0BD0D00EAE72A0072
:100C000053469A4390688442D6D10620105613006A
:100C1000002809DA0D0031E04A462C4B1A60D9E76A
:100C200006201856002822DB42001118890074188B
:100C30008A46A1689960E179D97106216156997156
:100C4000002925DBA488F11A6405241554440919E8
:100C5000E0240905490D24022143998013181D4AF7
:100C60009B001178F31899711070ABE71300594687
:100C7000002914D1FF3191711749918015490A78E3
:100C80009A71164A9B1B5B415A43120D0A7099E7F1
:100C90001349E2E70620105613000028C4DA114A6F
:100CA0001149D21A083A5002400D014399800F4968
:100CB00052080A43DA8085E7240100D000ED00E005
:100CC000CD010010000D002000E100E080E100E017
:100CD00080E200E0371A002001BDFFFFAAAA000051
:100CE00001BD00003A0D002000F0FFFF00F8FFFFFB
:100CF00070B5EFF3058101240443EFF3108C72B655
:100D0000214A1368002BFCD0BFF35F8F1F4B0500F7
:100D10001F4AED1A6D416A43120D1E4D8900AE68DF
:100D200052B27658A6421CD00621595691421CD088
:100D300012215956914222D01E215956914220D05B
:100D40002A2159560324914210D0134B19781A7056
:100D50008171BFF35F8F00220B4B1A608CF31088F8
:100D600070BDAB680D4C5C50EFE7002461000919C1
:100D700089005B18FF21997109499980E5E70124F1
:100D8000F4E70224F2E7C046240100D0000D002061
:100D9000AAAA000000ED00E0371A0020CD010010E3
:100DA00001BDFFFF054B064A1360064A13605360FE
:100DB0009360D3601361536193617047808080803A
:100DC00000E400E004E400E0024B9C46614489003A
:100DD000016070474000003410B50400FFF74AFD81
:100DE00001002000FFF7F0FFFF232371BFF35F8FA7
:100DF00010BDC04610B50400FFF73CFD0100200007
:100E0000FFF7E2FFFF23A380BFF35F8F10BDC04653
:100E100010B504000120FFF739FD034BC3189B00F8
:100E20002360BFF35F8F10BD4000003483680B4820
:100E300010B58446614462441201090159189B1897
:100E40005C684A680120944201D802D00020C0B2F8
:100E500010BD1A680B689A42F9D8F7E7FFFFFF0F39
:100E60000A4B1968EFF3108072B60A68002AFCD0AA
:100E7000BFF35F8F1B68BFF35F8F00221A6080F3A0
:100E8000108840BF002000217047C046101A002083
:100E9000F8B5574645464E46DE46E0B598460CAB9B
:100EA0001C780DAB1B78070091469A460568002C0C
:100EB0005ED1AC7B002C3BD0660029683619033E1E
:100EC00089194B78AB73002B00D1EB7300238B7027
:100ED0004B700B702D4BE218BB6812019B184A46F1
:100EE0001A6042465A600A9A9A600B9ADA600023A6
:100EF0008B704B700B706B7B9B46002B2BD02200B2
:100F00005946A8686B6898472A68002816D05B463F
:100F100058465B005B449619033BB070D118D35C14
:100F2000002B00D073705B460C706B735C4513D064
:100F3000F0BCBB46B246A946A046F8BD5B465B0086
:100F40005B44033BD3189C709119925D002A00D03A
:100F50005A705B460B706C734A464346387D00F00E
:100F600059FB051E0AD10E9B002BE1D01D70DFE757
:100F7000660029683619033E8919ABE75346002BF2
:100F8000F1D12100386800F069FDECE7FFFFFF0FA9
:100F9000F0B5DE4657464E4645460023E0B58BB0D9
:100FA0000893684B8200D45800239B46099000F0B8
:100FB000ADFA02000B006068EFF3108A72B6564675
:100FC00001680029FCD0B246BFF35F8F21684F7BD8
:100FD0008C46002F2ED0A5685B49A94679180901D7
:100FE000894449460868496805000E00AD1A9E41CB
:100FF000002E5FDD02000B00099800F00BFB0023C0
:1010000000229946002306920793002398466368BE
:10101000BFF35F8F5A461A608AF310884346002B4D
:1010200012D10028C3D10BB0F0BCBB46B246A946D2
:10103000A046F0BD002300229946002306920793A4
:10104000002300209846E2E7089B494618023843EF
:10105000C047626805000E00EFF3108A72B613688D
:10106000002BFCD0BFF35F8F002E41DB2B003343FE
:1010700002D02369002B56D12368D97B002905D0E3
:101080001A68480041185218033A57709A7B002A90
:1010900000D19F73DF73E268013FD35D0133D35505
:1010A0005B4623616368BFF35F8F5A461A608AF319
:1010B00010887CE7002E02D1002D00D09AE7002195
:1010C000604600F049FC4B461A685B68069207933D
:1010D0004B469B6898464B46DB689946E368DB19AC
:1010E000013B1B7808931B020343236100208EE71A
:1010F0002369002BC0D0069A079B8021521BB34165
:1011000009068B4202D30122104B52420021049166
:101110000131039149460191414620000297009117
:10112000FFF7B6FEBCE700F0F1F92A003300121811
:101130004B41802109068B42E8D30122034B5242E6
:10114000E4E7C046FC180020FFFFFF0FFFFFFF7F12
:1011500010B5144C6368002B04D00A211248FFF725
:1011600033FE10BD2300114A1021206800F00AFB55
:10117000032000F0BFF9032000F0B4FA03200C496B
:1011800000F002FAFFF776FB0A4B9C460323237517
:10119000D0231B061B6860446375074B80006060AA
:1011A000DC60DAE7480D0020101A00202D0E001038
:1011B000910F001040000034FC18002000487047D8
:1011C000480D0020F0B557464E464546DE46E0B590
:1011D00085B0019310AB1B780600039300239A4659
:1011E000984600927268EFF3108B72B61368002B6A
:1011F000FCD0BFF35F8F3568AC7B002C00D16FE073
:1012000067002B683F19033FDB195A78AA73002A3D
:1012100000D1EA734B4AA118B2680901521800982C
:101220000199106051600E9991600F99D16042460A
:101230009A705A701A706B7B9946002B00D170E03F
:1012400022004946A8686B6898472A6800285BD046
:101250004B4648465B004B44D719033BB870D11846
:10126000D35C002B00D07B704B460C706B734C45ED
:1012700058D0F3681B19013B18787368BFF35F8F70
:1012800042461A608BF310885346002B08D10002A7
:10129000204305B0F0BCBB46B246A946A046F0BD0F
:1012A000039B002B4BD00E9B00200F999847030007
:1012B00004000D000B4342D000291ADA009A019B6A
:1012C000121BAB410092019380221206934204D379
:1012D00001231D4C5B4200930194039B9A4681E7D6
:1012E0007368BFF35F8F1C608BF31088012040424E
:1012F000CFE700F00BF9802224184D41120600942C
:1013000001959542E9D3E3E74B465B004B44033B31
:10131000D3189C70D119D25D002A00D05A704B4668
:101320000B706C73307D009A019B00F073F982465C
:1013300000289ED02100306800F090FB99E7002043
:10134000A7E7C046FFFFFF0FFFFFFF7FF0B5EFF3FA
:101350000583CE46474680B505000C0085B0002BBE
:101360000DD0324A0020536A9C4203D8926A013061
:10137000AA4232D305B0C0BCB946B046F0BD2C4E2F
:10138000029301932B4B0200009330000B00FFF7F8
:1013900019FF031EE5DD20BF7168EFF3108772B6F9
:1013A0000A68002AFCD0BFF35F8FDAB29446306837
:1013B000427B624516D0FF2201681A4089465100DF
:1013C00088464946904441440339897800290BD125
:1013D0003269934210D131610EE0E31A5A1E9341F3
:1013E000D8B2C7E7FF221A40F1681B0A8A18013AEF
:1013F0001278DBB29A4214D07368BFF35F8F002279
:101400001A6087F31088094B00205A6A9442B1D8B9
:101410009B6A0130AB42ADD2A41A631E9C41E0B27C
:10142000A8E7614600F01AFBE6E7C0460040054029
:10143000480D0020610E0010F0B5EFF30582D6468E
:101440004F4646461000C0B51038EFF3108872B60C
:10145000214C2368002BFCD0BFF35F8F01231900C0
:1014600081401E4D1F006963AA461D4D29601D4D18
:101470002E78AC463500C5402F402B4215D0534640
:101480005F6A194B8500EB589F4218D36246174B91
:101490008E43EB581670BFF35F8F0022226088F3F3
:1014A0001088002B06D0984704E0BFF35F8F2760B9
:1014B00088F31088E0BCBA46B146A846F0BD0C4B94
:1014C00092009C46624413681360BFF35F8F002351
:1014D000236088F31088EDE7280100D00040054024
:1014E0003C700540391A0020181A0020841400208E
:1014F000D03F054010B5034B01001800024AFFF72A
:101500003BF910BD361A0020E04F0010034B596A1A
:101510000A00986A596A8A42FAD170470040054029
:1015200070B504000D00174A536A1900966A536A91
:101530008B42FAD13000190024184D41AB4216D825
:1015400013D0104B2A005B6A9D4203D90D494B6AA8
:101550009342FCD3934207D10A4A02E0516A99426E
:1015600002D1916AA142F9D370BDA642E9D9054BD7
:101570005B6A1C005A1CEFD0012201246442E5176B
:101580005242E3E70040054070B504000D00EFF360
:10159000108672B61A4A1368002BFCD0BFF35F8F17
:1015A000002D1BD02000FFF795F9164981420AD083
:1015B0002000FFF797F901212000FFF779F90123B7
:1015C000A340114A1360114BA400E550BFF35F8F95
:1015D00000220B4B1A6086F3108870BD0121A140D8
:1015E0000A4BA200D5500A4B20001A788A430549BD
:1015F0001A70FFF79BFA00212000FFF759F9E5E781
:10160000280100D0391400103860054084140020EF
:10161000391A0020F0B54F46D6464646C0B50700F9
:101620002B4C616A0D00A66A616AA942FAD18B420D
:1016300008D805D00120E0BCBA46B146A846F0BDA6
:10164000B242F7D9EFF3108A72B622480168002936
:10165000FCD0BFF35F8F0125BD401F491C4C88465D
:10166000097889462943C9B28C46414660460870CC
:10167000391D890065630A511849B8004350216A31
:101680000020294219D0616A0800A66A616A814275
:10169000FAD18B4219D801D1B24216D8CC450BD021
:1016A0000B4B1F221D625D6301233A4093400C4A9D
:1016B000136043464A461A700120BFF35F8F002231
:1016C000044B1A608AF31088B5E70020F5E7C0469E
:1016D00000400540280100D0391A0020181A0020C7
:1016E00080E200E0EFF3108C72B60A490B68002B21
:1016F000FCD0BFF35F8F01238340074A0748136282
:1017000002789A430270BFF35F8F00230B608CF363
:1017100010887047280100D000400540391A002089
:1017200070B505000E001400002923D0002A12D045
:1017300080686B689847296800280ED063001B19E1
:101740007200033B9219CB18033A9E7088188A5C8A
:10175000002A11D10470300070BD73009B19620023
:10176000033B1219CB18033A9C7088188A5C002A34
:1017700005D106702000EFE75A700470EBE75A704D
:101780000670F7E730B583600023CCB243730133B2
:10179000047342608373C4730D000068012C06D982
:1017A000421C0133DBB2137003329C42F9D1FF219A
:1017B00029404B005B18C01800230338437030BD2C
:1017C00070B505000C1E07D0630001681B19033BB0
:1017D000CB185A78002A01D1200070BD5000801823
:1017E0000338091800204E784870210058702800EE
:1017F000FFF796FF310004002800FFF7E1FF060025
:10180000002C26D00028E7D021003200A8686B68A1
:101810009847296800280ED073009B196200033B8B
:101820001219CB18033A9C7088188A5C002A00D0E1
:101830005A700670D0E763001B197200033B9219BF
:10184000CB18033A9E7088188A5C002A00D05A7020
:1018500004703400C0E7C046F0B557464546DE4642
:101860004E46E0B50D006F0001687F19033F04008C
:10187000C85D83B00192CA19002850D043001B18DC
:10188000033BCB185E78B446002E1AD1019E002E81
:1018900042D0E67B002E04D073009B19CB18033B8B
:1018A0005D70A37B002B00D1A573E57300282FD1B9
:1018B0000023537003B0F0BCBB46B246A946A04615
:1018C000F0BD72006244033A8A18517888460021BC
:1018D000517089465970320001002000FFF720FF47
:1018E00043468246002B07D05B0021684344033BFC
:1018F000CB185A78002A16D1424651462000FFF7ED
:101900000FFF2168019BCA19002BC2D10028CFD03C
:1019100043001B18033BCB1800219970C8E7019BBB
:10192000002BB6D1C4E75000801803380918487856
:10193000834648464870587041462000FFF7F0FE45
:10194000594680462000FFF73BFF41460200200039
:10195000FFF7E6FE8046CFE7F0B557464546DE4640
:101960004E46E0B583B00191457B04006F000068EE
:101970007F19033FC15DC219002952D04B005B188B
:10198000033BC3185E78B446002E1CD1019E002E86
:1019900044D0E67B002E04D073009B19C318033B90
:1019A0005D70A37B002B00D1A573E573002931D1B5
:1019B000002328005370617303B0F0BCBB46B246ED
:1019C000A946A046F0BD72006244033A82185078DE
:1019D0008046002050708146587032002000FFF78A
:1019E0009FFE43468246002B07D05B00216843449C
:1019F000033BCB185A78002A17D1424651462000A3
:101A0000FFF78EFE019B01002068C219002BC0D198
:101A10000029CDD04B005B18033BC3180020987001
:101A2000C6E7019B002BB4D1C2E7500080180338F1
:101A30000918487883464846487058704146200047
:101A4000FFF76EFE594680462000FFF7B9FE41467B
:101A500002002000FFF764FE8046CEE770B5050067
:101A600000292CD0437B8B422ED04C000068641898
:101A7000033C0419A278002A21D053009B18033B91
:101A8000C25CC6188A4202D11BE0002A08D053006B
:101A90009B18033BC3185A788A42F6D162785A7071
:101AA000002301222800A3706370FFF7D5FE697B35
:101AB00002002800FFF734FE6873012000E00020D8
:101AC00070BD63783370EBE701221900FFF7C4FEA5
:101AD000F2E7C046F8B5CE464746040080B506207A
:101AE0000E0000F01FFA051E51D0524B5249E21869
:101AF00053425A418023DB039C4692054F4B62447C
:101B00001A604F4B1A6010008B689843FBD1494B09
:101B10004C4AE31859424B4180215B0049000620A2
:101B2000995200F0FFF93100C00000F063FBC309D7
:101B300032D14022012190466162A362256BEB07FE
:101B400036D427008026E36A00232C3776013E43F3
:101B500033600620256300F0E5F94146800000F07F
:101B600049FB236B05009846DB073BD46023E26A00
:101B70005A400E33134033604346236380231022C0
:101B80009B013B431A60304B23630323A36428006B
:101B9000C0BCB946B046F8BD2C4A93423FD9002399
:101BA0002B492C4A6162A362256B9046EB07C8D58E
:101BB0002200C02330329B011343234A06201A60BF
:101BC000666AA36AB601F61800F0ACF9224900F083
:101BD00011FBB6020100300000F00CFB0021FFF702
:101BE0009FFCAEE72200C02330329B011343164A0C
:101BF00006201A60636AA26A9B019946914400F02C
:101C000091F94B4614499B02994600F0F3FA010002
:101C1000484600F0EFFA0021FFF782FCA6E77F229A
:101C2000990188460240013252081900904413007D
:101C300082E7C0460080FCBF00C0004000E00040DA
:101C400000F00040281A002001030000FEFF000001
:101C5000FFFF0000C0FF3F004E0E000010B50C203B
:101C600082B000F0B5F9FEF779FD002810D08B4B5B
:101C70008B488B498B4A186059609860D96018610D
:101C800059619861D961186259625A6202B010BDF7
:101C9000854CA06700F0A4F90122844B1A60636CA4
:101CA000012BFCD10322824B1A607F4A936B012BDC
:101CB000FCD1013301217F4A7F480093043300F0B7
:101CC00037F905237D4A009301217D4800F030F962
:101CD0007C4B5A68FF2A02D8802252005A60802228
:101CE000734B6E4C12011A602169002907D060699C
:101CF00000F080FA013043001B18033BFDD2E022C4
:101D0000704B714819680A400260022219685140FC
:101D100001320A40042102609A681142FCD08021FD
:101D20006A4A09011160802252005A60684B23619F
:101D3000684B5968FF2900D85A60032201215B4B88
:101D40001A60644A93681942FCD0E023106803408B
:101D500061480360126803234A40022113405D4A30
:101D6000036093681942FCD080215C4B0901196023
:101D700080215B4B4900516063615A4B5A68FF2ACE
:101D800000D859608022584B12011A60E16900297D
:101D900007D0606900F02EFA013043001B18033BA6
:101DA000FDD2E0234F4A11680B4050490B6080215F
:101DB0004F4B090119608021394B49005160E361A3
:101DC0004C4B5A68FF2A00D8596080224A4B1201B6
:101DD0001A60216A002907D0606900F00BFA01300F
:101DE00043001B18033BFDD2E023424A11680B401D
:101DF00042490B608021424B0901196080235B003E
:101E000053608022264BD20223623E4B5968914296
:101E100000D25A6080223C4B12011A60616A00298C
:101E200007D0606900F0E6F9013043001B18033B5E
:101E3000FDD2E023334A11680B4034490B60802106
:101E4000334B090119608023DB025360154B636239
:101E5000304B5A68FF2A02D8802252005A608022F2
:101E60002D4B12011A60A169002907D0606900F0AA
:101E7000C1F9013043001B18033BFDD2E023254A82
:101E800011680B4025490B608021254B0901196021
:101E900080235B005360124BA361F7E6000E002025
:101EA000006CDC021BB70000008000403CB000402A
:101EB00030B00040002F685900800240008C8647F7
:101EC00000C00240308000403090004030A0004010
:101ED000001BB7003C8000403C9000403CA000400C
:101EE000405973075480004054B000405490004063
:101EF00054A000406080004060B00040609000400E
:101F000060A000406C8000406CB000406C900040CD
:101F10006CA000404880004048B00040489000401D
:101F200048A00040014B8000C0587047000E0020C0
:101F3000F8B5040021481D0017000E0000F05AF902
:101F40000100380000F056F9069B29041B031943D1
:101F50002368002B20DB1A4B1A4DE21853425A41DA
:101F600080235B019C461203174B62441A60174B97
:101F70001A601700AB689F43FBD1C022231D92015A
:101F80001A4321232660A06013602368002BFCDA2B
:101F90000823E1601360F8BD3F2322681340B34279
:101FA000D9D1A3681B051B0D8342D4D1EE22E3686F
:101FB000D20213408B42CED1EDE7C046001BB700E2
:101FC0000040FDBF00C0004000E0004000F00040C5
:101FD0008023024A9B000343D36270470080054080
:101FE000AA23064A1B0113602133FF33D36004493F
:101FF000044B19605368002BFCDA70470040024024
:1020000000B0FA00006002402C4B2D4A70B51A60F7
:102010002C4A2D4B2D491A6014008B689C43FBD130
:102020002B4D2C4EB54208D2013E761BB60808CD8A
:10203000984723000134B342F9D1FFF70FFE264A37
:10204000214B1A60214A9368DB43DB01DD09002B39
:10205000F9D14022214B224C224E9A675A671A67C7
:10206000DA66B44208D223682000002B20D008345E
:10207000FEF7C0FEB442F6D31B4C1C4EC022B16822
:10208000200000F0B1FBB460FEF7E6FBFEF78AFE2D
:10209000FFF75EF8164C174EB44208D2013E361BCD
:1020A000B60808CC98472B0001359E42F9D170BD87
:1020B0000834FEF791FEB442D5D3DDE700E00040DE
:1020C000BFCDFBFEFE7F3C0000F0004000C00040A2
:1020D000D80D0020E80D0020FFFFFF0100F00140B7
:1020E000D00D0020D80D00200000002000ED00E001
:1020F000E80D0020F00D002000BEFDE710B5FFF751
:10210000FBFFC0460FB400B5084883B000F01CFCCC
:10211000049B002B07D005A91800019100F018F8C6
:10212000034800F011FC0120FFF7E6FF0450001007
:10213000E84D001010B50148FFF7E4FF14500010FF
:1021400010B5002800D110BD00F0B2FBFBE7C0467F
:1021500010B5094A0300146884B0002C08D001228D
:1021600000910648524203A9A047012004B010BDC7
:1021700000F0EAFB0020F9E7F018002041210010F0
:1021800001480421014B1847700D0020B1210010B7
:10219000142310B50100188804331B88984710BD1C
:1021A000162310B50100188802331B88984710BD0C
:1021B000F8B54746CE4680B50F1E19D01423994670
:1021C000043304000025012698464B4618884346F0
:1021D00021681B88984701C4431E9841013540423D
:1021E0000640AF42F1D13000C0BCB946B046F8BDA0
:1021F0000126F8E7114A936F9B0813D210665166C7
:10220000002905D0FFE7FFE7FFE7516F106F704728
:1022100004B5002801D00020C04302F085FD002154
:1022200004BDC046F0B5146E556E576F166FFFF7BC
:10223000E5FF1466556657671667F0BD000000D0CD
:1022400094464A4A926F9208624601D228E0C046FC
:10225000F0B5464E346E756E776F366F00F020F82D
:102260009446424A14665566576716676246F0BD43
:1022700094463E4A926F9208624601D254E0C046AC
:10228000F0B53A4E346E756E776F366F00F04CF8DD
:102290009446364A14665566576716676246F0BD1F
:1022A000002B24DB11D000293EDA00B5C94340429F
:1022B00000D1013100F038F8C943404200D101316A
:1022C000DB43524200D1013300BD002AEBD100288C
:1022D00001D1002905D00020C90FC90701D1C04391
:1022E000410800B502F018FD0022002300BD00B532
:1022F00000290ADBDB43524200D1013300F014F81D
:10230000C943404200D1013100BDC943404200D120
:102310000131DB43524200D1013300F005F8DB43C9
:10232000524200D1013300BD002923D1002B18D126
:10233000002A0CD0BC460D4F38667A660021002377
:10234000FFE7FFE7FFE77A6F386F674670470028BF
:1023500001D00748010000B502F0DEFC0022002396
:1023600000BD02000B00002000217047000000D0DB
:10237000FFFFFFFF002B00D0BFE0130C28D1002A85
:10238000E7D080B4114F39667A66FFE7FFE730B4D3
:10239000040C7B6F396F1B0423433B667A66FFE7AF
:1023A000FFE7FFE7C04684B27B6F3D6F1B0423430A
:1023B0003B667A66FFE7FFE7C04600232C042D0C3E
:1023C0007A6F386F00196941B0BC7047000000D0C7
:1023D000F0B594460025140E01D112020835140FF1
:1023E00001D112010435940F01D192000235D40FAE
:1023F00001D152000135D40B0134254F7C66254CA8
:102400003C660E0C93B2FFE7FFE7FFE73C6F6643C5
:10241000360C7703BE467343DF0B5B04C01AB94129
:10242000130C7343DB18C91ACE086643360CB64446
:1024300093B273431F0F1B01C01AB941130C7343AE
:102440001F0B1B05C01AB941860D8F023E43664320
:10245000360C092D24DB520A7243801A7703460A90
:102460006643360C16235B1BDE40DF40BF19644613
:102470006643821B7046043506330100D940A840EC
:10248000C01900D30131A24206D20023F0BD0000E2
:10249000000000D0FFFFFFFF121B0130F3D3F1E774
:1024A00009277F1BFE406446A2B27243801A00D205
:1024B0000139220C7243130C1204821A99410B0049
:1024C0007046043513370100F940A840801900D345
:1024D0000131002B02D1A2420AD2F0BD013000D35B
:1024E0000131121BFAD2013BF8D1A24200D2F0BD59
:1024F000013000D30131121BF7E7F0B51C0C00D0FE
:1025000080E00CB400251C0A04D11B02160E3343D4
:10251000120208351C0B04D11B01160F33431201A4
:1025200004359C0B04D19B00960F33439200023577
:10253000DC0B02D192185B4101351C0097186441F5
:102540000134464F7C66464C3C660E0CFFE7FFE7C5
:10255000FFE7C0463C6F6643360C7703BE4697B232
:102560007743C01B00D20139C01B00D201399FB292
:102570007743C91BC91B170C77437E04FF0B801BD5
:10258000B941CE086643360C0C2D33DBB644120B32
:102590001F053A431B0B97B27743C01B00D201398A
:1025A0009FB27743C91B170C77433E043F0C801B37
:1025B000B941860D8F023E43664329277F1BFE40AB
:1025C0000C3D7746AF40BF1930BCA2B2ABB27243EC
:1025D0007343801A9941220C7243130C1204801A1F
:1025E000994102000B000137001BA941F9D2781E66
:1025F0000021F0BD0C277F1BFE4077467F0BAF40CC
:10260000FF19E0E700245D1C07D0144F7D66396692
:10261000FFE7FFE7FFE7FFE73C6F95B29EB2654338
:102620006643401BB141150C1E0C654366433604DE
:102630002F0C3E432D04401BB141994204D20200AD
:102640000B0020000021F0BD01D19042F7D3801A89
:10265000994101349942F2D3F6E70000000000D01E
:10266000FFFFFFFF10B50148FFF74CFD20500010A1
:10267000132370B51D78012D15D010DD1B48FFF711
:102680008FFD1B4C01008022200000F0ADF8022DD0
:1026900006D01848FFF77CFD174B186070BD144C2E
:1026A000164BA364F5E7164B114C23606360A360DF
:1026B000E36023616361A361E36123626362A362F8
:1026C000E36223636363A363E36323646364A364D8
:1026D000E36423656365A365E36523666366A366B8
:1026E000E36623676367A367E367D9E753440000A2
:1026F000280F00204C3300000C1900200527001083
:102700006526001007B5604601880A0A0230DF2AF4
:10271000FAD1C9B2820804D3028840880004104369
:1027200000E00068014A5050039007BD280F0020C8
:1027300051434343C9188C46110C83B24B4310B428
:10274000040C614392B280B2504362431C041B0CE0
:10275000001910BC59411304120CC01851416144B6
:102760007047000010B50148FFF7CCFC4051001045
:10277000132310B510481C78FFF712FD0100012C3F
:102780000AD003DD80220D4800F02EF80C48FFF738
:10279000FFFC0C4B186010BD084C5422200000F0C8
:1027A00023F82200084980322368002B00D12160E1
:1027B00004349442F8D1E9E7534600001019002090
:1027C0004C3300000C19002065270010014804213B
:1027D000014B1847800D0020B1210010014B1B68F0
:1027E00018470000800D0020014B5B68184700006F
:1027F000800D0020F0B546464F46D646C0B5437D15
:1028000080460E001700002B4BD0002A32DD274BEC
:1028100001259A464B1E00240020994607E0335DAF
:102820000A2B2CD02B0001340135BB4213DA002CCB
:10283000F5D133780A2BF5D143461B7D002BF1D11E
:102840004346504602211B68984728002B0001345C
:102850000135BB42EBDB874204DD4346391A1B6876
:1028600030189847F619013E33780D3B5A425341D0
:1028700042461375E0BCBA46B146A846F0BD4B4689
:102880001B5D0D2BCED0A042DADA4346211A1B681D
:10289000301898474346504602211B689847280045
:1028A000D4E70368110030009847E3E7B450001004
:1028B000F0B5CE46474680B583B06B460600DD1DB9
:1028C0002870FEF723FE00231A4A12184B4180217C
:1028D00009068B4202D30122174B524217490800C6
:1028E000884602F039FA164B81461C68002C14D039
:1028F000144F02E02469002C0FD02368002BF9D07C
:102900003B68002B01D0A342F4D120000122290012
:10291000FFF770FF2469002CEFD14B46002B05D147
:10292000300003B0C0BCB946B046F0BD404602F02E
:10293000EBF9F5E740420F00FFFFFF7FD00D0020CD
:10294000E0140020E8140020F0B5DE4657464E465D
:102950004546E0B585B0070002F0A6F90600FEF78F
:10296000D5FD00232B4A12184B41802109068B42CA
:1029700002D30122284B5242284908008B4602F01C
:10298000EBF9274B01901C689A46002C3BD0254B55
:10299000984602ABDD1D0A23994602E02469002C0B
:1029A00017D02368002BF9D043461B68002B01D0B9
:1029B000A342F3D1200032003900FFF71BFF4B4642
:1029C0002000012229002B70FFF714FF2469002C3E
:1029D000E7D1019B002B18D153461C68002C06D070
:1029E0006368002B0BD098472469002CF8D1300085
:1029F00005B0F0BCBB46B246A946A046F0BD24696E
:102A0000002CEDD1F3E70028F1D0584602F07CF914
:102A1000E2E7C04640420F00FFFFFF7FD00D0020DD
:102A2000E0140020E81400200A4A1368002B05D1A6
:102A30000CE01A001B691032002B07D09842F8D125
:102A4000002902D103691360016170470029FCD09D
:102A50001060FAE7E0140020F0B5002915DD0E4BF8
:102A60000D271A680D4B0E4CD3185D426B4145186B
:102A700020215B001E5F0478A64207D093691942AB
:102A8000FCD101301460A842F5D1F0BD9369194220
:102A9000FCD11760F2E7C046301A00200080FCBF6E
:102AA000281A002030B504000D1E30DD0020102152
:102AB000204B013C1A689369194217D10130936980
:102AC0001942FCD1136823548542F4D11A4B1B6878
:102AD000002B09D0502338219363536B34321940B3
:102AE00080235B011343196028000FE0124B1B6821
:102AF000002B09D0502338219363536B3432194093
:102B000080235B011A431160002810D030BD0A4BAE
:102B10001B68002B0BD050223821064B1B689A6390
:102B20005A6B343311408022520113431960032041
:102B30004042EBE7301A002094140020064B10B5F9
:102B40001B68002B06D00021044A12689163044AD6
:102B50001068984710BDC04694140020301A002019
:102B6000981400201D4BF0B51A68C64698461C4BB9
:102B70000E00D31859424B411A4F14331C00050064
:102B800000B53B68002807D0002B11D0164B3D60E4
:102B90001E6080BCB846F0BD002BF7D090630021CA
:102BA0002000FDF785FE20001049FDF7BFFFEDE78F
:102BB00020000E49FDF796FE01212000FDF778FE6A
:102BC0004346502238211B689A635A6B34331140B4
:102BD0008022520113431960D8E7C046301A002002
:102BE0000080FCBF94140020981400203D2B00109E
:102BF00070B50C4E0D001C003060002A03DB022172
:102C00001000FDF753FD002C03DB02212000FDF72F
:102C10004DFD29003068FEF75DFF01210248FFF7F6
:102C200003FF70BD301A0020900D002010B5114C2C
:102C3000114B22689A4210D1104B62689A420CD113
:102C40000F4BA2689A4208D100230E482360FFF779
:102C50009FFA0021030000209847074B00212360C2
:102C6000064B09486360064BA360FEF759FC00233E
:102C7000236010BDF00D0020DE8116F0299B72BD8F
:102C80007ABE59D355420000400D0300E12110B532
:102C9000044B05480022186049020123FFF7A8FFF2
:102CA00010BDC0462C1A0020004003407047C046AB
:102CB00010B501210520FDF7FBFD10BD10B5002268
:102CC0000021024800F05AF910BDC046101500203E
:102CD0008022024B5202DA647047C0460020115035
:102CE000F0B5C64600B5060000F022F90C231B4DD6
:102CF000FF22AB6705201A49FDF71EFE40239846C8
:102D0000184C402200212000FFF768FD43460127B0
:102D1000238321210023144A6770A2601360635447
:102D20005F31618441462187053963540F4A104958
:102D30006360E260A1620B606362E26202F02CF801
:102D400080239B052F64EB6490230A4A3000EA50ED
:102D5000FFF7BEFF80BCB846F0BDC0460000115072
:102D600029030020F01400208400105000011050AE
:102D70008000105010D001000B785B0602D14B7818
:102D8000052B00D070478A78014B1A60FAE7C046DD
:102D900000001150F0B5C64600B5CC7888780A79A5
:102DA0004B797F21A40701401B02C50913434F0043
:102DB000A20F1400324E7A195201B21890700120FD
:102DC0006840507000205B055B0DD0701383D47693
:102DD0008046CA00012D33D02A48844688016244C7
:102DE0008446B4446046826040461060002933D077
:102DF000254AC90090466246414451603F223F3314
:102E00009343022C00D15B0020487A1901685201DB
:102E1000B218D1601E4ACB18036051405A4080233B
:102E200088465B019A4228D84346A4061C43802367
:102E30007F197F01F61972681B062343136011E0A6
:102E400014488446880162448446B44460468262E1
:102E500040461060002909D100236D0175196B608F
:102E60000D4BEB60012080BCB846F0BD084AC9009C
:102E70009046624641445162C0E7FFF75BF9D3E7F1
:102E8000F01400208400105004001050F4180020AA
:102E900000001050800010500001105010B501F0DB
:102EA0007BFF10BD10B57F200C0020404000E409DE
:102EB000110000191A00034B4001C01800F05EF821
:102EC000012010BDF01400207F23180010B5084029
:102ED0000B420BD0C90980224000074B401840012B
:102EE0000021C018120101F04FFF10BD0223034A58
:102EF000C9095B1A9366EEE7F01400200020115018
:102F00007F22130010B50B400A4200D110BDC90941
:102F10005B005B1804485B01C018002300220349D2
:102F2000C37001F031FFF1E7F0140020FFF7FFFF5D
:102F300080220D4B520410B51A600C4B0C491A60DC
:102F400010008B689843FBD10A4C9C220021200082
:102F5000FFF744FC8022002152010748FFF73EFCA6
:102F60000923636710BDC04600E0004000F0004048
:102F700000C000400000115000001050002310B5A8
:102F8000C3820133828283760161040001F0F4FE82
:102F9000002804D080219023074A8902D1502000C4
:102FA00001F0CAFE002802D00123237710BD2000C3
:102FB00001F0DAFEFAE7C0460020115070B5204A51
:102FC000204E050000243378002A26D0A3422DD8B5
:102FD000E31ADBB2012B00D970BD5A00D3181A4A8C
:102FE000DB009B185B682800984733780134E4B213
:102FF0005A1CA242EADA154C532200212000FFF7A6
:10300000EDFB1022FF21E01CFFF7E8FB200020224F
:10301000FF211330FFF7E2FBDEE700F029FF280075
:1030200001F07EF93378002BD6D1E4E7084B62003B
:103030001B681219D2009B18002BD3D1CCE7C046D5
:1030400000000000341A0020D85100102C1200207B
:1030500044100020024B5878431E9841C0B270477C
:103060002C120020024B18784007C00F7047C04652
:103070002C120020034B1878FF38431E9841C0B231
:103080007047C046CC0D0020F0B5C64600B52F4EA7
:1030900004003378FF2B01D001202AE053220021C5
:1030A0002B48FFF79BFB2B4D2800FDF795FE2A4B85
:1030B0001D602A4D2800143DFDF7AAFE280001F0EE
:1030C000C3FC274B274F1D60274B9846002B29D068
:1030D000380000E000BF254B18603B7842460025D1
:1030E000002A2AD0AB421FD8EB1ADBB2012B03D93E
:1030F000002080BCB846F0BD5A00D3181C4ADB0043
:103100009B181B6898473B780135EDB25A1CAA42C0
:10311000E8DA20003470FFF7E3FD2000FFF7C8FD78
:103120000120E6E73B78D9E7104B6A001B6852198B
:10313000D2009B18002BE4D1DAE700F061FE01F029
:10314000C1F83B78002BD3D1E3E7C046CC0D00207B
:103150002C120020E411002080120020C40D002059
:1031600084120020341A00200000000044100020C7
:10317000D8510010F0B5DE4657464E464546E0B5FC
:103180008DB001F099F900284DD0C24BC24E00938A
:10319000C24B09AC019335686A69EFF3108172B6CE
:1031A0001368002BFCD0BFF35F8FA96128002100BA
:1031B00001F08CFA6A69AB69BFF35F8F002111607F
:1031C00083F3108800282ED06378082BE3D8009A68
:1031D0009B00D3589F466368002BDCD0A0689847BB
:1031E000D9E77F222179AD4B0A405500C8095B1908
:1031F0001B18180001273030C578BD43C570C5784D
:103200000337BD43C570002A00D180E0A44ADB7CAF
:10321000002A06D0A34A1278934200D2D7E09B1A24
:10322000DBB2012B68D90DB0F0BCBB46B246A94653
:10323000A046F0BD0122994D01212B7804201343B3
:103240002B703323EA5C27788A43EA54EA5C824392
:10325000EA540133EA5C8A43EA54EA5C8243002080
:10326000EA5400F087FC602223791A40602A0AD0D1
:10327000402A52D0DB06DB0E012B00D1B0E0022B3E
:1032800065D0002B57D020780021FFF71DFE80214C
:103290002078FFF719FE7EE7019B1B78DB0700D43F
:1032A00079E7814B002B00D175E7FDF737F972E71D
:1032B000019A1378DB0700D46DE77C4B002B00D11B
:1032C00069E710780007C00FFDF720F963E7207861
:1032D000FFF774FE00F044FC754B002B00D15AE759
:1032E000FDF70EF957E72078FFF768FE00F038FC8D
:1032F0006A4B22799A704EE75D00ED186D4BED0038
:10330000ED18A368627920782D69A84743E7A36880
:103310006279207800F042FC3DE767480028B2D08F
:1033200000F028FC012138000AAAFDF7FFF8002868
:1033300000D030E7A7E7202A00D18AE0002AA2D1F6
:103340006379092B9FD85D4A9B00D3589F46702311
:10335000217A0B4297D1C80982460F330B405B009C
:10336000E8185044C07C029384464D48002808D099
:103370004C480078844500D2C1E06346181AC3B2B5
:103380009C466046012800D89CE0002A00D07AE7DD
:10339000002398466379994602234A469B469A43FE
:1033A000012A00D152E14B46002B00D06BE7029B73
:1033B00008AAEB1853443033DB7802329B07DB0F4B
:1033C0001380380002230AA900F074FBE3E63C4AAC
:1033D00058001568C318DB00ED18002D91D122E7C5
:1033E000237A0F2B00D94EE72D4AEB18DB78002A01
:1033F00005D02C4A1278934278D39B1ADBB2012B6A
:1034000000D940E75D00ED182A4BED00ED18E868A3
:1034100000F0B0FB01213800EB680AAA98470028A9
:1034200000D0B8E66022150023791D401A4200D072
:1034300029E763790A3B012B00D924E700F09AFBC6
:1034400063790A2B00D15BE138000AA900F01CFB6C
:10345000A1E6237A0F2B00D915E7114AEB18DB7888
:10346000002A06D00F4A1278934200D214E19B1A28
:10347000DBB2012B00D906E75D00ED180D4BED0026
:10348000ED18E86800F076FB01213800EB680AAA25
:1034900098474CE74C510010841200202C12002059
:1034A00000000000341A00201D0500100D0500105A
:1034B00001050010D85100102D05001070510010AA
:1034C00044100020D34B400098466044C000804424
:1034D000002A00D15EE74346D86800F04BFB434624
:1034E00001213800DB680AAA984720E7CA4A590038
:1034F0001568CB18DB00ED18002D88D1C3E66346B4
:103500005B009846C4446346DB009C46C2480068A2
:1035100060448046002A00D13CE70028DBD1B2E6B7
:10352000A3799A466B789A4507D06B78002B00D028
:103530003CE15346002B00D0EBE0534638000AA98B
:103540006B7000F0A1FA26E66B7808AA02321370BD
:10355000380001230AA900F0ADFA1CE6E3881A0A34
:10356000D8B20F2A00D98EE6AC499300CB589F46BB
:103570000AA800F005FB3800A179FFF79FFB0222A3
:103580002B7813432B7006E6E388012B00D07AE6F4
:1035900008222B78380093430AA92B7000F074FAA4
:1035A000F9E50220297808AB9A1C8B068908DB0F05
:1035B00001400B4304E7E388012B00D063E60822B7
:1035C0002B78380013430AA92B7000F05DFAE2E56E
:1035D000934B002B00D156E6FDF726F8021E00D1D2
:1035E00051E6D37891781B020B4338000AA900F00A
:1035F00061FA9CE68B4B002B00D144E600E000BF53
:10360000021E00D13FE6380013780AA900F052FAF2
:103610008DE62189FDF70CF8021EF4D133E6022A6B
:1036200000D1CEE0804B002B00D12CE600E000BFA3
:103630000200002A00D126E6D3E7FCF7EDFF1223B3
:1036400002000AA9380000F035FA70E6E288002A84
:103650000CD14B46012B29D030229146029BEB180E
:10366000534499444B46DB789B0739D54346002B9E
:1036700000D190E5D86800F07DFA43460121DB686F
:103680000AAA38009847002000F074FA3423EB5C53
:10369000DB0700D57FE5D7E65F4A59001568CB18F0
:1036A000DB00ED18002D00D0EBE6ECE5029B30329C
:1036B000EB18534492469A445346DB789B07D5D582
:1036C0005A4B1878FFF71CFC53465A46DB78934355
:1036D0005246D370D3784A4693435246D370C5E7D7
:1036E000524B1878FFF7F0FB4B460222DB7813436E
:1036F0004A46D370D378012213434A46D370B5E7C4
:1037000008AB9A1C380001230AA9157000F0D2F901
:1037100041E5581EC0B2FCF783FF002800D1B2E596
:1037200043780693022B00D0ADE50121C279B34660
:10373000931152110B400A4012015B0113432A7886
:103740002F318A4313432B7009239946C37882781B
:103750001B021343C3188144049353464E46AA46A2
:10376000B9460793049BB3422FD901227378029282
:103770000B2B03D1F37802933378F6187378042B6C
:1037800012D10027049B2A4A9B1B9BB29846294BC7
:10379000039705931B78BA4200D17EE09F4273D312
:1037A000FB1ADBB2012B1CD95E466CE53800FFF733
:1037B00075FBAB7838009846FFF700FC4346AB70CA
:1037C000B7E6FCF72DFF020033E7079B55469A4604
:1037D000194B4F465E46002B00D1AEE6FCF788FE43
:1037E000ABE618255D430B4BED18424631004846C9
:1037F000AB689847082802D9434683421ED2059BEE
:1038000001371B78FFB25A1C0397BA42C6DA5E46EC
:1038100039E5C046D85100104410002098510010DE
:10382000290600100000000000000000CC0D002060
:1038300000000000341A0020F1040010A846050022
:10384000029B012B49D00022504609E0B378D318DF
:10385000DBB2C318D978FF29A6D10132DF70D2B20A
:10386000029B9A42F2D13B002A00310082461F4857
:1038700000F0A8FE059B039A1B787619013393424A
:1038800000DB6FE75E46FEE41823194A7B431568A8
:10389000ED18002DA9D15E46F5E4424631004846B8
:1038A00000F0FCFA0500082802D94346834211D2F1
:1038B000474631003A00484600F040FD0500082820
:1038C00000D871E7874200D26EE70127094B0397C2
:1038D0009846B5E7084B9846B2E74246074B9268D0
:1038E0009A42B0D1069B0293ADE7C0463F1200203A
:1038F00044100020F0510010D85100109D3E0010DF
:10390000F8B557464E46DE4645460C00E0B5160073
:103910001F00002A3CD01F4B00259A467023994671
:103920001D4B9B4617E05B462000997800F00CFE8B
:1039300000281FD021004046FFF72CFA002819D09C
:10394000A378DA09012A1CD00A9A0135137023786A
:10395000E418B5421CDA6378052B0BD1E3789B079A
:103960009B0FBB4206D153464A461B789846A37824
:103970001A42D8D00020F0BCBB46B246A946A046A9
:10398000F8BD0B9A013513702378E418B542E2DBD9
:103990000120F0E7CC0D00202C120020702270B521
:1039A000094B0C001D788B781A4201D0002070BDA5
:1039B000064B2000997800F0C7FD0028F6D02100C2
:1039C0002800FFF7E7F9F2E7CC0D00202C120020C9
:1039D0000B007F2010B51840DB0933334000044A48
:1039E000C018044B1168C01800F06AFD10BDC04635
:1039F000801200202C1200200B007F2010B51840F0
:103A0000DB0933334000044AC018044B1168C01866
:103A100000F07EFD10BDC046801200202C12002058
:103A200070B57F240F480C4064000419CD09641957
:103A30003034E078C00701D5002070BD0126E5785C
:103A4000094835430078E570FFF72CFA0028F4D1D7
:103A50000122E3789343E370E37803329343E37006
:103A6000EAE7C0462C120020CC0D00207F22054B37
:103A70000A405200C9099B185B183033D878C00738
:103A8000C00F70472C12002070B5094C06000822A8
:103A900020000D00FEF7A8FE00238021E360A36054
:103AA0002B783000994300220023FFF7B9FF70BD47
:103AB00090110020F8B5CE4647469046264E80B578
:103AC0008146082230000D001F00FEF78DFE4346A0
:103AD000B3600023F381EC79AB7924021C43231CEF
:103AE000BC4200D93B1C9FB2B381002C0ED0002FEA
:103AF00018D04346002B2CD03B1C402F1BD89FB224
:103B000033787F2B1CD80021144A0FE080212B78BA
:103B10000022994348460023FFF782FFC0BCB94604
:103B2000B046F8BD7F230022317899433B004846D8
:103B3000FFF776FFF2E740239FB233787F2BE2D97D
:103B4000064C3A0041462000FEF74EFE802122003E
:103B5000ECE70020E2E7C04690110020EC110020C5
:103B600010B5142200210248FEF738FE10BDC046F1
:103B700090110020014B18617047C0469011002041
:103B800010B5054C010008222000FEF72DFE002391
:103B9000A360E36010BDC0469011002070B5394CA1
:103BA0001D0023780600DA09C9098A4213D00020D3
:103BB000002D00D070BD344B002B03D0210030000D
:103BC000FFF7DAF82369002B03D02200032130002D
:103BD00098470120EEE77F2B06D8A068002834D054
:103BE0002A002A49FEF700FEE289A1685219E388FB
:103BF00092B24919E281A160934214D03F2D12D9AB
:103C0000A389981A051C80B240282AD82078ADB222
:103C10007F2828D800219A4232D01C4A2B0030003D
:103C2000FFF7FEFEC6E72369002B05D02200022124
:103C30003000984700280AD0802123780022994339
:103C400030000023FFF7ECFEB4E70020B2E70021CC
:103C50003000FFF739F930008021FFF735F90120F6
:103C6000A8E74025D2E79A4207D0084C2A00200056
:103C7000FEF7BAFD80212200D0E780210022CDE7A7
:103C80000022CBE790110020792D0010EC110020CC
:103C900010B50400FFF7DEF9002801D1002010BDA7
:103CA000FFF7E0F90028F9D1A3001B19DB00044A53
:103CB0001B19DB00D218137901301840EFE7C0461A
:103CC00048100020830010B51B18DB001818034BA8
:103CD000C000C01800F0C6FC10BDC046581000203F
:103CE000F0B584002418E4002418E4002600C64639
:103CF000164F1036F61900B5300092B200F034FDC0
:103D00000500300000F0CCFC3F2803D8280080BC20
:103D1000B846F0BD3B190020D9789846FFF758FE09
:103D20000028F3D0300000F0BBFC3F2808D9434600
:103D3000C834D978E21940230020FFF771FEE5E787
:103D400043460020D978FFF757FEDFE748100020F0
:103D5000F8B50500FFF77EF9002801D10020F8BD75
:103D6000FFF780F90028F9D1AC006419E400641968
:103D7000E4002500134E2435AD19280000F072FC34
:103D80000028EBD037190020B978FFF721FE002872
:103D9000E4D00934FF34A41921002800402200F0A7
:103DA000E3FCB978051E08D0030022000020FFF7CD
:103DB00037FE0028D2D02800D1E70020FFF71CFEF4
:103DC000CCE7C0464810002070B584002418E400F9
:103DD0000A4B2418E400E418050092B2200000F019
:103DE0007BFD0600200000F03DFC3F2801D830009C
:103DF00070BD2800FFF7ACFFF9E7C0466C1000204B
:103E0000A42270B5184C82B0002120005200FEF7A9
:103E1000E5FCFF236371154B0025E3800126082391
:103E20002100200026812373402238310095073B72
:103E3000103000F0E1FB0096210020002600012355
:103E400040227831B836243000F0D6FB3000FCF741
:103E5000C3FF26622600C0363000E561FCF7BCFFD8
:103E60002663656302B070BD4810002000C2FFFFEA
:103E700010B5094C052200212000FEF7AFFC200000
:103E80002434103000F0E0FD200000F0DDFD0121C1
:103E9000200000F0F9FD10BD48100020F0B54B796E
:103EA000060083B0022B02D18B79022B03D00025B0
:103EB000280003B0F0BD2E4FBB78002BF7D18B78D4
:103EC00009253B700C780C196378242B0BD1082A38
:103ED00002D81FE0AA421DD32378E4185D19637845
:103EE000ADB2242BF6D0052B2FD0042B12D1637941
:103EF0000A2B0FD11F4B2778019301330093022225
:103F000002233000E119FFF7FBFC0028CFD00E356B
:103F1000ED19ADB2184C200000F0C2FB3F28C7D904
:103F20002600103E0020F178FFF752FD0028BFD098
:103F3000200000F0B5FB3F2815D922004023F1787E
:103F4000B8320020FFF76CFDB2E721003000FFF728
:103F500025FD0028ABD0A3787B7023785D19E41889
:103F60006378ADB2C1E7F1780020FFF745FD9FE728
:103F7000481000204A10002058100020F8B5602397
:103F800014001278050013400020202B12D12F4A74
:103F90006379277916781B023B439E420AD16378E6
:103FA000222B27D007D8202B17D0212B02D1012973
:103FB0003DD00120F8BD232BFCD101293FD003299E
:103FC000F7D1234B002BF4D0E178A378090200202D
:103FD000194300E000BF0120ECE7012927D00329A5
:103FE000E7D11C4B002BE4D00020911D00E000BF66
:103FF0000120DFE7012922D00329DAD101252E0093
:10400000A378E478023924021C4314712640243238
:104010001000714000F038FD0F4B002BC9D0620832
:10402000002031002A40FCF7E7FA0120C2E707230D
:1040300021002800094AFFF73DFD0120BAE72100D1
:104040002800FFF721FD0120B4E7C04648100020FA
:104050000000000000000000F90500104E100020D4
:10406000F8B545465746DE464E46E0B5454D1F007D
:10407000EA7880460C00AB788A4246D000208B421A
:104080001AD0F0BCBB46B246A946A046F8BD3E4B8E
:10409000002B04D0484600F0FBFA00286AD04846BE
:1040A00000F0FEFA3F2807D94E46103E0020F17876
:1040B000FFF78EFC002850D1AB78A34201D001203D
:1040C000DFE7324B002B02D0002000E000BF0020D1
:1040D000FFF73EFE0028F2D12D4C200000F0C2FA7E
:1040E0000028ECD1002FEAD0BF06E8D1243C40469E
:1040F000A178FFF76DFC0028E1D0002300224046A4
:10410000A178FFF78DFC0120BBE710232E009B4612
:10411000C836AB4431005846BAB200F0DDFB1D4B47
:10412000D946002BB3D06B79FF2BB0D0002FAED087
:10413000F219924603E00136B245A8D06B79327885
:104140009A42F8D1484600F0A3FA0028F3D14B4632
:10415000103B597900E000BFEDE7484600F0A0FAB7
:104160003F280AD94A464023F178B8320020FFF7A9
:1041700057FCA1E7FCF74EFA91E7F1780020FFF732
:104180003BFC99E7481000201506001000000000D5
:104190006C10002000000000830010B51B181B01EC
:1041A000181A034B8000C01800F05CFA10BDC0461E
:1041B0004C130020F0B5C646840024182401241AAC
:1041C000114FA400261DF61900B5300092B200F080
:1041D000CBFA3B190500997800209846FFF746FC7A
:1041E000002803D0280080BCB846F0BD300000F0A5
:1041F00057FA3F28F6D94346BC349978E219402350
:104200000020FFF70DFCEDE748130020F0B5840017
:1042100024182401241AA4002600C646144F183678
:10422000F61900B5300092B200F056FB05003000E0
:1042300000F018FA3F2803D8280080BCB846F0BD2B
:104240003B19002059789846FFF710FC0028F3D15D
:10425000FC34E41940222100300000F085FA031EEE
:10426000EAD04246002051782200FFF7D9FBE3E76D
:1042700048130020F8B5840024182401241A104D96
:10428000A4002E1900207178FFF7F0FB002801D060
:104290000020F8BD2700FC3718347F196019402230
:1042A000390000F061FA041EF2D003003A00002049
:1042B0007178FFF7B5FB0028EAD02000E9E7C04697
:1042C000481300209E2270B5144C82B000212000BB
:1042D0005200FEF783FA00252100012340222C31F1
:1042E000201D009500F088F9260021002000012300
:1042F00040226C31AC360095183000F07DF930006A
:10430000FCF76AFD66612600B43630002561FCF7D3
:1043100063FD6662A56202B070BDC046481300200E
:1043200010B5054C0023200008C000F08DFB2000D4
:10433000183000F089FB10BD48130020F0B5CE46C0
:10434000474680B54B7906000D0083B0FF2B07D19F
:104350002D4F0C787978BB78002901D1002B05D03E
:10436000002003B0C0BCB946B046F0BDAB782C19F4
:104370003B702879002826D06378052B08D0A21836
:1043800004E0217864186178052901D09442F8D3BB
:104390001E4B020098460193013300932100022333
:1043A0003000FFF7ADFA0028DAD02B799946434662
:1043B000597800290AD17978002910D14B464A460C
:1043C000DB009B1AE418601B80B2CAE74246402318
:1043D0003000BB32FFF724FB0028ECD1C0E70020FF
:1043E000FFF744FB0028E9D13E003800FC364022AC
:1043F0003100183000F0B8F9031EDFD032007978B0
:104400000020FFF70DFBD9E74813002049130020D7
:1044100010B5254CA2788A4225D0627800208A42C5
:104420000ED1224A002A05D01B04190C002000E0FE
:1044300000BF61780020FFF719FB002801D00120A0
:1044400010BD1B4C402220002100E43800F08CF904
:10445000031EF4D02200FC3A517800202200FFF71E
:10446000DFFA0120ECE721009AB2BC31201D00F0F8
:1044700033FA104B002B02D0002000E000BF0020D8
:10448000A178FFF7F3FA0028D9D1201D00F008F930
:104490003F28D4D9220040230020A178BC32FFF766
:1044A000BFFA0120CCE7C0464813002000000000FE
:1044B000441400200000000010B5FEF7DBFD10BD25
:1044C000037870B5DB0704000E00DD0F002B17D159
:1044D00003785B0701D5280070BD012130004942F7
:1044E00000F032FC2378DB07DD0F002B0AD12378A4
:1044F0005B0708D40422237801251343237002E0CC
:104500000025E8E70025300000F0FEFBE3E7C046A9
:1045100070B50C00012106004942200000F014FC97
:1045200033785B07DD0F002B04DB200000F0ECFB91
:10453000280070BD3378DB0704D40422337893431A
:104540003370F2E70025F0E7437902791B02134349
:104550005B055A0DC3789B079B0F022B05D0032BDD
:1045600015D00020012B08D0704702291ED0002052
:10457000402393424041C0B2F6E702394B425941D1
:104580000D4B9C46614491424041C0B2ECE7023978
:104590004B1E9941094B494219408023DB009C4640
:1045A0000020614491424041C0B2DDE7044BD01885
:1045B00043425841C0B2D7E7FF03000040FCFFFF71
:1045C00000FEFFFF8A1870B5914207D27F264C7813
:1045D000052C04D00C7809198A42F8D870BD340033
:1045E0008D782C4064000419ED0963550C78091985
:1045F0008A42ECD8F2E7C046F0B5C64600B50400E2
:1046000006A805788020884617001E000002824216
:1046100026D8E068002803D00121494200F094FB2D
:104620002069002803D00121494200F08DFB434658
:10463000236073045B0CED031D430023E06863817A
:10464000A780E5802381002801D000F05DFB206970
:10465000002801D000F058FB012080BCB846F0BD16
:104660000020FAE710B5048941898288A3B288B294
:104670008C4207D31B1A9BB2101C9A4200D9181CFB
:1046800080B210BD5100091A5B189BB2F4E7C04616
:1046900003894089181A43425841C0B27047C04646
:1046A00010B5048941898288A3B288B28C4207D3AD
:1046B0001B1A9BB200209A4201D9D21A90B210BDA7
:1046C0005100091A5B189BB2F4E7C04670B50400AC
:1046D00000690E00002803D00121494200F034FB9C
:1046E00025896089A288A9B283B285422BD3CD1ACD
:1046F000ADB2002D2DD0AA4208D291422FD3891AF3
:104700008BB263819A4203D89B1A9BB29A42FBD91F
:10471000E28821685204520C53433000C918FEF756
:1047200063F863890125591C89B2A2888B4212D98A
:104730005200891A89B220696181002801D000F0F5
:10474000E3FA280070BD5500ED1A4D19ADB2002DE9
:10475000D1D1618989B252009142ECDBE9E7891835
:104760008BB26381CEE7C046F0B546464F46D6468B
:10477000C0B50600006989469046002803D0012193
:10478000494200F0E1FA31897289B5888BB294B25E
:10479000914254D31F1BBFB2002F4AD0BD4205D255
:1047A000AB4251D25B199CB22F0074814346B8458D
:1047B0003DD89FB2A54203D8641BA4B2A542FBD941
:1047C000F28831685204520C904662432B1B9BB214
:1047D000891842469F4225D953439BB21A00484646
:1047E0009A46FEF701F8434648467D1B64195C4330
:1047F00031685044A2B2FDF7F7FF7189B588CB1933
:104800009BB26A00994216D99B1A9BB23069738198
:10481000002801D000F078FA3800E0BCBA46B14672
:10482000A846F0BD48467A43FDF7DEFFE5E73B1CAE
:10483000BFE773899BB26A009342E7DBE4E76F004E
:104840003F1BDF19BFB2A7E75B1B9CB2ACE7C046BA
:10485000F8B50400C0680E00002803D001214942C9
:1048600000F072FA258920896189A288ADB283B2ED
:104870008FB2884228D3DB1B9BB29A4209D8E779D2
:10488000FF0906D1E068002801D000F03DFA3800A9
:10489000F8BD2B00954203D39B1A9BB29342FBD2E7
:1048A000E28820685204520C53433100C018FDF7CF
:1048B0009BFFA2886B1C9BB252009D4209D99B1A98
:1048C0009BB201272381DDE75100C91B5B189BB216
:1048D000D3E79342F5DBF2E7F0B54546DE465746AF
:1048E0004E46E0B588460500140083B0002A6FD01C
:1048F000C068002803D00121494200F025FA2E8922
:10490000EB796A89B6B292B2DB0940D1AB889642A4
:1049100067D259008A1AB21892B20027934230D94E
:104920009A1A171C92B2A24200D9271CEA88BFB279
:104930005204520C9146F21992B29246FA1A92B26D
:1049400093463400B34203D8E41AA4B29C42FBD28B
:104950004A46624328681B1B9BB280184A46BB42EA
:1049600053D341467A43FDF73FFFAB885B00B24526
:1049700001D39A4503DB5246D31A9BB29A4653465B
:104980002B81E868002824D000F0BEF921E0AF8830
:10499000BC4229D296424AD3B31A9BB279001B1962
:1049A0008B4208DBD3199BB21E1BB6B29A46B242A9
:1049B00042D9761AB6B2EB885B045B0C9946A31910
:1049C0009BB29A46E31B9BB29B463B002700B8E78D
:1049D0000027380003B0F0BCBB46B246A946A0464B
:1049E000F0BDB21A92B298E7002FCAD0EB88E41B50
:1049F0005B045B0C5C4399461600D31900229BB202
:104A00009A4693463B00A0449BE7534399B20A0061
:104A100001915C444146FDF7E7FE22004B465A43B4
:104A20000199286892B24144FDF7DEFE9DE77900C6
:104A30008B1AF3189BB2B2E7B142BADDEB885B0484
:104A40005B0C9946BEE7C04610B50400C06800285C
:104A500003D00121494200F077F92069002803D0F2
:104A60000121494200F070F90023E068638123814D
:104A7000002801D000F048F92069002801D000F09A
:104A800043F9012010BDC04670B50400C0680D0098
:104A9000002803D00121494200F056F9206900287E
:104AA00003D00121494200F04FF97F21E379ED0164
:104AB0001940E0682943E171002801D000F024F991
:104AC0002069002801D000F01FF9012070BDC04608
:104AD00080210A4A4902136D0B42FCD00923536717
:104AE0000422074B00201A60064B00211A68064B6F
:104AF000DA67064B1A68064B1A64704700001150BB
:104B000080301150EC14002000400140F8180020C3
:104B100000C0014070B5102084B0FBF7DFFD08280D
:104B200062D0334B334DDB6F334C2B60334B012260
:104B30001B6C01210F202360FBF7DAFD02210F20FF
:104B4000FBF7FAFD2E4B03211A6808235A4017334E
:104B500013402C4A0F201360FBF7DCFD02220421D6
:104B6000294BDA677E329950284B743A5A671B6D8D
:104B70001B079B0F012B34D1FCF720FB0600FCF731
:104B8000C5FCFA220023920012184B41802109062D
:104B90008B4202D301221E4B52420121029100217D
:104BA00001911C4930000091FCF70CFB002801DB4F
:104BB00004B070BDFA2000218000FCF7B1FC802118
:104BC000124A4902136D0B42FCD009235367042299
:104BD000114B1A602A68064BDA672268074B1A6481
:104BE000E6E7FDF7A7FAC7E7FDF7A4FA99E7C0469D
:104BF00000400140EC140020F818002000C00140E3
:104C00007C4001407C5001400020115000001150B8
:104C1000FFFFFF7FD14A001080301150074B10B5C5
:104C20001B6D1B079B0F03D1FA200021800010BDD4
:104C3000FFF770FF00200021F9E7C0460000115087
:104C400010B584B0FBF792FD012801D004B010BD6F
:104C5000FCF7B4FA0400FCF759FCFA220023920096
:104C600012184B41802109068B4202D301220B4BC3
:104C70005242012102910021019109492000009135
:104C8000FCF7A0FA0028E1DA032206490B6D9B0825
:104C90001A42FBD0FFF73EFFD8E7C046FFFFFF7F79
:104CA0001D4C00100000115010B583070AD00300FE
:104CB000032102E001330B4205D01A78002AF9D112
:104CC000181A10BD030019680C4A0D4C8A188A4343
:104CD00022420FD15968094A04338A188A43224272
:104CE00008D15968054A04338A188A432242F1D010
:104CF00000E001331A78002AFBD1E1E7FFFEFEFE57
:104D000080808080F8B5C04601B40248844601BC6A
:104D1000604700BFED01002001B40248844601BC99
:104D2000604700BF5D0C002001B40248844601BC0E
:104D3000604700BF5D0C002001B40248844601BCFE
:104D4000604700BF7108002001B40248844601BCDE
:104D5000604700BF5D01002001B40248844601BCE9
:104D6000604700BFC100002001B40248844601BC76
:104D7000604700BFE509002001B40248844601BC39
:104D8000604700BF4908002001B40248844601BCC6
:104D9000604700BF8D09002001B40248844601BC71
:084DA000604700BF150200206E
:104DA8000D0A57656255534220696E7465726661D3
:104DB800636520636F6E6E65637465640D0A000039
:104DC8000D0A54696E79555342205765625553420E
:104DD80020646576696365206578616D706C650D22
:104DE8000A0000002F03016578616D706C652E74F0
:104DF800696E797573622E6F72672F776562757346
:104E0800622D73657269616C2F696E6465782E68AE
:104E1800746D6C0054696E795553420054696E790B
:104E28005553422044657669636500003132333456
:104E38003536000054696E79555342204344430087
:104E480054696E79555342205765625553420000A4
:104E5800090400000A00000000000306B200080070
:104E680001000000A800080002000200A0001400D1
:104E7800030057494E55534200000000000000004F
:104E880000008400040007002A0044006500760042
:104E980069006300650049006E00740065007200D7
:104EA8006600610063006500470055004900440042
:104EB8007300000050007B003900370035004600C1
:104EC80034003400440039002D0030004400300024
:104ED80038002D0034003300460044002D0038000F
:104EE8004200330045002D003100320037004300F6
:104EF80041003800410046004600460039004400A1
:104F08007D00000000000000050F390002181005A0
:104F18000038B60834A909A0478BFDA0768815B6D5
:104F280065000101011C100500DF60DDD88945C757
:104F38004C9CD2659D9E648A9F00000306B20002C5
:104F480000000000090262000301008032080B0023
:104F58000202020000090400000102020004052404
:104F68000020010524010001042402020524060092
:104F7800010705810308001009040100020A000066
:104F880000070502024000000705820240000009F0
:104F980004020002FF0000050705030240000007A5
:104FA800058302400000000012011002EF020140D8
:104FB800FECA114000010102030100004E6F207378
:104FC80070696E6C6F636B732061726520617661C6
:104FD800696C61626C650000486172647761726532
:104FE80020616C61726D20256420616C726561645A
:104FF8007920636C61696D65640000000A2A2A2AB9
:105008002050414E4943202A2A2A0A0048617264E6
:1050180020617373657274006D697373696E6720BC
:10502800646F75626C652066756E6374696F6E0077
:1050380052656C6561736500626F6F74325F7732B9
:105048003571303830000000312E352E3100000027
:1050580061646166727569745F6B62323034300006
:1050680074696E797573625F6465765F776562757A
:1050780073625F73657269616C0000004F6374202E
:10508800313720323032330006005250D3F07542A7
:105098003850001006005250E182887F40500010BE
:1050A80006005250BBFF3CB6585000100D0A0000D5
:1050B800646F75626C65207265736574202D3E207F
:1050C800424F4F5453454C000600525053B4F4A17C
:1050D800B85000100800525012000000556E686168
:1050E8006E646C65642049525120307825780A0036
:1050F80065702025642025732077617320616C72A8
:105108006561647920617661696C61626C65000033
:1051180043616E277420636F6E74696E75652078BD
:10512800666572206F6E20696E61637469766520AA
:105138006570202564202573000000006F757400D9
:10514800696E000096310010E6320010CE32001071
:1051580096310010B032001098320010343200102E
:10516800E2310010D6310010A23500108835001049
:1051780086320010B63500108632001070350010E7
:105188005C350010863200104835001020350010BC
:10519800863200103A3600101E3600101236001003
:1051A8008632001086320010F43500101E360010CA
:1051B80086320010863200108632001086320010C7
:1051C800863200108632001086320010D03500106A
:1051D800013E0010713E00109D3E00107D3F001002
:1051E8006140001000000000C5420010214300107B
:1051F8003D4300102D050010114400100000000070
:10520800905000109C50001088020010A850001008
:1052180094020010A0020010AC020010D050001040
:04522800DC50001046
:10522C00F0B5C646150000B504001E000268EFF389
:10523C00108172B61368002BFCD0BFF35F8F042370
:10524C00E356002B2DDB2268BFF35F8F002010602C
:10525C0081F31088D0221206127852B290469A42EC
:10526C0003D1002080BCB846F0BD00270BE02368BA
:10527C00BFF35F8F1F6081F310882800310000F0AE
:10528C00BFFD0028EDD12268EFF3108172B61368D0
:10529C00002BFCD0BFF35F8F23797F2BE7D94346DC
:1052AC0002E0D0231B061B6823712368BFF35F8FBA
:1052BC0000221A6081F310880120D3E7F0B5C646AE
:1052CC0000B50D00040000F08BFDFA2206000F0063
:1052DC00002328000021920000F0A2FD8023361844
:1052EC004F411B069F4202D30126174F7642D02313
:1052FC001B061B68002598460BE02368BFF35F8FE5
:10530C001D6081F310883000390000F079FD002811
:10531C0018D12268EFF3108172B61368002BFCD001
:10532C00BFF35F8F23797F2BE7D943462371236823
:10533C00BFF35F8F00221A6081F31088012080BCBC
:10534C00B846F0BD0020FAE7FFFFFF7F0268EFF3DD
:10535C00108172B61368002BFCD0BFF35F8FFF2354
:10536C0003710368BFF35F8F00221A6081F310880A
:10537C0040BF70470022154B10B59A60DA601A6175
:10538C005A619A61DA611A625A629A62DA621A6333
:10539C005A639A63DA631A645A649A64DA641A6513
:1053AC005A659A65DA651A665A669A66DA661A67F3
:1053BC005A679A67DA67F03292000021044800F0CD
:1053CC00FFFC044B044A1A6010BDC046000010508C
:1053DC0030150020F418002080011050F0B557460D
:1053EC00DE464E464546E0B5244B87B09F6D002FF8
:1053FC0023D0234B0024994601239846214B0126A8
:10540C009A4604E001347600E4B2202C15D03E42DA
:10541C00F8D04B469E65434665086D00A343ED18D6
:10542C006D015544280000F0C3FB00280CD1013459
:10543C00B743E4B27600002FE7D107B0F0BCBB460F
:10544C00B246A946A046F0BDAB7802A89B46EB8AB3
:10545C00062200210630019300F0B2FCE0235946ED
:10546C0002AADB009380019B117203A80121059312
:10547C0000F0C6FB280000F033FBD8E70000115009
:10548C0000301150F01400209823CB4AF0B5D558B9
:10549C0080232C009B02102685B01C401D427AD024
:1054AC00C64BC74C9A6AC74B00261A603B23E35C79
:1054BC00022B00D1E4E07B23E35C022B00D1BFE1A3
:1054CC00BB23E35C022B00D1AFE1FB23E35C022B9B
:1054DC0000D19FE13C23FF33E35C022B00D15DE163
:1054EC007C23FF33E35C022B00D14AE1BC23FF3366
:1054FC00E35C022B00D137E1FC23FF33E35C022B8E
:10550C0000D124E1B04BE35C022B00D113E1AF4B93
:10551C00E35C022B00D102E1AD4BE35C022B00D12A
:10552C00F1E0AC4BE35C022B00D1E0E0AA4BE35C76
:10553C00022B00D1CFE0A94BE35C022B00D1B0E0F1
:10554C00A74BE35C022B00D185E1A64BE35C022B5D
:10555C0000D19CE1002E08D1A34B1B78002B04D169
:10556C008021A24A90338902D150934B0A229C6C21
:10557C006B460021981D00F023FCC023640501AE8E
:10558C009B00640D3380300002940121802400F0D4
:10559C0037FB974EA402EB0600D56DE080235B022F
:1055AC001D4214D0012223211C43854B5A54DA701E
:1055BC00C023904ADB00019302AB03CA03C3012151
:1055CC0001A800F01DFB8022884B92021A65EB04A7
:1055DC0033D48023DB011D421CD180231B021D42CE
:1055EC0004D1AC4200D0D2E105B0F0BD1C436B46F7
:1055FC000A220021981D00F0E3FBA02301AEDB0082
:10560C0033800121300000F0FBFA8022774B12012D
:10561C001A65E6E71C436B460A220021981D00F030
:10562C00CFFB802301AEDB0033800121300000F082
:10563C00E7FA10226D4B1A65CFE700235E4E01AFDF
:10564C003360FFF797FE6B460A220021981D00F08D
:10565C00B7FB80235B003B800121380000F0D0FABF
:10566C008022624B12031A65F36CDB0300D520E138
:10567C0080235B011C43ACE7FFF7B0FE34008DE7E1
:10568C003833E65C002E00D115E70233E25C002AC9
:10569C0000D110E7200000222030E25400F052FA32
:1056AC0009E7554BE75C002F00D149E70233E25C78
:1056BC00002A00D064E14A4BE35C022B00D1DCE011
:1056CC00484BE35C022B00D04FE74C4BE35C002BC8
:1056DC0000D0E1E049E74A4BE75C002F00D12AE714
:1056EC000233E25C002A00D042E13E0023E7454B46
:1056FC00E75C002F00D119E70233E25C002A00D0EE
:10570C002EE13E0012E7404BE75C002F00D108E78A
:10571C000233E25C002A00D01AE13E0001E73B4B69
:10572C00E75C002F00D1F7E60233E25C002A00D0E0
:10573C0006E13E00F0E6364BE75C002F00D1E6E6D2
:10574C000233E25C002A00D0F2E03E00DFE6F933DF
:10575C00FF33E75C002F00D1D4E60233E25C002A71
:10576C0000D0DCE03E00CDE6B933FF33E75C002F20
:10577C0000D1C1E60233E25C002A00D0C6E03E0054
:10578C00BAE67933FF33E75C002F00D1AEE6023383
:10579C00E25C002A00D0B0E03E00A7E63933FF33CC
:1057AC00E75C002F00D19BE60233E25C002A00D0BC
:1057BC009AE03E0094E6C0460000115000400540BF
:1057CC00F0140020E41400203B0200007B020000D7
:1057DC00BB020000FB0200003B0300007B03000047
:1057EC00BB030000FB030000351A002000301150F1
:1057FC0010000200000010507A030000FA030000B1
:10580C003A030000FA020000BA0200007A0200001B
:10581C003A020000F833E75C002F00D15AE602335D
:10582C00E25C002A58D13E0054E6B833E75C002F06
:10583C0000D14AE60233E25C002A45D13E0044E640
:10584C007833E75C002F00D13AE60233E25C002AA1
:10585C0032D13E0034E6504BE35C002B00D174E6B1
:10586C00EF239B00E25C002A00D129E70022E254DE
:10587C001C3BE01800F066F922E7474BE35C002B79
:10588C00EED1464BE35C022B00D06EE63E00444B5F
:10589C00E35C002B00D15DE6FF239B00E25C002A59
:1058AC0000D162E60022E2541C3BE01800F04AF9F9
:1058BC005BE600F0ADFADBE6200000226030E2543B
:1058CC003E0000F03FF9FBE520000022A030E2543E
:1058DC003E0000F037F9F8E520000022E030E254F9
:1058EC003E0000F02FF9F5E5200000222130FF30BA
:1058FC00E2543E0000F026F9F2E52000002261306F
:10590C00FF30E2543E0000F01DF9EFE520000022CC
:10591C00A130FF30E2543E0000F014F9ECE5200019
:10592C000022E130FF30E2543E0000F00BF9E9E5D3
:10593C000022E2541C3BE01800F004F93E00E6E5BE
:10594C000022E2541C3BE01800F0FCF83E00E3E5BA
:10595C000022E2541C3BE01800F0F4F83E00E0E5B5
:10596C000022E2541C3BE01800F0ECF83E00DDE5B0
:10597C000022E2541C3BE01800F0E4F83E00DAE5AB
:10598C000022E2541C3BE01800F0DCF893E6210006
:10599C000448694000F01CFABA030000FB03000045
:1059AC00FA030000E4500010084A0300126C0020B7
:1059BC00920703D49A78D209012A00D07047D87E76
:1059CC00023843425841C0B2F8E7C04600001150BB
:1059DC0010B5FFF7E9FF00280CD00749074B8C46A0
:1059EC00074A9B6A126863449B1A0020C6229A429B
:1059FC004041C0B210BDC046E0FCFFFF0040054076
:105A0C00E4140020F8B5028B838A04000F00161CE6
:105A1C009A4200D91E1CE27880211500681E85412F
:105A2C00B6B2C90031436D030D4301214A409B1BA3
:105A3C00E27062789BB2A382002A09D0002B02D1BB
:105A4C008023DB011D43002F00D02D042800F8BD5E
:105A5C00E068BB01C0183200216900F0E9F9236944
:105A6C009B19236180231B021D43A38AE6E7C046D2
:105A7C00836870B504001D68002900D02D0C637874
:105A8C00AD05AD0D002B09D1E38AEB18E382238B16
:105A9C00AB4201D90023A382280070BDE3688901C1
:105AAC0059182A00206900F0C3F9E38AEB18E38245
:105ABC0023695B192361EAE710B5040083680021B0
:105ACC001B68FFF7D5FF63681B685B0002D5238B4F
