:020000041000EA
:1000000000B5324B212058609868022188439860DF
:10001000D860186158612E4B002199600221596106
:100020000121F02299502B49196001219960352056
:1000300000F044F80222904214D00621196600F024
:1000400034F8196E01211966002018661A6600F04E
:100050002CF8196E196E196E052000F02FF8012189
:100060000842F9D1002199601B49196000215960AB
:100070001A491B48016001219960EB211966A021F2
:10008000196600F012F800219960164914480160C1
:100090000121996001BC002800D000471248134993
:1000A000086003C880F30888084703B5996A0420EC
:1000B0000142FBD001200142F8D103BD02B5186610
:1000C0001866FFF7F2FF186E186E02BD00000240BE
:1000D000000000180000070000035F00212200005C
:1000E000F4000018222000A00001001008ED00E03C
:1000F00000000000000000000000000074B24E7A12
:1001000000200420F7010010C3010010C5010010F9
:10011000C1010010C1010010C1010010C101001097
:10012000C1010010C1010010C1010010C701001081
:10013000C1010010C1010010C9010010CB01001065
:10014000CD010010CD010010CD010010CD01001037
:10015000CD010010CD010010CD010010CD01001027
:10016000CD010010CD010010CD010010CD01001017
:10017000CD010010CD010010CD010010CD01001007
:10018000CD010010CD010010CD010010CD010010F7
:10019000CD010010CD010010CD010010CD010010E7
:1001A000CD010010CD010010CD010010CD010010D7
:1001B000CD010010CD010010CD010010CD010010C7
:1001C00000BE00BE00BE00BE00BE00BEEFF3058054
:1001D000103800BEF2EB88711C5800104058001017
:1001E0003402001090A31AE700201F49086006C8D7
:1001F00081F3088810471D48006800282FD10DA4FE
:100200000ECC002902D000F012F8F9E71849194A7B
:10021000002000E001C19142FCD1174988471749ED
:1002200088471749884700BEFDE701C901C29A42C5
:10023000FBD3704740580010C0000020A02E0020C3
:1002400020860010000004200000042020860010FA
:10025000001004200010042000000000704709482E
:1002600001F01EFF0047000008ED00E0000000D094
:10027000B02E0020F03B0020191F00105503001085
:100280000D2000105756000006005250ABB36053CB
:10029000D455001006005250861C0302EC55001085
:1002A000060052505422A29D0056001005005250E4
:1002B000DE65F46820860010F8B5C0460448054B9A
:1002C00010B5834203D0044B002B00D0984710BDDB
:1002D000A02E0020A02E00200000000006480749A4
:1002E000091A8B10C90FC91810B5491003D0044B57
:1002F000002B00D0984710BDA02E0020A02E00207B
:100300000000000010B5074C2378002B09D1FFF73F
:10031000D5FF054B002B02D0044800E000BF0123AD
:10032000237010BDD8300020000000007854001069
:10033000054B10B5002B03D00449054800E000BF71
:10034000FFF7CCFF10BDC04600000000DC300020ED
:100350007854001070B590B002F020FC002002F03C
:100360001BFE1E4C1E4E1F4D01200021404202F07C
:1003700089FE01F053F800292BD0FA2200239200C5
:1003800001F0FEFE23683268C01A90421BD39B180E
:100390002878236002F012FC01222B7800205340C1
:1003A0002B7003F029FC0028DED069464022002093
:1003B00003F030FC69460200002003F09FFC00209F
:1003C00003F060FCD0E7002003F016FC0028CBD03F
:1003D000EBE7FA21890001F095FED3E7C83B002046
:1003E000900D0020ED3B0020FA22024B92001A6093
:1003F0007047C046900D0020FA22014B1A607047EA
:10040000900D0020014B024A1A607047900D0020A9
:10041000C4090000FA22024B92001A607047C046DD
:10042000900D00207047C0467047C046F0B5C646E4
:1004300000B588B08C4602A998460B000E4C1700F8
:1004400024CC24C31D000D4C45CC45C32278604606
:100450001A700B4B0722019302F04EF929000C226F
:10046000380002F049F90322404601A902F044F99C
:1004700008B080BCB846F0BD78540010805400101D
:10048000312E3000074B10B51B7804000120002BE3
:1004900000D110BD00233A220221200003F0B8FE53
:1004A0000020F6E7EB3B002010230B60F133FF3315
:1004B00013807047002B01D0002A01D00120704723
:1004C000014B01321A70F9E7EB3B0020180010B520
:1004D0000F2908D8054B49028918C918029A02F059
:1004E0000BF9029810BD01204042FBE7940D00205B
:1004F00001207047080010B519000F2808D8064BD6
:1005000040028018C018029A02F0F6F8029810BD56
:1005100001204042FBE7C046940D002010B50023A7
:100520002022052103F074FE0120404210BDC04688
:10053000004870473055001000487047CC540010F8
:1005400010B5002825D005282ED8184B8000C45897
:10055000200004F001FFC0B2011C1F2814D8C9B24A
:1005600000281FD00023124AE05C01331080D8B26B
:1005700002328142F8D8C0230131C9B249009B0040
:100580000B430C48038010BD1F21C9B20028E9D1DC
:1005900008E0064B02221968054802F0ADF8C123B5
:1005A0009B00EEE7044BECE70020ECE7942D0020E5
:1005B000563200205432002002030000094A10B5D0
:1005C00094464024830063441A68C000624080342B
:1005D00014408022520113431C60034B9C4660442C
:1005E000416010BD04C0014000400140034BC00009
:1005F0009C46604443681F201840704700400140FB
:10060000074B80009C4660440368C90092000A437F
:100610005A400C231A4080235B0103431A60704741
:1006200004C00140074BC0009C46604403680904B5
:100630005940C0239B02194080235B01034319608A
:100640007047C04604400140074BC0009C466044D0
:10065000036809035940C0239B01194080235B01B3
:10066000034319607047C04604400140024B1868BC
:100670008007C00F7047C04600C006408023DB05DE
:100680001868000F7047C04670B5EFF3108C72B653
:100690000D4D2B68002BFCD0BFF35F8F0724CB08D8
:1006A000C618C05C01230C40A3401C000440034258
:1006B00007D118433070BFF35F8F2C608CF3108824
:1006C00070BD100001F0A6FC2C0100D0F8B5474623
:1006D000CE46884680B5EFF3108C72B6214D2C685B
:1006E000002CFCD0BFF35F8F9A422CD8D408072788
:1006F000055D061901241740BC402C421FD007217C
:100700000127894609E0D408055D06194C463900E1
:100710001440A1400C00294211D001329342F2D280
:1007200001204042BFF35F8F00220E4B1A608CF312
:10073000108800280FDBC0BCB946B046F8BD254381
:1007400010003570EEE7BFF35F8F00232B608CF352
:100750001088012040424346002BECD0089801F05D
:1007600059FCC0462C0100D00021044B044ABFF3C1
:100770005F8F02C39342FAD17047C046000100D098
:10078000800100D0044A1078431CDBB2172B00D93B
:10079000102313707047C046AC2D002010B5064BD7
:1007A000064C82B00100009318221F232000FFF79F
:1007B0008DFF02B010BDC0464455001050360020D9
:1007C00001238340002904D0034A1360034A1360C5
:1007D0007047034A1360FBE780E200E000E100E0BD
:1007E00080E100E0024B10309B688000C0587047E9
:1007F00000ED00E070B50D00EFF3108672B60F4A01
:100800001368002BFCD0BFF35F8F0D4B10309B683B
:1008100084001B590B4A934203D09D4201D001F042
:1008200011FC074B9B681D51BFF35F8FBFF35F8FB8
:100830000022024B1A6086F3108870BD240100D09C
:1008400000ED00E0CD010010F0B557464E46DE4603
:100850004546E0B585B0060000911700EFF3108B18
:1008600072B66A4A1368002BFCD0BFF35F8F002575
:10087000674B5D579A46002D00DA8BE06B00654CA4
:1008800001935B199B009846A146C1444B465246D2
:100890009B7910361370604BB6009B6899590B1BFF
:1008A0002F2B33D95D4B994200D0ACE0019B4246DF
:1008B0009C465B4B6544AD0063535A4B0232A21811
:1008C000043B9B1A1B05584A5B0D651913436B804B
:1008D000564B0121AB80FF23AB71009BEF71AB60E6
:1008E0004B460B4319004C4B9B689951BFF35F8FEC
:1008F000BFF35F8F0022454B1A608BF3108805B061
:10090000F0BCBB46B246A946A046F0BD01200A0095
:100910008243D3798C46BB4231D8454613004449C3
:100920001B1B5B415943090D3D4B63533D4B023546
:100930006519043B5B1B1B053B4D5B0D2B43AA4616
:100940004D466B800425AC465546E044131F444495
:100950001B1B1B055B0D1D434B46997100999D8028
:1009600099604946DF71334B01431360BBE7580080
:10097000C01880002018C179B94211D9020006239D
:10098000D356002BF3DA0293131D9A462A4B614685
:10099000039319E001F056FB002553465D576DE7C0
:1009A000908802934005131D9A46031561469C46A4
:1009B0004046D444634604302018181AE02300054A
:1009C000400D1B021843039004235B429C46E14404
:1009D00050464B461B1A1B055B0D9C46124B9571EE
:1009E00098466346404603439380019B5A19920000
:1009F000039BA418A380029B0E4AA371009B226054
:100A0000E771A3606FE701F01DFB4FE7240100D001
:100A1000EC3B0020B02D002000ED00E0CD010010E7
:100A200000A1FFFFE02D002000E0FFFF01BDFFFF60
:100A3000AAAA00000148804701BD0000F0B5DE46CB
:100A400057464E464546E0B50C0083B0EFF310889C
:100A500072B65D4A1368002BFCD0BFF35F8F5B4B0F
:100A60005B499A68030010339F00D5598D4239D0F5
:100A7000A5424AD0574EAA1B2F2A33D801229246AC
:100A8000824091464846544A1268104001904846B8
:100A9000524A1060BFF35F8FEFF305829346002A3E
:100AA00035D0934201D001F0CDFA2A0053469A4343
:100AB0009068844208D175E04B005B189B00F318E6
:100AC0009868A04234D01A00062151560029F3DA62
:100AD000844253D0019B002B26D04A46404B1A60DB
:100AE0003D4B1A60394B9B68DD51BFF35F8FBFF3FD
:100AF0005F8F0022344B1A6088F3108803B0F0BC7B
:100B0000BB46B246A946A046F0BD0D00EAE72A0062
:100B100053469A4390688442D6D10620105613005B
:100B2000002809DA0D0031E04A462C4B1A60D9E75B
:100B300006201856002822DB42001118890074187C
:100B40008A46A1689960E179D97106216156997147
:100B5000002925DBA488F11A6405241554440919D9
:100B6000E0240905490D24022143998013181D4AE8
:100B70009B001178F31899711070ABE71300594678
:100B8000002914D1FF3191711749918015490A78D4
:100B90009A71164A9B1B5B415A43120D0A7099E7E2
:100BA0001349E2E70620105613000028C4DA114A60
:100BB0001149D21A083A5002400D014399800F4959
:100BC00052080A43DA8085E7240100D000ED00E0F6
:100BD000CD010010B02D002000E100E080E100E038
:100BE00080E200E0EC3B002001BDFFFFAAAA00006C
:100BF00001BD0000EA2D002000F0FFFF00F8FFFF1C
:100C000070B5EFF3058101240443EFF3108C72B645
:100C1000214A1368002BFCD0BFF35F8F1F4B0500E8
:100C20001F4AED1A6D416A43120D1E4D8900AE68D0
:100C300052B27658A6421CD00621595691421CD079
:100C400012215956914222D01E215956914220D04C
:100C50002A2159560324914210D0134B19781A7047
:100C60008171BFF35F8F00220B4B1A608CF31088E9
:100C700070BDAB680D4C5C50EFE7002461000919B2
:100C800089005B18FF21997109499980E5E70124E2
:100C9000F4E70224F2E7C046240100D0B02D002082
:100CA000AAAA000000ED00E0EC3B0020CD010010FE
:100CB00001BDFFFF054B064A1360064A13605360EF
:100CC0009360D3601361536193617047808080802B
:100CD00000E400E004E400E0024B9C46614489002B
:100CE000016070474000003410B50400FFF74AFD72
:100CF00001002000FFF7F0FFFF232371BFF35F8F98
:100D000010BDC04610B50400FFF73CFD01002000F7
:100D1000FFF7E2FFFF23A380BFF35F8F10BDC04644
:100D200010B504000120FFF739FD034BC3189B00E9
:100D30002360BFF35F8F10BD4000003483680B4811
:100D400010B58446614462441201090159189B1888
:100D50005C684A680120944201D802D00020C0B2E9
:100D600010BD1A680B689A42F9D8F7E7FFFFFF0F2A
:100D70000A4B1968EFF3108072B60A68002AFCD09B
:100D8000BFF35F8F1B68BFF35F8F00221A6080F391
:100D9000108840BF002000217047C046C43B00209F
:100DA000F8B5574645464E46DE46E0B598460CAB8C
:100DB0001C780DAB1B78070091469A460568002CFD
:100DC0005ED1AC7B002C3BD0660029683619033E0F
:100DD00089194B78AB73002B00D1EB7300238B7018
:100DE0004B700B702D4BE218BB6812019B184A46E2
:100DF0001A6042465A600A9A9A600B9ADA60002397
:100E00008B704B700B706B7B9B46002B2BD02200A2
:100E10005946A8686B6898472A68002816D05B4630
:100E200058465B005B449619033BB070D118D35C05
:100E3000002B00D073705B460C706B735C4513D055
:100E4000F0BCBB46B246A946A046F8BD5B465B0077
:100E50005B44033BD3189C709119925D002A00D02B
:100E60005A705B460B706C734A464346387D00F0FF
:100E700059FB051E0AD10E9B002BE1D01D70DFE748
:100E8000660029683619033E8919ABE75346002BE3
:100E9000F1D12100386800F069FDECE7FFFFFF0F9A
:100EA000F0B5DE4657464E4645460023E0B58BB0CA
:100EB0000893684B8200D45800239B46099000F0A9
:100EC000ADFA02000B006068EFF3108A72B6564666
:100ED00001680029FCD0B246BFF35F8F21684F7BC9
:100EE0008C46002F2ED0A5685B49A94679180901C8
:100EF000894449460868496805000E00AD1A9E41BC
:100F0000002E5FDD02000B00099800F00BFB0023B0
:100F100000229946002306920793002398466368AF
:100F2000BFF35F8F5A461A608AF310884346002B3E
:100F300012D10028C3D10BB0F0BCBB46B246A946C3
:100F4000A046F0BD00230022994600230692079395
:100F5000002300209846E2E7089B494618023843E0
:100F6000C047626805000E00EFF3108A72B613687E
:100F7000002BFCD0BFF35F8F002E41DB2B003343EF
:100F800002D02369002B56D12368D97B002905D0D4
:100F90001A68480041185218033A57709A7B002A81
:100FA00000D19F73DF73E268013FD35D0133D355F6
:100FB0005B4623616368BFF35F8F5A461A608AF30A
:100FC00010887CE7002E02D1002D00D09AE7002186
:100FD000604600F049FC4B461A685B68069207932E
:100FE0004B469B6898464B46DB689946E368DB199D
:100FF000013B1B7808931B020343236100208EE70B
:101000002369002BC0D0069A079B8021521BB34155
:1010100009068B4202D30122104B52420021049157
:101020000131039149460191414620000297009108
:10103000FFF7B6FEBCE700F0F1F92A003300121802
:101040004B41802109068B42E8D30122034B5242D7
:10105000E4E7C046B03A0020FFFFFF0FFFFFFF7F2D
:1010600010B5144C6368002B04D00A211248FFF716
:1010700033FE10BD2300114A1021206800F00AFB46
:10108000032000F0BFF9032000F0B4FA03200C495C
:1010900000F002FAFFF776FB0A4B9C460323237508
:1010A000D0231B061B6860446375074B800060609B
:1010B000DC60DAE7F82D0020C43B00203D0D001075
:1010C000A10E001040000034B03A002000487047E4
:1010D000F82D0020F0B557464E464546DE46E0B5B1
:1010E00085B0019310AB1B780600039300239A464A
:1010F000984600927268EFF3108B72B61368002B5B
:10110000FCD0BFF35F8F3568AC7B002C00D16FE063
:1011100067002B683F19033FDB195A78AA73002A2E
:1011200000D1EA734B4AA118B2680901521800981D
:101130000199106051600E9991600F99D1604246FB
:101140009A705A701A706B7B9946002B00D170E030
:1011500022004946A8686B6898472A6800285BD037
:101160004B4648465B004B44D719033BB870D11837
:10117000D35C002B00D07B704B460C706B734C45DE
:1011800058D0F3681B19013B18787368BFF35F8F61
:1011900042461A608BF310885346002B08D1000298
:1011A000204305B0F0BCBB46B246A946A046F0BD00
:1011B000039B002B4BD00E9B00200F9998470300F8
:1011C00004000D000B4342D000291ADA009A019B5B
:1011D000121BAB410092019380221206934204D36A
:1011E00001231D4C5B4200930194039B9A4681E7C7
:1011F0007368BFF35F8F1C608BF31088012040423F
:10120000CFE700F00BF9802224184D41120600941C
:1012100001959542E9D3E3E74B465B004B44033B22
:10122000D3189C70D119D25D002A00D05A704B4659
:101230000B706C73307D009A019B00F073F982464D
:1012400000289ED02100306800F090FB99E7002034
:10125000A7E7C046FFFFFF0FFFFFFF7FF0B5EFF3EB
:101260000583CE46474680B505000C0085B0002BAF
:101270000DD0324A0020536A9C4203D8926A013052
:10128000AA4232D305B0C0BCB946B046F0BD2C4E20
:10129000029301932B4B0200009330000B00FFF7E9
:1012A00019FF031EE5DD20BF7168EFF3108772B6EA
:1012B0000A68002AFCD0BFF35F8FDAB29446306828
:1012C000427B624516D0FF2201681A4089465100D0
:1012D00088464946904441440339897800290BD116
:1012E0003269934210D131610EE0E31A5A1E9341E4
:1012F000D8B2C7E7FF221A40F1681B0A8A18013AE0
:101300001278DBB29A4214D07368BFF35F8F002269
:101310001A6087F31088094B00205A6A9442B1D8AA
:101320009B6A0130AB42ADD2A41A631E9C41E0B26D
:10133000A8E7614600F01AFBE6E7C046004005401A
:10134000F82D0020710D0010F0B5EFF30582D646A0
:101350004F4646461000C0B51038EFF3108872B6FD
:10136000214C2368002BFCD0BFF35F8F01231900B1
:1013700081401E4D1F006963AA461D4D29601D4D09
:101380002E78AC463500C5402F402B4215D0534631
:101390005F6A194B8500EB589F4218D36246174B82
:1013A0008E43EB581670BFF35F8F0022226088F3E4
:1013B0001088002B06D0984704E0BFF35F8F2760AA
:1013C00088F31088E0BCBA46B146A846F0BD0C4B85
:1013D00092009C46624413681360BFF35F8F002342
:1013E000236088F31088EDE7280100D00040054015
:1013F0003C700540EE3B0020CC3B002038360020FE
:10140000D03F054010B5034B01001800024AFFF71A
:101410003BF910BDEA3B002060550010034B596AB0
:101420000A00986A596A8A42FAD17047004005401A
:1014300070B504000D00174A536A1900966A536A82
:101440008B42FAD13000190024184D41AB4216D816
:1014500013D0104B2A005B6A9D4203D90D494B6A99
:101460009342FCD3934207D10A4A02E0516A99425F
:1014700002D1916AA142F9D370BDA642E9D9054BC8
:101480005B6A1C005A1CEFD0012201246442E5175C
:101490005242E3E70040054070B504000D00EFF351
:1014A000108672B61A4A1368002BFCD0BFF35F8F08
:1014B000002D1BD02000FFF795F9164981420AD074
:1014C0002000FFF797F901212000FFF779F90123A8
:1014D000A340114A1360114BA400E550BFF35F8F86
:1014E00000220B4B1A6086F3108870BD0121A140C9
:1014F0000A4BA200D5500A4B20001A788A430549AE
:101500001A70FFF79BFA00212000FFF759F9E5E771
:10151000280100D0491300103860054038360020FB
:10152000EE3B0020F0B54F46D6464646C0B5070014
:101530002B4C616A0D00A66A616AA942FAD18B42FE
:1015400008D805D00120E0BCBA46B146A846F0BD97
:10155000B242F7D9EFF3108A72B622480168002927
:10156000FCD0BFF35F8F0125BD401F491C4C88464E
:10157000097889462943C9B28C46414660460870BD
:10158000391D890065630A511849B8004350216A22
:101590000020294219D0616A0800A66A616A814266
:1015A000FAD18B4219D801D1B24216D8CC450BD012
:1015B0000B4B1F221D625D6301233A4093400C4A8E
:1015C000136043464A461A700120BFF35F8F002222
:1015D000044B1A608AF31088B5E70020F5E7C0468F
:1015E00000400540280100D0EE3B0020CC3B00200D
:1015F00080E200E0EFF3108C72B60A490B68002B12
:10160000FCD0BFF35F8F01238340074A0748136272
:1016100002789A430270BFF35F8F00230B608CF354
:1016200010887047280100D000400540EE3B0020A4
:1016300070B505000E001400002923D0002A12D036
:1016400080686B689847296800280ED063001B19D2
:101650007200033B9219CB18033A9E7088188A5C7B
:10166000002A11D10470300070BD73009B19620014
:10167000033B1219CB18033A9C7088188A5C002A25
:1016800005D106702000EFE75A700470EBE75A703E
:101690000670F7E730B583600023CCB243730133A3
:1016A000047342608373C4730D000068012C06D973
:1016B000421C0133DBB2137003329C42F9D1FF218B
:1016C00029404B005B18C01800230338437030BD1D
:1016D00070B505000C1E07D0630001681B19033BA1
:1016E000CB185A78002A01D1200070BD5000801814
:1016F0000338091800204E784870210058702800DF
:10170000FFF796FF310004002800FFF7E1FF060015
:10171000002C26D00028E7D021003200A8686B6892
:101720009847296800280ED073009B196200033B7C
:101730001219CB18033A9C7088188A5C002A00D0D2
:101740005A700670D0E763001B197200033B9219B0
:10175000CB18033A9E7088188A5C002A00D05A7011
:1017600004703400C0E7C046F0B557464546DE4633
:101770004E46E0B50D006F0001687F19033F04007D
:10178000C85D83B00192CA19002850D043001B18CD
:10179000033BCB185E78B446002E1AD1019E002E72
:1017A00042D0E67B002E04D073009B19CB18033B7C
:1017B0005D70A37B002B00D1A573E57300282FD1AA
:1017C0000023537003B0F0BCBB46B246A946A04606
:1017D000F0BD72006244033A8A18517888460021AD
:1017E000517089465970320001002000FFF720FF38
:1017F00043468246002B07D05B0021684344033BED
:10180000CB185A78002A16D1424651462000FFF7DD
:101810000FFF2168019BCA19002BC2D10028CFD02D
:1018200043001B18033BCB1800219970C8E7019BAC
:10183000002BB6D1C4E75000801803380918487847
:10184000834648464870587041462000FFF7F0FE36
:10185000594680462000FFF73BFF4146020020002A
:10186000FFF7E6FE8046CFE7F0B557464546DE4631
:101870004E46E0B583B00191457B04006F000068DF
:101880007F19033FC15DC219002952D04B005B187C
:10189000033BC3185E78B446002E1CD1019E002E77
:1018A00044D0E67B002E04D073009B19C318033B81
:1018B0005D70A37B002B00D1A573E573002931D1A6
:1018C000002328005370617303B0F0BCBB46B246DE
:1018D000A946A046F0BD72006244033A82185078CF
:1018E0008046002050708146587032002000FFF77B
:1018F0009FFE43468246002B07D05B00216843448D
:10190000033BCB185A78002A17D142465146200093
:10191000FFF78EFE019B01002068C219002BC0D189
:101920000029CDD04B005B18033BC31800209870F2
:10193000C6E7019B002BB4D1C2E7500080180338E2
:101940000918487883464846487058704146200038
:10195000FFF76EFE594680462000FFF7B9FE41466C
:1019600002002000FFF764FE8046CEE770B5050058
:1019700000292CD0437B8B422ED04C000068641889
:10198000033C0419A278002A21D053009B18033B82
:10199000C25CC6188A4202D11BE0002A08D053005C
:1019A0009B18033BC3185A788A42F6D162785A7062
:1019B000002301222800A3706370FFF7D5FE697B26
:1019C00002002800FFF734FE6873012000E00020C9
:1019D00070BD63783370EBE701221900FFF7C4FE96
:1019E000F2E7C046F8B5CE464746040080B506206B
:1019F0000E0000F01FFA051E51D0524B5249E2185A
:101A000053425A418023DB039C4692054F4B62446C
:101A10001A604F4B1A6010008B689843FBD1494BFA
:101A20004C4AE31859424B4180215B004900062093
:101A3000995200F0FFF93100C00000F063FBC309C8
:101A400032D14022012190466162A362256BEB07EF
:101A500036D427008026E36A00232C3776013E43E4
:101A600033600620256300F0E5F94146800000F070
:101A700049FB236B05009846DB073BD46023E26AF1
:101A80005A400E33134033604346236380231022B1
:101A90009B013B431A60304B23630323A36428005C
:101AA000C0BCB946B046F8BD2C4A93423FD900238A
:101AB0002B492C4A6162A362256B9046EB07C8D57F
:101AC0002200C02330329B011343234A06201A60B0
:101AD000666AA36AB601F61800F0ACF9224900F074
:101AE00011FBB6020100300000F00CFB0021FFF7F3
:101AF0009FFCAEE72200C02330329B011343164AFD
:101B000006201A60636AA26A9B019946914400F01C
:101B100091F94B4614499B02994600F0F3FA0100F3
:101B2000484600F0EFFA0021FFF782FCA6E77F228B
:101B3000990188460240013252081900904413006E
:101B400082E7C0460080FCBF00C0004000E00040CB
:101B500000F00040DC3B002001030000FEFF00001D
:101B6000FFFF0000C0FF3F004E0E000010B50C202C
:101B700082B000F0B5F9FEF779FD002810D08B4B4C
:101B80008B488B498B4A186059609860D9601861FE
:101B900059619861D961186259625A6202B010BDE8
:101BA000854CA06700F0A4F90122844B1A60636C95
:101BB000012BFCD10322824B1A607F4A936B012BCD
:101BC000FCD1013301217F4A7F480093043300F0A8
:101BD00037F905237D4A009301217D4800F030F953
:101BE0007C4B5A68FF2A02D8802252005A60802219
:101BF000734B6E4C12011A602169002907D060698D
:101C000000F080FA013043001B18033BFDD2E022B4
:101C1000704B714819680A400260022219685140ED
:101C200001320A40042102609A681142FCD08021EE
:101C30006A4A09011160802252005A60684B236190
:101C4000684B5968FF2900D85A60032201215B4B79
:101C50001A60644A93681942FCD0E023106803407C
:101C600061480360126803234A40022113405D4A21
:101C7000036093681942FCD080215C4B0901196014
:101C800080215B4B4900516063615A4B5A68FF2ABF
:101C900000D859608022584B12011A60E16900296E
:101CA00007D0606900F02EFA013043001B18033B97
:101CB000FDD2E0234F4A11680B4050490B60802150
:101CC0004F4B090119608021394B49005160E36194
:101CD0004C4B5A68FF2A00D8596080224A4B1201A7
:101CE0001A60216A002907D0606900F00BFA013000
:101CF00043001B18033BFDD2E023424A11680B400E
:101D000042490B608021424B0901196080235B002E
:101D100053608022264BD20223623E4B5968914287
:101D200000D25A6080223C4B12011A60616A00297D
:101D300007D0606900F0E6F9013043001B18033B4F
:101D4000FDD2E023334A11680B4034490B608021F7
:101D5000334B090119608023DB025360154B63622A
:101D6000304B5A68FF2A02D8802252005A608022E3
:101D70002D4B12011A60A169002907D0606900F09B
:101D8000C1F9013043001B18033BFDD2E023254A73
:101D900011680B4025490B608021254B0901196012
:101DA00080235B005360124BA361F7E6B02E002046
:101DB000006CDC021BB70000008000403CB000401B
:101DC00030B00040002F685900800240008C8647E8
:101DD00000C00240308000403090004030A0004001
:101DE000001BB7003C8000403C9000403CA00040FD
:101DF000405973075480004054B000405490004054
:101E000054A000406080004060B0004060900040FE
:101E100060A000406C8000406CB000406C900040BE
:101E20006CA000404880004048B00040489000400E
:101E300048A00040014B8000C0587047B02E0020E1
:101E4000F8B5040021481D0017000E0000F05AF9F3
:101E50000100380000F056F9069B29041B031943C2
:101E60002368002B20DB1A4B1A4DE21853425A41CB
:101E700080235B019C461203174B62441A60174B88
:101E80001A601700AB689F43FBD1C022231D92014B
:101E90001A4321232660A06013602368002BFCDA1C
:101EA0000823E1601360F8BD3F2322681340B3426A
:101EB000D9D1A3681B051B0D8342D4D1EE22E36860
:101EC000D20213408B42CED1EDE7C046001BB700D3
:101ED0000040FDBF00C0004000E0004000F00040B6
:101EE0008023024A9B000343D36270470080054071
:101EF000AA23064A1B0113602133FF33D360044930
:101F0000044B19605368002BFCDA70470040024014
:101F100000B0FA00006002402C4B2D4A70B51A60E8
:101F20002C4A2D4B2D491A6014008B689C43FBD121
:101F30002B4D2C4EB54208D2013E761BB60808CD7B
:101F4000984723000134B342F9D1FFF70FFE264A28
:101F5000214B1A60214A9368DB43DB01DD09002B2A
:101F6000F9D14022214B224C224E9A675A671A67B8
:101F7000DA66B44208D223682000002B20D008344F
:101F8000FEF7C0FEB442F6D31B4C1C4EC022B16813
:101F9000200000F0B1FBB460FEF7E6FBFEF78AFE1E
:101FA000FFF75EF8164C174EB44208D2013E361BBE
:101FB000B60808CC98472B0001359E42F9D170BD78
:101FC0000834FEF791FEB442D5D3DDE700E00040CF
:101FD000BFCDFBFEFE7F3C0000F0004000C0004093
:101FE000882E0020982E0020FFFFFF0100F0014006
:101FF000802E0020882E00200000002000ED00E050
:10200000982E0020A02E002000BEFDE710B5FFF79F
:10201000FBFFC0460FB400B5084883B000F01CFCBD
:10202000049B002B07D005A91800019100F018F8B7
:10203000034800F011FC0120FFF7E6FF8455001073
:102040009455001010B50148FFF7E4FF98550010B3
:1020500010B5002800D110BD00F0B2FBFBE7C04670
:1020600010B5094A0300146884B0002C08D001227E
:1020700000910648524203A9A047012004B010BDB8
:1020800000F0EAFB0020F9E7A43A002051200010FC
:1020900001480421014B1847202E0020C1200010C8
:1020A000142310B50100188804331B88984710BD0D
:1020B000162310B50100188802331B88984710BDFD
:1020C000F8B54746CE4680B50F1E19D01423994661
:1020D000043304000025012698464B4618884346E1
:1020E00021681B88984701C4431E9841013540422E
:1020F0000640AF42F1D13000C0BCB946B046F8BD91
:102100000126F8E7114A936F9B0813D210665166B7
:10211000002905D0FFE7FFE7FFE7516F106F704719
:1021200004B5002801D00020C04303F065F9002168
:1021300004BDC046F0B5146E556E576F166FFFF7AD
:10214000E5FF1466556657671667F0BD000000D0BE
:1021500094464A4A926F9208624601D228E0C046ED
:10216000F0B5464E346E756E776F366F00F020F81E
:102170009446424A14665566576716676246F0BD34
:1021800094463E4A926F9208624601D254E0C0469D
:10219000F0B53A4E346E756E776F366F00F04CF8CE
:1021A0009446364A14665566576716676246F0BD10
:1021B000002B24DB11D000293EDA00B5C943404290
:1021C00000D1013100F038F8C943404200D101315B
:1021D000DB43524200D1013300BD002AEBD100287D
:1021E00001D1002905D00020C90FC90701D1C04382
:1021F000410800B503F0F0F80022002300BD00B54F
:1022000000290ADBDB43524200D1013300F014F80D
:10221000C943404200D1013100BDC943404200D111
:102220000131DB43524200D1013300F005F8DB43BA
:10223000524200D1013300BD002923D1002B18D117
:10224000002A0CD0BC460D4F38667A660021002368
:10225000FFE7FFE7FFE77A6F386F674670470028B0
:1022600001D00748010000B503F0B6F800220023B2
:1022700000BD02000B00002000217047000000D0CC
:10228000FFFFFFFF002B00D0BFE0130C28D1002A76
:10229000E7D080B4114F39667A66FFE7FFE730B4C4
:1022A000040C7B6F396F1B0423433B667A66FFE7A0
:1022B000FFE7FFE7C04684B27B6F3D6F1B042343FB
:1022C0003B667A66FFE7FFE7C04600232C042D0C2F
:1022D0007A6F386F00196941B0BC7047000000D0B8
:1022E000F0B594460025140E01D112020835140FE2
:1022F00001D112010435940F01D192000235D40F9F
:1023000001D152000135D40B0134254F7C66254C98
:102310003C660E0C93B2FFE7FFE7FFE73C6F6643B6
:10232000360C7703BE467343DF0B5B04C01AB9411A
:10233000130C7343DB18C91ACE086643360CB64437
:1023400093B273431F0F1B01C01AB941130C73439F
:102350001F0B1B05C01AB941860D8F023E43664311
:10236000360C092D24DB520A7243801A7703460A81
:102370006643360C16235B1BDE40DF40BF19644604
:102380006643821B7046043506330100D940A840DD
:10239000C01900D30131A24206D20023F0BD0000D3
:1023A000000000D0FFFFFFFF121B0130F3D3F1E765
:1023B00009277F1BFE406446A2B27243801A00D2F6
:1023C0000139220C7243130C1204821A99410B003A
:1023D0007046043513370100F940A840801900D336
:1023E0000131002B02D1A2420AD2F0BD013000D34C
:1023F0000131121BFAD2013BF8D1A24200D2F0BD4A
:10240000013000D30131121BF7E7F0B51C0C00D0EE
:1024100080E00CB400251C0A04D11B02160E3343C5
:10242000120208351C0B04D11B01160F3343120195
:1024300004359C0B04D19B00960F33439200023568
:10244000DC0B02D192185B4101351C0097186441E6
:102450000134464F7C66464C3C660E0CFFE7FFE7B6
:10246000FFE7C0463C6F6643360C7703BE4697B223
:102470007743C01B00D20139C01B00D201399FB283
:102480007743C91BC91B170C77437E04FF0B801BC6
:10249000B941CE086643360C0C2D33DBB644120B23
:1024A0001F053A431B0B97B27743C01B00D201397B
:1024B0009FB27743C91B170C77433E043F0C801B28
:1024C000B941860D8F023E43664329277F1BFE409C
:1024D0000C3D7746AF40BF1930BCA2B2ABB27243DD
:1024E0007343801A9941220C7243130C1204801A10
:1024F000994102000B000137001BA941F9D2781E57
:102500000021F0BD0C277F1BFE4077467F0BAF40BC
:10251000FF19E0E700245D1C07D0144F7D66396683
:10252000FFE7FFE7FFE7FFE73C6F95B29EB2654329
:102530006643401BB141150C1E0C654366433604CF
:102540002F0C3E432D04401BB141994204D202009E
:102550000B0020000021F0BD01D19042F7D3801A7A
:10256000994101349942F2D3F6E70000000000D00F
:10257000FFFFFFFF10B50148FFF74CFDA455001009
:10258000132370B51D78012D15D010DD1B48FFF702
:102590008FFD1B4C01008022200000F0ADF8022DC1
:1025A00006D01848FFF77CFD174B186070BD144C1F
:1025B000164BA364F5E7164B114C23606360A360D0
:1025C000E36023616361A361E36123626362A362E9
:1025D000E36223636363A363E36323646364A364C9
:1025E000E36423656365A365E36523666366A366A9
:1025F000E36623676367A367E367D9E75344000093
:10260000D82F00204C330000C03A002015260010BF
:102610007525001007B5604601880A0A0230DF2AD6
:10262000FAD1C9B2820804D302884088000410435A
:1026300000E00068014A5050039007BDD82F0020E9
:1026400051434343C9188C46110C83B24B4310B419
:10265000040C614392B280B2504362431C041B0CD1
:10266000001910BC59411304120CC01851416144A7
:102670007047000010B50148FFF7CCFCAC540010C7
:10268000132310B510481C78FFF712FD0100012C30
:102690000AD003DD80220D4800F02EF80C48FFF729
:1026A000FFFC0C4B186010BD084C5422200000F0B9
:1026B00023F82200084980322368002B00D12160D2
:1026C00004349442F8D1E9E753460000C43A0020AC
:1026D0004C330000C03A0020752600100148042148
:1026E000014B1847302E0020C1200010014B1B6801
:1026F00018470000302E0020014B5B68184700008F
:10270000302E0020F0B546464F46D646C0B5437D34
:1027100080460E001700002B4BD0002A32DD274BDD
:1027200001259A464B1E00240020994607E0335DA0
:102730000A2B2CD02B0001340135BB4213DA002CBC
:10274000F5D133780A2BF5D143461B7D002BF1D10F
:102750004346504602211B68984728002B0001344D
:102760000135BB42EBDB874204DD4346391A1B6867
:1027700030189847F619013E33780D3B5A425341C1
:1027800042461375E0BCBA46B146A846F0BD4B467A
:102790001B5D0D2BCED0A042DADA4346211A1B680E
:1027A000301898474346504602211B689847280036
:1027B000D4E70368110030009847E3E73056001073
:1027C000F0B5CE46474680B583B06B460600DD1DAA
:1027D0002870FEF723FE00231A4A12184B4180216D
:1027E00009068B4202D30122174B524217490800B7
:1027F000884602F019FE164B81461C68002C14D046
:10280000144F02E02469002C0FD02368002BF9D06C
:102810003B68002B01D0A342F4D120000122290003
:10282000FFF770FF2469002CEFD14B46002B05D138
:10283000300003B0C0BCB946B046F0BD404602F01F
:10284000C3FDF5E740420F00FFFFFF7F802E002011
:10285000943600209C360020F0B5DE4657464E46A2
:102860004546E0B585B0070002F076FD0600FEF7AC
:10287000D5FD00232B4A12184B41802109068B42BB
:1028800002D30122284B5242284908008B4602F00D
:10289000CBFD274B01901C689A46002C3BD0254B62
:1028A000984602ABDD1D0A23994602E02469002CFC
:1028B00017D02368002BF9D043461B68002B01D0AA
:1028C000A342F3D1200032003900FFF71BFF4B4633
:1028D0002000012229002B70FFF714FF2469002C2F
:1028E000E7D1019B002B18D153461C68002C06D061
:1028F0006368002B0BD098472469002CF8D1300076
:1029000005B0F0BCBB46B246A946A046F0BD24695E
:10291000002CEDD1F3E70028F1D0584602F054FD29
:10292000E2E7C04640420F00FFFFFF7F802E0020FD
:10293000943600209C3600200A4A1368002B05D1EB
:102940000CE01A001B691032002B07D09842F8D116
:10295000002902D103691360016170470029FCD08E
:102960001060FAE794360020F0B5002915DD0E4B13
:102970000D271A680D4B0E4CD3185D426B4145185C
:1029800020215B001E5F0478A64207D0936919429C
:10299000FCD101301460A842F5D1F0BD9369194211
:1029A000FCD11760F2E7C046E43B00200080FCBF8A
:1029B000DC3B002030B504000D1E30DD002010216E
:1029C000204B013C1A689369194217D10130936971
:1029D0001942FCD1136823548542F4D11A4B1B6869
:1029E000002B09D0502338219363536B34321940A4
:1029F00080235B011343196028000FE0124B1B6812
:102A0000002B09D0502338219363536B3432194083
:102A100080235B011A431160002810D030BD0A4B9F
:102A20001B68002B0BD050223821064B1B689A6381
:102A30005A6B343311408022520113431960032032
:102A40004042EBE7E43B002048360020064B10B53F
:102A50001B68002B06D00021044A12689163044AC7
:102A60001068984710BDC04648360020E43B00205F
:102A70004C3600201D4BF0B51A68C64698461C4BD4
:102A80000E00D31859424B411A4F14331C00050055
:102A900000B53B68002807D0002B11D0164B3D60D5
:102AA0001E6080BCB846F0BD002BF7D090630021BB
:102AB0002000FDF785FE20001049FDF7BFFFEDE780
:102AC00020000E49FDF796FE01212000FDF778FE5B
:102AD0004346502238211B689A635A6B34331140A5
:102AE0008022520113431960D8E7C046E43B00201E
:102AF0000080FCBF483600204C3600204D2A0010D4
:102B000070B50C4E0D001C003060002A03DB022162
:102B10001000FDF753FD002C03DB02212000FDF720
:102B20004DFD29003068FEF75DFF01210248FFF7E7
:102B300003FF70BDE43B0020402E002010B5114C77
:102B4000114B22689A4210D1104B62689A420CD104
:102B50000F4BA2689A4208D100230E482360FFF76A
:102B60009FFA0021030000209847074B00212360B3
:102B7000064B09486360064BA360FEF759FC00232F
:102B8000236010BDA02E0020DE8116F0299B72BDAF
:102B90007ABE59D355420000400D0300E12110B523
:102BA000044B05480022186049020123FFF7A8FFE3
:102BB00010BDC046E03B0020004003407047C046C7
:102BC00010B501210520FDF7FBFD10BD10B5002259
:102BD0000021024800F05AF910BDC046C43600205A
:102BE0008022024B5202DA647047C0460020115026
:102BF000F0B5C64600B5060000F022F90C231B4DC7
:102C0000FF22AB6705201A49FDF71EFE40239846B8
:102C1000184C402200212000FFF768FD43460127A1
:102C2000238321210023144A6770A2601360635438
:102C30005F31618441462187053963540F4A104949
:102C40006360E260A1620B606362E26202F0B4FB67
:102C500080239B052F64EB6490230A4A3000EA50DE
:102C6000FFF7BEFF80BCB846F0BDC0460000115063
:102C700029030020A43600208400105000011050C9
:102C80008000105010D001000B785B0602D14B7809
:102C9000052B00D070478A78014B1A60FAE7C046CE
:102CA00000001150F0B5C64600B5CC7888780A7996
:102CB0004B797F21A40701401B02C50913434F0034
:102CC000A20F1400324E7A195201B21890700120EE
:102CD0006840507000205B055B0DD0701383D47684
:102CE0008046CA00012D33D02A48844688016244B8
:102CF0008446B4446046826040461060002933D068
:102D0000254AC90090466246414451603F223F3304
:102D10009343022C00D15B0020487A1901685201CC
:102D2000B218D1601E4ACB18036051405A4080232C
:102D300088465B019A4228D84346A4061C43802358
:102D40007F197F01F61972681B062343136011E097
:102D500014488446880162448446B44460468262D2
:102D600040461060002909D100236D0175196B6080
:102D70000D4BEB60012080BCB846F0BD084AC9008D
:102D80009046624641445162C0E7FFF75BF9D3E7E2
:102D9000A43600208400105004001050A83A0020EF
:102DA00000001050800010500001105010B502F0CB
:102DB00003FB10BD10B57F200C0020404000E4094B
:102DC000110000191A00034B4001C01800F05EF812
:102DD000012010BDA43600207F23180010B5084044
:102DE0000B420BD0C90980224000074B401840011C
:102DF0000021C018120102F027FB10BD0223034A74
:102E0000C9095B1A9366EEE7A43600200020115032
:102E10007F22130010B50B400A4200D110BDC90932
:102E20005B005B1804485B01C018002300220349C3
:102E3000C37002F009FBF1E7A4360020FFF7FFFFA3
:102E400080220D4B520410B51A600C4B0C491A60CD
:102E500010008B689843FBD10A4C9C220021200073
:102E6000FFF744FC8022002152010748FFF73EFC97
:102E70000923636710BDC04600E0004000F0004039
:102E800000C000400000115000001050002310B599
:102E9000C3820133828283760161040002F0DCFA8E
:102EA000002804D080219023074A8902D1502000B5
:102EB00002F09AFA002802D00123237710BD2000E7
:102EC00002F0BAFAFAE7C0460020115070B5204A65
:102ED000204E050000243378002A26D0A3422DD8A6
:102EE000E31ADBB2012B00D970BD5A00D3181A4A7D
:102EF000DB009B185B682800984733780134E4B204
:102F00005A1CA242EADA154C532200212000FFF796
:102F1000EDFB1022FF21E01CFFF7E8FB2000202240
:102F2000FF211330FFF7E2FBDEE700F03BFF280054
:102F300001F084F93378002BD6D1E4E7084B620026
:102F40001B681219D2009B18002BD3D1CCE7C046C6
:102F500000000000E83B0020545700101C35002002
:102F6000F4300020024B5878431E9841C0B270479D
:102F70001C350020024B18784007C00F7047C04630
:102F80001C350020034B1878FF38431E9841C0B20F
:102F90007047C0467C2E0020F0B5C64600B52F4EC7
:102FA00004003378FF2B01D001202AE053220021B6
:102FB0002B48FFF79BFB2B4D2800FDF795FE2A4B76
:102FC0001D602A4D2800143DFDF7AAFE280002F0DE
:102FD00093F8274B274F1D60274B9846002B29D08D
:102FE000380000E000BF254B18603B7842460025C2
:102FF000002A2AD0AB421FD8EB1ADBB2012B03D92F
:10300000002080BCB846F0BD5A00D3181C4ADB0033
:103010009B181B6898473B780135EDB25A1CAA42B1
:10302000E8DA20003470FFF7E3FD2000FFF7C8FD69
:103030000120E6E73B78D9E7104B6A001B6852197C
:10304000D2009B18002BE4D1DAE700F073FE01F008
:10305000EBF83B78002BD3D1E3E7C0467C2E002071
:103060001C350020D434002070350020742E002040
:1030700074350020E83B002000000000F430002000
:1030800054570010F0B5DE4657464E464546E0B56B
:103090008DB001F069FD00284DD0C24BC24E0093A7
:1030A000C24B09AC019335686A69EFF3108172B6BF
:1030B0001368002BFCD0BFF35F8FA96128002100AB
:1030C00001F05CFE6A69AB69BFF35F8F002111609C
:1030D00083F3108800282ED06378082BE3D8009A59
:1030E0009B00D3589F466368002BDCD0A0689847AC
:1030F000D9E77F222179AD4B0A405500C8095B19F9
:103100001B18180001273030C578BD43C570C5783D
:103110000337BD43C570002A00D180E0A44ADB7CA0
:10312000002A06D0A34A1278934200D2D7E09B1A15
:10313000DBB2012B68D90DB0F0BCBB46B246A94644
:10314000A046F0BD0122994D01212B7804201343A4
:103150002B703323EA5C27788A43EA54EA5C824383
:10316000EA540133EA5C8A43EA54EA5C8243002071
:10317000EA5400F0B3FC602223791A40602A0AD096
:10318000402A52D0DB06DB0E012B00D1B0E0022B2F
:1031900065D0002B57D020780021FFF71DFE80213D
:1031A0002078FFF719FE7EE7019B1B78DB0700D430
:1031B00079E7814B002B00D175E7FDF72BF972E71A
:1031C000019A1378DB0700D46DE77C4B002B00D10C
:1031D00069E710780007C00FFDF714F963E720785E
:1031E000FFF774FE00F070FC754B002B00D15AE71E
:1031F000FDF702F957E72078FFF768FE00F064FC5E
:103200006A4B22799A704EE75D00ED186D4BED0028
:10321000ED18A368627920782D69A84743E7A36871
:103220006279207800F06EFC3DE767480028B2D054
:1032300000F054FC012138000AAA00E000BF002879
:1032400000D030E7A7E7202A00D18AE0002AA2D1E7
:103250006379092B9FD85D4A9B00D3589F46702302
:10326000217A0B4297D1C80982460F330B405B008D
:10327000E8185044C07C029384464D48002808D08A
:103280004C480078844500D2C1E06346181AC3B2A6
:103290009C466046012800D89CE0002A00D07AE7CE
:1032A000002398466379994602234A469B469A43EF
:1032B000012A00D152E14B46002B00D06BE7029B64
:1032C00008AAEB1853443033DB7802329B07DB0F3C
:1032D0001380380002230AA900F0A0FBE3E63C4A71
:1032E00058001568C318DB00ED18002D91D122E7B6
:1032F000237A0F2B00D94EE72D4AEB18DB78002AF2
:1033000005D02C4A1278934278D39B1ADBB2012B5A
:1033100000D940E75D00ED182A4BED00ED18E86894
:1033200000F0DCFB01213800EB680AAA984700286E
:1033300000D0B8E66022150023791D401A4200D063
:1033400029E763790A3B012B00D924E700F0C6FB8B
:1033500063790A2B00D15BE138000AA900F048FB31
:10336000A1E6237A0F2B00D915E7114AEB18DB7879
:10337000002A06D00F4A1278934200D214E19B1A19
:10338000DBB2012B00D906E75D00ED180D4BED0017
:10339000ED18E86800F0A2FB01213800EB680AAAEA
:1033A00098474CE7C8560010743500201C350020A3
:1033B00000000000E83B0020150400100504001088
:1033C000F90300105457001000000000EC560010E4
:1033D000F4300020D34B400098466044C000804445
:1033E000002A00D15EE74346D86800F077FB4346E9
:1033F00001213800DB680AAA984720E7CA4A590029
:103400001568CB18DB00ED18002D88D1C3E66346A4
:103410005B009846C4446346DB009C46C248006893
:1034200060448046002A00D13CE70028DBD1B2E6A8
:10343000A3799A466B789A4507D06B78002B00D019
:103440003CE15346002B00D0EBE0534638000AA97C
:103450006B7000F0CDFA26E66B7808AA0232137082
:10346000380001230AA900F0D9FA1CE6E3881A0AF9
:10347000D8B20F2A00D98EE6AC499300CB589F46AC
:103480000AA800F031FB3800A179FFF79FFB022268
:103490002B7813432B7006E6E388012B00D07AE6E5
:1034A00008222B78380093430AA92B7000F0A0FA69
:1034B000F9E50220297808AB9A1C8B068908DB0FF6
:1034C00001400B4304E7E388012B00D063E60822A8
:1034D0002B78380013430AA92B7000F089FAE2E533
:1034E000934B002B00D156E600E000BF021E00D136
:1034F00051E6D37891781B020B4338000AA900F0FB
:103500008DFA9CE68B4B002B00D144E600E000BF17
:10351000021E00D13FE6380013780AA900F07EFAB7
:103520008DE62189FDF70CF8021EF4D133E6022A5C
:1035300000D1CEE0804B002B00D12CE600E000BF94
:103540000200002A00D126E6D3E7FCF7F1FF1223A0
:1035500002000AA9380000F061FA70E6E288002A49
:103560000CD14B46012B29D030229146029BEB18FF
:10357000534499444B46DB789B0739D54346002B8F
:1035800000D190E5D86800F0A9FA43460121DB6834
:103590000AAA38009847002000F0A0FA3423EB5C18
:1035A000DB0700D57FE5D7E65F4A59001568CB18E1
:1035B000DB00ED18002D00D0EBE6ECE5029B30328D
:1035C000EB18534492469A445346DB789B07D5D573
:1035D0005A4B1878FFF71CFC53465A46DB78934346
:1035E0005246D370D3784A4693435246D370C5E7C8
:1035F000524B1878FFF7F0FB4B460222DB7813435F
:103600004A46D370D378012213434A46D370B5E7B4
:1036100008AB9A1C380001230AA9157000F0FEF9C6
:1036200041E5581EC0B2FCF787FF002800D1B2E583
:1036300043780693022B00D0ADE50121C279B34651
:10364000931152110B400A4012015B0113432A7877
:103650002F318A4313432B7009239946C37882780C
:103660001B021343C3188144049353464E46AA4693
:10367000B9460793049BB3422FD901227378029273
:103680000B2B03D1F37802933378F6187378042B5D
:1036900012D10027049B2A4A9B1B9BB29846294BB8
:1036A000039705931B78BA4200D17EE09F4273D303
:1036B000FB1ADBB2012B1CD95E466CE53800FFF724
:1036C00075FBAB7838009846FFF700FC4346AB70BB
:1036D000B7E6FCF731FF020033E7079B55469A46F1
:1036E000194B4F465E46002B00D1AEE6FCF77CFE40
:1036F000ABE618255D430B4BED18424631004846BA
:10370000AB689847082802D9434683421ED2059BDE
:1037100001371B78FFB25A1C0397BA42C6DA5E46DD
:1037200039E5C04654570010F430002014570010FB
:103730000000000000000000000000007C2E0020BF
:1037400000000000E83B0020E9030010A846050047
:10375000029B012B49D00022504609E0B378D318D0
:10376000DBB2C318D978FF29A6D10132DF70D2B2FB
:10377000029B9A42F2D13B002A00310082461F4848
:1037800001F078FA059B039A1B787619013393426E
:1037900000DB6FE75E46FEE41823194A7B43156899
:1037A000ED18002DA9D15E46F5E4424631004846A9
:1037B00000F00EFB0500082802D94346834211D2CF
:1037C000474631003A00484600F042FD050008280F
:1037D00000D871E7874200D26EE70127094B0397B3
:1037E0009846B5E7084B9846B2E74246074B9268C1
:1037F0009A42B0D1069B0293ADE7C0462F35002018
:10380000F43000206C57001054570010D13D0010C8
:10381000F8B557464E46DE4645460C00E0B5160064
:103820001F00002A3CD01F4B00259A467023994662
:103830001D4B9B4617E05B462000997801F0DCF9B0
:1038400000281FD021004046FFF72CFA002819D08D
:10385000A378DA09012A1CD00A9A0135137023785B
:10386000E418B5421CDA6378052B0BD1E3789B078B
:103870009B0FBB4206D153464A461B789846A37815
:103880001A42D8D00020F0BCBB46B246A946A0469A
:10389000F8BD0B9A013513702378E418B542E2DBCA
:1038A0000120F0E77C2E00201C350020702270B52E
:1038B000094B0C001D788B781A4201D0002070BD96
:1038C000064B2000997801F097F90028F6D02100E6
:1038D0002800FFF7E7F9F2E77C2E00201C350020D6
:1038E0000B007F2010B51840DB0933334000044A39
:1038F000C018044B1168C01801F03AF910BDC04659
:10390000703500201C3500200B007F2010B51840BA
:10391000DB0933334000044AC018044B1168C01857
:1039200001F04EF910BDC046703500201C35002056
:1039300070B57F240F480C4064000419CD09641948
:103940003034E078C00701D5002070BD0126E5784D
:10395000094835430078E570FFF72CFA0028F4D1C8
:103960000122E3789343E370E37803329343E370F7
:10397000EAE7C0461C3500207C2E00207F22054B44
:103980000A405200C9099B185B183033D878C00729
:10399000C00F70471C3500207F2210B50B4B0A402A
:1039A00052009C18C80924183034E3789B0700D5CE
:1039B00010BD074B1878FFF70FFA0222E378134384
:1039C0000122E370E3781343E370F1E71C35002034
:1039D0007C2E00207F22054B0A405200C9099B180B
:1039E0005B183033D8788007C00F70471C35002033
:1039F00070B5094C0600082220000D00FEF77CFE81
:103A000000238021E360A3602B78300099430022DB
:103A10000023FFF78DFF70BD40320020F8B5CE4681
:103A200047469046264E80B58146082230000D005C
:103A30001F00FEF761FE4346B3600023F381EC797B
:103A4000AB7924021C43231CBC4200D93B1C9FB20F
:103A5000B381002C0ED0002F18D04346002B2CD061
:103A60003B1C402F1BD89FB233787F2B1CD80021E2
:103A7000144A0FE080212B78002299434846002306
:103A8000FFF756FFC0BCB946B046F8BD7F23002201
:103A9000317899433B004846FFF74AFFF2E740235D
:103AA0009FB233787F2BE2D9064C3A004146200082
:103AB000FEF722FE80212200ECE70020E2E7C0466C
:103AC00040320020DC34002010B5142200210248CE
:103AD000FEF70CFE10BDC04640320020014B1861BD
:103AE0007047C0464032002010B5054C0100082246
:103AF0002000FEF701FE0023A360E36010BDC04676
:103B00004032002070B5394C1D0023780600DA09D8
:103B1000C9098A4213D00020002D00D070BD344B5B
:103B2000002B03D021003000FFF7AEF82369002BF3
:103B300003D022000321300098470120EEE77F2BBD
:103B400006D8A068002834D02A002A49FEF7D4FD00
:103B5000E289A1685219E38892B24919E281A16011
:103B6000934214D03F2D12D9A389981A051C80B214
:103B700040282AD82078ADB27F2828D800219A4240
:103B800032D01C4A2B003000FFF7D2FEC6E7236973
:103B9000002B05D0220002213000984700280AD0CF
:103BA000802123780022994330000023FFF7C0FED4
:103BB000B4E70020B2E700213000FFF70DF9300034
:103BC0008021FFF709F90120A8E74025D2E79A42B2
:103BD00007D0084C2A002000FEF78EFD802122002D
:103BE000D0E780210022CDE70022CBE74032002041
:103BF000892C0010DC340020830010B51B18DB007A
:103C00001818034BC000C01801F084F810BDC0465E
:103C100008310020F0B584002418E4002418E400E2
:103C20002600C646164F1036F61900B5300092B27F
:103C300001F0F2F80500300001F08AF83F2803D8BF
:103C4000280080BCB846F0BD3B190020D9789846C2
:103C5000FFF746FE0028F3D0300001F079F83F2846
:103C600008D94346C834D978E21940230020FFF729
:103C70005FFEE5E743460020D978FFF745FEDFE722
:103C8000F8300020F8B50500FFF76CF9002801D1E5
:103C90000020F8BDFFF76EF90028F9D1AC006419D7
:103CA000E4006419E4002500134E2435AD19280002
:103CB00001F030F80028EBD037190020B978FFF771
:103CC0000FFE0028E4D00934FF34A4192100280095
:103CD000402201F0A1F8B978051E08D003002200A7
:103CE0000020FFF725FE0028D2D02800D1E70020D1
:103CF000FFF70AFECCE7C046F830002070B584001C
:103D00002418E4000A4B2418E400E418050092B2D9
:103D1000200001F039F90600200000F0FBFF3F28E9
:103D200001D8300070BD2800FFF7ACFFF9E7C046AE
:103D30001C310020A42270B5184C82B00021200054
:103D40005200FEF7D3FCFF236371154B0025E3807F
:103D500001260823210020002681237340223831C8
:103D60000095073B103000F09FFF009621002000D7
:103D70002600012340227831B836243000F094FF29
:103D80003000FCF7B1FF26622600C0363000E56146
:103D9000FCF7AAFF2663656302B070BDF83000200F
:103DA00000C2FFFF10B5094C052200212000FEF7DC
:103DB0009DFC20002434103001F09EF9200001F019
:103DC0009BF90121200001F0B7F910BDF830002067
:103DD000F0B54B79060083B0022B02D18B79022B10
:103DE00003D00025280003B0F0BD2E4FBB78002B78
:103DF000F7D18B7809253B700C780C196378242B4C
:103E00000BD1082A02D81FE0AA421DD32378E41858
:103E10005D196378ADB2242BF6D0052B2FD0042B7F
:103E200012D163790A2B0FD11F4B277801930133ED
:103E30000093022202233000E119FFF7E9FC002879
:103E4000CFD00E35ED19ADB2184C200000F080FF38
:103E50003F28C7D92600103E0020F178FFF740FD2B
:103E60000028BFD0200000F073FF3F2815D92200A2
:103E70004023F178B8320020FFF75AFDB2E7210065
:103E80003000FFF713FD0028ABD0A3787B702378B8
:103E90005D19E4186378ADB2C1E7F1780020FFF74F
:103EA00033FD9FE7F8300020FA3000200831002071
:103EB000F8B5602314001278050013400020202B71
:103EC00012D12F4A6379277916781B023B439E4211
:103ED0000AD16378222B27D007D8202B17D0212B8B
:103EE00002D101293DD00120F8BD232BFCD10129AD
:103EF0003FD00329F7D1234B002BF4D0E178A378EE
:103F000009020020194300E000BF0120ECE701296D
:103F100027D00329E7D11C4B002BE4D00020911DB2
:103F200000E000BF0120DFE7012922D00329DAD118
:103F300001252E00A378E478023924021C43147171
:103F4000264024321000714001F0F6F80F4B002B90
:103F5000C9D06208002031002A40FCF763FA012032
:103F6000C2E7072321002800094AFFF757FD012077
:103F7000BAE721002800FFF73BFD0120B4E7C04667
:103F8000F8300020000000000000000025040010B0
:103F9000FE300020F8B545465746DE464E46E0B5B1
:103FA000454D1F00EA7880460C00AB788A4246D027
:103FB00000208B421AD0F0BCBB46B246A946A046B0
:103FC000F8BD3E4B002B04D0484600F0B9FE002857
:103FD0006AD0484600F0BCFE3F2807D94E46103E46
:103FE0000020F178FFF77CFC002850D1AB78A34289
:103FF00001D00120DFE7324B002B02D0002000E08F
:1040000000BF0020FFF73EFE0028F2D12D4C20001B
:1040100000F080FE0028ECD1002FEAD0BF06E8D1E6
:10402000243C4046A178FFF75BFC0028E1D0002348
:1040300000224046A178FFF77BFC0120BBE710235C
:104040002E009B46C836AB4431005846BAB200F049
:104050009BFF1D4BD946002BB3D06B79FF2BB0D003
:10406000002FAED0F219924603E00136B245A8D037
:104070006B7932789A42F8D1484600F061FE002808
:10408000F3D14B46103B597900E000BFEDE74846BD
:1040900000F05EFE3F280AD94A464023F178B83244
:1040A0000020FFF745FCA1E7FCF7BEF991E7F178A6
:1040B0000020FFF729FC99E7F830002029040010C0
:1040C000000000001C310020000000002C2270B510
:1040D000302402250F4B995499689A6B1D558A1A02
:1040E0009A620C341C5D002C03D10B4D9D873E253C
:1040F0005C55002908D0002A06D01A7BD20904D0CA
:104100002E22995CFFF748FC70BD2F22995CFFF7C7
:1041100043FCF9E79434002005200000F0B5474641
:10412000CE4680B5374C0600A368E18A984687B032
:10413000002906D049BA89B21800FDF7E3FF01044F
:10414000090C2369257D1B0A2D061D43A36B2DBA7F
:1041500018009946FDF7D6FF43460A0041194D461F
:104160005B1B8025284F607BAD00AB4200D92B0044
:1041700000933B00FCF7AAF9051E20DB00280BD0BA
:104180002E2283B2A15C30003A00FFF7D1FB07B0CA
:10419000C0BCB946B046F0BD0E202E230622002139
:1041A0006844E75CFEF7A2FA072303AC0021200075
:1041B000267063702771059501F02EF9E7E7134B20
:1041C0000022A3873E2330210220E254123B013219
:1041D000E254A268A36B6054D31AA362002AD6D01B
:1041E000002BD4D0237BDB0905D02E233000E15CEB
:1041F000FFF7D2FBCBE72F233000E15CFFF7CCFBCE
:10420000C5E7C0469434002094320020023A0000F2
:1042100010B53C24034801553D2142543E228354AD
:10422000012010BD9434002010B540220021024826
:10423000FEF75CFA10BDC0469434002010B5402251
:1042400000210248FEF752FA10BDC0469434002007
:1042500030B54B79040083B0082B02D18B79062B43
:1042600002D0002003B030BDCB79502BF9D1162AF3
:10427000F7D98A780E4D233BEA540B780222C918ED
:104280002B002E3301932B002F3300930223FFF7D3
:10429000BFFA0028E5D030230022EA54013BE95C54
:1042A0002A002000103BFFF743FB1720DAE7C04647
:1042B0009434002070B50500140082B0012926D185
:1042C0007F2312781340022B24D060231340202B2D
:1042D00001D000201CE06378FE2B4AD0FF2BF8D1E0
:1042E000E378A2781B021343F3D1E379A2791B028E
:1042F0001343EED13021394A28005354002153632F
:10430000936393873E33D1542100FFF771FB012063
:1043100002B070BD6378012BD7D1E378A2781B027D
:104320001343D6D1302221792C4CA35C042B52D0DC
:104330002E20205C88423ED02F22A65C8E42E6D101
:10434000002BE4D131002800FFF718FB0028DED154
:1043500031002800FFF73EFB0028D8D1302300228F
:10436000E254013BE15C22002800103BFFF7E0FA39
:10437000CEE7E378A2781B021343AAD1E379A279AE
:104380001B021343012BA4D16A46D371144B002B9B
:104390000FD000E000BF00289BD00138C0B26B46B0
:1043A0006A46D8712100012328000732FFF736FB47
:1043B000ADE70020F3E7022BA9D1A16BA3685B1A3C
:1043C000A3620323A35422000100203228000A33F1
:1043D000FFF7AEFA9CE7FFF7DFFA98E79434002086
:1043E00000000000F0B5454657464E46DE46E0B5B3
:1043F0001F003023B24C0500E65C984691B0012EB8
:104400000ED0032E5FD0002E1BD0022E00D187E0ED
:10441000012011B0F0BCBB46B246A946A046F0BD93
:10442000E37B282B72D02A2B00D1B9E0A36B227B2F
:10443000FB18A363D20900D1A3E0626B9342E7D3D8
:104440006BE0013BE35C8B42E2D11F2F00D084E0A4
:104450009C4B22689A4200D07FE09B4B42462362ED
:104460006368A66263622C23E6542B3BA354E27B71
:10447000A368A6636363282A00D1D4E02A2A00D166
:1044800094E2002B00D113E1207BC00900D00FE1A2
:1044900080229200934200D8F2E2A3623023D53A00
:1044A000FF3A0130A0542A3AE2540C33E35C002B6B
:1044B00003D1864AA2873E22A3542800FFF76CFA54
:1044C0003023E65CA1E72E23E35C8B42A0D10D2FC5
:1044D0009ED1E37B282B00D160E22A2B00D155E24C
:1044E0007B4B002B04D02100607B0F3100E000BF2C
:1044F00000233026A3552F33E15C22002800103B17
:10450000FFF716FA002835D0A65D7EE7A36B626B35
:10451000FB18A363934200D280E030230222E254CE
:104520002E262800A15DFFF755FA002800D06FE77E
:10453000A368A26B934202D9217BC9091CD19B1AA3
:10454000A36203223023E2542200023BE15C2800F4
:104550002032213BFFF7ECF95BE730230422E254E1
:10456000023BE15C2800FFF717FA2F232800E15CEB
:10457000FFF712FA00204CE72800A15DFFF70CFAC4
:1045800046E72100A38E534A607B0F31FBF7C6FF3D
:10459000002800DADBE1A26B636B9A4290D3BCE7A0
:1045A000E38A002B00D1D0E15BBA99B2A068FDF795
:1045B000A9FD0104090C2369267D1B0AA06B3606A0
:1045C0001E43FDF79FFD36BA424B0A008119607BFE
:1045D00000979846FBF78EFF002800DAFDE187423E
:1045E00046D93F1A002800D01EE22F23E35C162094
:1045F000984602AB9C46062200216044FEF776F8FE
:10460000072307AE737043463570337130000021C5
:10461000099700F001FF3023E65CF6E6FFF77EFD28
:104620004346E65CF1E6E28A002B00D17EE1207B86
:10463000C00900D144E2002A00D017E201202C2258
:10464000A05402200432A054A3620C32A25C002ABF
:104650000BD11E4A0020A2873E22A054002B00D17D
:104660005EE7237BDB0900D127E72E23E15C24E70B
:10467000A36B626BFB18A363934200D34DE7164A0A
:10468000002A06D0607BFBF733FF002800D119E237
:10469000A36BA268D31A80229200934200D9130020
:1046A0002F222800A15C9BB24246FFF741F907E7A1
:1046B000667B252A14D8094992008A589746C04635
:1046C0009434002055534243555342530520000073
:1046D0000000000094320020F10400108457001004
:1046E0003C22A25C002A3ED1D54A90464246300088
:1046F000D4499BB2FBF712FF002834DB00286CD1B1
:10470000A368002B00D108E72C220121A154A26B41
:1047100001319B1A3022A362A1540C32A25C002A00
:1047200003D1C949A1873E216254002B00D1F7E68D
:10473000237BDB0999D12F23E15CBEE606AF3A006B
:10474000300007A9FBF7B0FE079B3A88002B02D088
:10475000002A00D0F9E13C23E35C002B03D1BB4AE3
:10476000A2873E22A3542C23012230210220E254AE
:10477000A268A36B6054D31AA3620C31615C002958
:1047800003D1B148A0873E202154002A00D1C7E6BA
:10479000CBE707AF0C2200213800FDF7A7FF02AAE4
:1047A00094460E2363441A00300006A99846FBF78E
:1047B0007BFE069A002ACED043461B88002BCAD027
:1047C000082112BAF970089202225BBA7B819C4BD5
:1047D0003A72984607CF07C30C20A368002B00D07D
:1047E00058E101222C33E254A36B01325B42A362F5
:1047F0003023E2540C33E35C002B00D090E6924A65
:10480000A2873E22A3548BE6914B002B00D177E781
:10481000E17C30008B07CA07DB0FD20F0909FBF7D9
:1048200049FE002800D06BE73C23E35C002B9AD1C3
:10483000864B0022A3873E23E25494E7854B012058
:10484000002B02D03000FBF753FE7D4B032298462D
:1048500001234340DBB2DB051343424604201360CF
:10486000BBE77D4B082207931F23202109A808934B
:10487000FDF73CFF102220210BA8FDF737FF774BF7
:10488000300009A90F930BAA0FABFBF7CFFD6C4BC0
:1048900007AF1A0043CF43C243CF43C2984643CF2A
:1048A00043C2242099E70F23984642462D33E35C08
:1048B00007AF1A403D23E35C93469A463E23994650
:1048C000E35C1222002138000393FDF70FFFF02371
:1048D0005A463B7043461340BB700A235246FB7155
:1048E000039B3A737B73564B984607CF07C33A68CE
:1048F0001A60BA889A805A4B002B00D114E18022AA
:1049000041469200300000E000BF00234A46A387E2
:10491000A354984200DBF1E6667B636BE6E6300069
:10492000FBF7B0FD002800D0EAE67DE7002A00D1C1
:10493000F3E502222C20225404302254A3623A329E
:10494000A25C002A00D0EBE583E6002133E62C23AD
:104950000220E6544646A368A26BA055991AA162AC
:104960003A30205C002803D1374EA6873E26A0555A
:10497000002B54D0002952D0237BDB0900D199E0D1
:104980002E232800E15CFFF707F804E6354B002BE7
:1049900000D1ADE5607B00E000BFA9E5324B002B04
:1049A00000D1A5E5607B00E000BFA1E5E28A002B15
:1049B000BCD0207BC00900D0ADE0002A00D08CE044
:1049C00001202C22A05402200432A054A3620C32F5
:1049D000A25C002A00D13CE66FE51C4A0021A287B8
:1049E0003E223026A154A36B123A0131A154A26891
:1049F000FB18A3630131D31AA362A155002A00D189
:104A00008EE5002B00D18BE5237BDB0900D184E010
:104A10002E232800E15CFEF7BFFFA65DF5E4636B83
:104A2000934200D879E57BE50100A36B0204120CE8
:104A30009B1840463A004144A36300F015FDD4E5BD
:104A400094320020A334002005200000023A000028
:104A5000B5040010F1040010008002022020202084
:104A600000000000000000000000000052BA92B2F6
:104A700093425ED32800FFF751FB3023E65CC4E489
:104A80002800364A9BB2FEF753FF002800D017E5F6
:104A90000020BEE4984200D918002E226063A15C79
:104AA00083B242462800FEF743FF002800D007E506
:104AB0000020AEE42F232800E15CFEF76DFF6AE5DD
:104AC00002307EE7264B0121A3873E23E0542800D5
:104AD000FFF7FCFA3023E65C97E452BA92B29342B5
:104AE00027D3204A002A09D0607BFBF701FD00286C
:104AF000E8D0A26BA3689B1A2F22A15C80229200AF
:104B0000934200D913009BB22800144AFEF710FF0D
:104B10003023E65C79E4022091E52F232800E15C54
:104B2000FEF73AFFA65D70E44A461220A387A3541D
:104B300053E602222C20225404302254A3623A323B
:104B4000A25C002A00D08CE583E50449013B1BBA36
:104B500012BA884608200B604A603EE69432002074
:104B600007270000F104001010B5FEF70BFA10BD86
:104B7000037870B5DB0704000E00DD0F002B17D1A2
:104B800003785B0701D5280070BD01213000494240
:104B900000F03AFC2378DB07DD0F002B0AD12378E5
:104BA0005B0708D40422237801251343237002E015
:104BB0000025E8E70025300000F006FCE3E7C046EA
:104BC00070B50C00012106004942200000F01CFCD9
:104BD00033785B07DD0F002B04DB200000F0F4FBD3
:104BE000280070BD3378DB0704D404223378934364
:104BF0003370F2E70025F0E7437902791B02134393
:104C00005B055A0DC3789B079B0F022B05D0032B26
:104C100015D00020012B08D0704702291ED000209B
:104C2000402393424041C0B2F6E702394B4259411A
:104C30000D4B9C46614491424041C0B2ECE70239C1
:104C40004B1E9941094B494219408023DB009C4689
:104C50000020614491424041C0B2DDE7044BD018CE
:104C600043425841C0B2D7E7FF03000040FCFFFFBA
:104C700000FEFFFF8A1870B5914207D27F264C785C
:104C8000052C04D00C7809198A42F8D870BD34007C
:104C90008D782C4064000419ED0963550C780919CE
:104CA0008A42ECD8F2E7C046F0B5C64600B504002B
:104CB00006A805788020884617001E000002824260
:104CC00026D8E068002803D00121494200F09CFB6F
:104CD0002069002803D00121494200F095FB43469A
:104CE000236073045B0CED031D430023E0686381C4
:104CF000A780E5802381002801D000F065FB2069B2
:104D0000002801D000F060FB012080BCB846F0BD57
:104D10000020FAE710B5048941898288A3B288B2DD
:104D20008C4207D31B1A9BB2101C9A4200D9181C44
:104D300080B210BD5100091A5B189BB2F4E7C0465F
:104D400003894089181A43425841C0B27047C0468F
:104D500010B5048941898288A3B288B28C4207D3F6
:104D60001B1A9BB200209A4201D9D21A90B210BDF0
:104D70005100091A5B189BB2F4E7C04670B50400F5
:104D800000690E00002803D00121494200F03CFBDD
:104D900025896089A288A9B283B285422BD3CD1A16
:104DA000ADB2002D2DD0AA4208D291422FD3891A3C
:104DB0008BB263819A4203D89B1A9BB29A42FBD969
:104DC000E28821685204520C53433000C918FDF7A1
:104DD00093FC63890125591C89B2A2888B4212D9A0
:104DE0005200891A89B220696181002801D000F03F
:104DF000EBFA280070BD5500ED1A4D19ADB2002D2B
:104E0000D1D1618989B252009142ECDBE9E789187E
:104E10008BB26381CEE7C046F0B546464F46D646D4
:104E2000C0B50600006989469046002803D00121DC
:104E3000494200F0E9FA31897289B5888BB294B29F
:104E4000914254D31F1BBFB2002F4AD0BD4205D29E
:104E5000AB4251D25B199CB22F0074814346B845D6
:104E60003DD89FB2A54203D8641BA4B2A542FBD98A
:104E7000F28831685204520C904662432B1B9BB25D
:104E8000891842469F4225D953439BB21A0048468F
:104E90009A46FDF731FC434648467D1B64195C4346
:104EA00031685044A2B2FDF727FC7189B588CB194F
:104EB0009BB26A00994216D99B1A9BB230697381E2
:104EC000002801D000F080FA3800E0BCBA46B146B4
:104ED000A846F0BD48467A43FDF70EFCE5E73B1CCB
:104EE000BFE773899BB26A009342E7DBE4E76F0098
:104EF0003F1BDF19BFB2A7E75B1B9CB2ACE7C04604
:104F0000F8B50400C0680E00002803D00121494212
:104F100000F07AFA258920896189A288ADB283B22E
:104F20008FB2884228D3DB1B9BB29A4209D8E7791B
:104F3000FF0906D1E068002801D000F045FA3800EA
:104F4000F8BD2B00954203D39B1A9BB29342FBD230
:104F5000E28820685204520C53433100C018FDF718
:104F6000CBFBA2886B1C9BB252009D4209D99B1AB5
:104F70009BB201272381DDE75100C91B5B189BB25F
:104F8000D3E79342F5DBF2E7F0B54546DE465746F8
:104F90004E46E0B588460500140083B0002A6FD065
:104FA000C068002803D00121494200F02DFA2E8963
:104FB000EB796A89B6B292B2DB0940D1AB889642EE
:104FC00067D259008A1AB21892B20027934230D998
:104FD0009A1A171C92B2A24200D9271CEA88BFB2C3
:104FE0005204520C9146F21992B29246FA1A92B2B7
:104FF00093463400B34203D8E41AA4B29C42FBD2D5
:105000004A46624328681B1B9BB280184A46BB4233
:1050100053D341467A43FDF76FFBAB885B00B24543
:1050200001D39A4503DB5246D31A9BB29A465346A4
:105030002B81E868002824D000F0C6F921E0AF8871
:10504000BC4229D296424AD3B31A9BB279001B19AB
:105050008B4208DBD3199BB21E1BB6B29A46B242F2
:1050600042D9761AB6B2EB885B045B0C9946A31959
:105070009BB29A46E31B9BB29B463B002700B8E7D6
:105080000027380003B0F0BCBB46B246A946A04694
:10509000F0BDB21A92B298E7002FCAD0EB88E41B99
:1050A0005B045B0C5C4399461600D31900229BB24B
:1050B0009A4693463B00A0449BE7534399B20A00AB
:1050C00001915C444146FDF717FB22004B465A43D1
:1050D0000199286892B24144FDF70EFB9DE77900E3
:1050E0008B1AF3189BB2B2E7B142BADDEB885B04CE
:1050F0005B0C9946BEE7C04610B50400C0680028A6
:1051000003D00121494200F07FF92069002803D033
:105110000121494200F078F90023E068638123818E
:10512000002801D000F050F92069002801D000F0DB
:105130004BF9012010BDC04670B50400C0680D00D9
:10514000002803D00121494200F05EF920690028BF
:1051500003D00121494200F057F97F21E379ED01A5
:105160001940E0682943E171002801D000F02CF9D2
:105170002069002801D000F027F9012070BDC04649
:1051800080210A4A4902136D0B42FCD00923536760
:105190000422074B00201A60064B00211A68064BB8
:1051A000DA67064B1A68064B1A6470470000115004
:1051B00080301150A036002000400140AC3A002061
:1051C00000C0014070B5102084B0FBF70FFA08282A
:1051D00062D0334B334DDB6F334C2B60334B0122AA
:1051E0001B6C01210F202360FBF70AFA02210F201C
:1051F000FBF72AFA2E4B03211A6808235A4017336B
:1052000013402C4A0F201360FBF70CFA02220421F2
:10521000294BDA677E329950284B743A5A671B6DD6
:105220001B079B0F012B34D1FBF750FF0600FCF747
:10523000F5F8FA220023920012184B41802109064A
:105240008B4202D301221E4B5242012102910021C6
:1052500001911C4930000091FBF73CFF002801DB65
:1052600004B070BDFA2000218000FCF7E1F8802135
:10527000124A4902136D0B42FCD0092353670422E2
:10528000114B1A602A68064BDA672268074B1A64CA
:10529000E6E7FCF7D7FEC7E7FCF7D4FE99E7C04680
:1052A00000400140A0360020AC3A002000C0014080
:1052B0007C4001407C500140002011500000115002
:1052C000FFFFFF7F8151001080301150074B10B558
:1052D0001B6D1B079B0F03D1FA200021800010BD1E
:1052E000FFF770FF00200021F9E7C04600001150D1
:1052F00010B584B0FBF7C2F9012801D004B010BD8D
:10530000FBF7E4FE0400FCF789F8FA220023920080
:1053100012184B41802109068B4202D301220B4B0C
:10532000524201210291002101910949200000917E
:10533000FBF7D0FE0028E1DA032206490B6D9B083B
:105340001A42FBD0FFF73EFFD8E7C046FFFFFF7FC2
:10535000CD5200100000115010B583070AD0030091
:10536000032102E001330B4205D01A78002AF9D15B
:10537000181A10BD030019680C4A0D4C8A188A438C
:1053800022420FD15968094A04338A188A432242BB
:1053900008D15968054A04338A188A432242F1D059
:1053A00000E001331A78002AFBD1E1E7FFFEFEFEA0
:1053B00080808080F8B5C04601B40248844601BCB4
:1053C000604700BF1502002001B40248844601BCBA
:1053D000604700BFED01002001B40248844601BCD3
:1053E000604700BF5D0C002001B40248844601BC48
:1053F000604700BF7108002001B40248844601BC28
:10540000604700BF5D0C002001B40248844601BC27
:10541000604700BF5D01002001B40248844601BC22
:10542000604700BFA10A002001B40248844601BCC5
:10543000604700BFC100002001B40248844601BC9F
:10544000604700BFE509002001B40248844601BC62
:10545000604700BF8D09002001B40248844601BCAA
:10546000604700BF4908002001B40248844601BCDF
:08547000604700BF610C002041
:1054780054696E79555342004D6173732053746FAC
:10548800726167650000000054696E7955534220C7
:105498004465766963650000313233343536373810
:1054A800393031320000000054696E79555342207A
:1054B8004344430054696E79555342204D53430089
:1054C80009040000090262000301008032080B0091
:1054D800020202000009040000010202000405247F
:1054E800002001052401000104240202052406000D
:1054F800010705810308001009040100020A0000E1
:10550800000705020240000007058202400000096A
:1055180004020002080650050705030240000007C0
:10552800058302400000000012010002EF02014062
:10553800FECA034000010102030100004E6F207300
:1055480070696E6C6F636B73206172652061766140
:10555800696C61626C6500004861726477617265AC
:1055680020616C61726D20256420616C72656164D4
:105578007920636C61696D65640000000A2A2A2A33
:105588002050414E4943202A2A2A0A000A000000D6
:105598004861726420617373657274006D69737316
:1055A800696E6720646F75626C652066756E6374DA
:1055B800696F6E0052656C6561736500626F6F7428
:1055C800325F77323571303830000000312E352E99
:1055D8003100000061646166727569745F6B6232E4
:1055E8003034300074696E797573625F6465765F14
:1055F8006364635F6D7363004F63742031372032D7
:105608003032330006005250D3F07542BC550010BA
:1056180006005250E182887FC4550010060052509F
:10562800BBFF3CB6DC5500100D0A0000646F7562C4
:105638006C65207265736574202D3E20424F4F546F
:1056480053454C000600525053B4F4A13456001090
:105658000800525012000000556E68616E646C6557
:10566800642049525120307825780A006570202539
:10567800642025732077617320616C726561647999
:1056880020617661696C61626C65000043616E2718
:105698007420636F6E74696E756520786665722014
:1056A8006F6E20696E616374697665206570202568
:1056B80064202573000000006F757400696E000097
:1056C800A6300010F6310010DE310010A6300010B0
:1056D800C0310010A831001044310010F230001021
:1056E800E6300010B23400109834001096310010E3
:1056F800C634001096310010803400106C3400104D
:1057080096310010583400103034001096310010D3
:105718004A3500102E350010223500109631001041
:1057280096310010043500102E3500109631001007
:105738009631001096310010963100109631001005
:105748009631001096310010E0340010353D0010FD
:10575800A53D0010D13D0010B13E0010953F00104E
:1057680000000000294200103D4200105142001084
:10577800B5420010E5430010000000001E4900106B
:10578800E0460010E0460010A6480010E046001071
:10579800E0460010E0460010E0460010E046001029
:1057A800E0460010E0460010E0460010E046001019
:1057B800E0460010E0460010E0460010E046001009
:1057C800E046001062480010E0460010E046001075
:1057D800E0460010E0460010E0460010E0460010E9
:1057E800E04600103C48001008480010E046001051
:1057F800E0460010E0460010E0460010E0460010C9
:10580800E0460010E046001092470010E046001005
:045818003C470010F9
:10581C000C56001018560010880200102456001068
:10582C0094020010A0020010AC0200104C560010A4
:04583C0058560010AA
:10584000F0B5C646150000B504001E000268EFF36F
:10585000108172B61368002BFCD0BFF35F8F042356
:10586000E356002B2DDB2268BFF35F8F0020106012
:1058700081F31088D0221206127852B290469A42D2
:1058800003D1002080BCB846F0BD00270BE02368A0
:10589000BFF35F8F1F6081F310882800310000F094
:1058A00027FE0028EDD12268EFF3108172B613684D
:1058B000002BFCD0BFF35F8F23797F2BE7D94346C2
:1058C00002E0D0231B061B6823712368BFF35F8FA0
:1058D00000221A6081F310880120D3E7F0B5C64694
:1058E00000B50D00040000F0DBFDFA2206000F00F9
:1058F000002328000021920000F0CAFD8023361802
:105900004F411B069F4202D30126174F7642D023F8
:105910001B061B68002598460BE02368BFF35F8FCA
:105920001D6081F310883000390000F0E1FD00288F
:1059300018D12268EFF3108172B61368002BFCD0E7
:10594000BFF35F8F23797F2BE7D943462371236809
:10595000BFF35F8F00221A6081F31088012080BCA2
:10596000B846F0BD0020FAE7FFFFFF7F0268EFF3C3
:10597000108172B61368002BFCD0BFF35F8FFF233A
:1059800003710368BFF35F8F00221A6081F31088F0
:1059900040BF70470022154B10B59A60DA601A615B
:1059A0005A619A61DA611A625A629A62DA621A6319
:1059B0005A639A63DA631A645A649A64DA641A65F9
:1059C0005A659A65DA651A665A669A66DA661A67D9
:1059D0005A679A67DA67F03292000021044800F0B3
:1059E00077FD044B044A1A6010BDC04600001050F9
:1059F000E4360020A83A002080011050F0B5574648
:105A0000DE464E464546E0B5244B87B09F6D002FDD
:105A100023D0234B0024994601239846214B01268D
:105A20009A4604E001347600E4B2202C15D03E42C0
:105A3000F8D04B469E65434665086D00A343ED18BC
:105A40006D015544280000F0C3FB00280CD101343F
:105A5000B743E4B27600002FE7D107B0F0BCBB46F5
:105A6000B246A946A046F0BDAB7802A89B46EB8A99
:105A7000062200210630019300F02AFDE02359465A
:105A800002AADB009380019B117203A801210593F8
:105A900000F0C6FB280000F033FBD8E700001150EF
:105AA00000301150A43600209823CB4AF0B5D558C9
:105AB00080232C009B02102685B01C401D427AD00A
:105AC000C64BC74C9A6AC74B00261A603B23E35C5F
