:020000041000EA
:1000000000B5324B212058609868022188439860DF
:10001000D860186158612E4B002199600221596106
:100020000121F02299502B49196001219960352056
:1000300000F044F80222904214D00621196600F024
:1000400034F8196E01211966002018661A6600F04E
:100050002CF8196E196E196E052000F02FF8012189
:100060000842F9D1002199601B49196000215960AB
:100070001A491B48016001219960EB211966A021F2
:10008000196600F012F800219960164914480160C1
:100090000121996001BC002800D000471248134993
:1000A000086003C880F30888084703B5996A0420EC
:1000B0000142FBD001200142F8D103BD02B5186610
:1000C0001866FFF7F2FF186E186E02BD00000240BE
:1000D000000000180000070000035F00212200005C
:1000E000F4000018222000A00001001008ED00E03C
:1000F00000000000000000000000000074B24E7A12
:1001000000200420F7010010C3010010C5010010F9
:10011000C1010010C1010010C1010010C101001097
:10012000C1010010C1010010C1010010C701001081
:10013000C1010010C1010010C9010010CB01001065
:10014000CD010010CD010010CD010010CD01001037
:10015000CD010010CD010010CD010010CD01001027
:10016000CD010010CD010010CD010010CD01001017
:10017000CD010010CD010010CD010010CD01001007
:10018000CD010010CD010010CD010010CD010010F7
:10019000CD010010CD010010CD010010CD010010E7
:1001A000CD010010CD010010CD010010CD010010D7
:1001B000CD010010CD010010CD010010CD010010C7
:1001C00000BE00BE00BE00BE00BE00BEEFF3058054
:1001D000103800BEF2EB8871244000104840001037
:1001E0003402001090A31AE700201F49086006C8D7
:1001F00081F3088810471D48006800282FD10DA4FE
:100200000ECC002902D000F012F8F9E71849194A7B
:10021000002000E001C19142FCD1174988471749ED
:1002200088471749884700BEFDE701C901C29A42C5
:10023000FBD3704748400010C0000020B00D0020E4
:10024000384D00100000042000000420384D00103C
:10025000001004200010042000000000704709482E
:1002600001F090FE0047000008ED00E0000000D023
:10027000C00D002078170020FD1D00105503001050
:10028000F11E00105756000006005250ABB36053E9
:10029000883E001006005250861C0302A03E00104B
:1002A000060052505422A29DB83E00100500525044
:1002B000DE65F468384D0010F8B5C0460448054BBB
:1002C00010B5834203D0044B002B00D0984710BDDB
:1002D000B00D0020B00D00200000000006480749C6
:1002E000091A8B10C90FC91810B5491003D0044B57
:1002F000002B00D0984710BDB00D0020B00D00209D
:100300000000000010B5074C2378002B09D1FFF73F
:10031000D5FF054B002B02D0044800E000BF0123AD
:10032000237010BDE80F002000000000903D001079
:10033000054B10B5002B03D00449054800E000BF71
:10034000FFF7CCFF10BDC04600000000EC0F0020FE
:10035000903D0010F0B5C64600B502F091FB0020BC
:1003600002F0ACFC144D154F154E01200021404207
:1003700002F010FD00F0C4FF3B682C68984600298D
:1003800011D0FA220023920001F06CFE001B804580
:10039000EBD8307844442C6002F082FB01223378A1
:1003A00053403370E1E7FA21890001F01DFE001B84
:1003B0004045DAD3EDE7C04650170020980C0020E6
:1003C00074170020FA22024B92001A607047C04650
:1003D000980C0020FA22014B1A607047980C0020FC
:1003E000014B024A1A607047980C0020C4090000B3
:1003F000FA22024B92001A607047C046980C002007
:100400006422014B1A607047980C00200048704726
:10041000E43D001000487047C83D001070B500284A
:1004200025D0042831D81A4B8000C458200003F08E
:100430002FFCE02303420FD0D0261F25B600002357
:10044000002214480133A25CDBB2590042521A0068
:10045000AB42F7D3068070BD1F331D000540034239
:1004600010D0C0266B1C5B00B6001E43E7E70A48AD
:10047000C1260400064B0222196802F0AFF8B6004C
:10048000A01EE7E7054E0348E4E70020E3E7C04687
:100490009C0C00201C1000201E10002002030000F5
:1004A000094A10B594464024830063441A68C0008A
:1004B0006240803414408022520113431C60034B7D
:1004C0009C466044416010BD04C0014000400140B2
:1004D000034BC0009C46604443681F20184070478F
:1004E00000400140074B80009C4660440368C900FF
:1004F00092000A435A400C231A4080235B010343B5
:100500001A60704704C00140074BC0009C4660441D
:10051000036809045940C0239B02194080235B01F2
:10052000034319607047C04604400140074BC000B8
:100530009C466044036809035940C0239B0119404D
:1005400080235B01034319607047C04604400140AB
:10055000024B18688007C00F7047C04600C00640B5
:100560008023DB051868000F7047C04670B5EFF3B5
:10057000108C72B60D4D2B68002BFCD0BFF35F8F33
:100580000724CB08C618C05C01230C40A3401C0004
:100590000440034207D118433070BFF35F8F2C60D3
:1005A0008CF3108870BD100001F0A6FC2C0100D067
:1005B000F8B54746CE46884680B5EFF3108C72B644
:1005C000214D2C68002CFCD0BFF35F8F9A422CD8B1
:1005D000D4080727055D061901241740BC402C42AA
:1005E0001FD007210127894609E0D408055D0619B7
:1005F0004C4639001440A1400C00294211D0013270
:100600009342F2D201204042BFF35F8F00220E4B93
:100610001A608CF3108800280FDBC0BCB946B046C6
:10062000F8BD254310003570EEE7BFF35F8F002360
:100630002B608CF31088012040424346002BECD005
:10064000089801F059FCC0462C0100D00021044B51
:10065000044ABFF35F8F02C39342FAD17047C0468A
:10066000000100D0800100D0044A1078431CDBB2A6
:10067000172B00D9102313707047C046B00C002010
:1006800010B5064B064C82B00100009318221F23C0
:100690002000FFF78DFF02B010BDC046F83D0010EE
:1006A000D811002001238340002904D0034A13609D
:1006B000034A13607047034A1360FBE780E200E0DF
:1006C00000E100E080E100E0024B10309B68800018
:1006D000C058704700ED00E070B50D00EFF31086D4
:1006E00072B60F4A1368002BFCD0BFF35F8F0D4B1F
:1006F00010309B6884001B590B4A934203D09D42E3
:1007000001D001F011FC074B9B681D51BFF35F8FB7
:10071000BFF35F8F0022024B1A6086F3108870BD12
:10072000240100D000ED00E0CD010010F0B55746E7
:100730004E46DE464546E0B585B0060000911700FE
:10074000EFF3108B72B66A4A1368002BFCD0BFF32C
:100750005F8F0025674B5D579A46002D00DA8BE0CE
:100760006B00654C01935B199B009846A146C14400
:100770004B4652469B7910361370604BB6009B680F
:1007800099590B1B2F2B33D95D4B994200D0ACE00C
:10079000019B42469C465B4B6544AD0063535A4BFC
:1007A0000232A218043B9B1A1B05584A5B0D6519BF
:1007B00013436B80564B0121AB80FF23AB71009B31
:1007C000EF71AB604B460B4319004C4B9B68995142
:1007D000BFF35F8FBFF35F8F0022454B1A608BF32F
:1007E000108805B0F0BCBB46B246A946A046F0BD95
:1007F00001200A008243D3798C46BB4231D845465A
:10080000130044491B1B5B415943090D3D4B635386
:100810003D4B02356519043B5B1B1B053B4D5B0DD6
:100820002B43AA464D466B800425AC465546E04412
:10083000131F44441B1B1B055B0D1D434B46997145
:1008400000999D8099604946DF71334B01431360E5
:10085000BBE75800C01880002018C179B94211D9EF
:1008600002000623D356002BF3DA0293131D9A4697
:100870002A4B6146039319E001F056FB00255346CD
:100880005D576DE7908802934005131D9A46031546
:1008900061469C464046D444634604302018181AEA
:1008A000E0230005400D1B021843039004235B4224
:1008B0009C46E14450464B461B1A1B055B0D9C466B
:1008C000124B957198466346404603439380019BC3
:1008D0005A199200039BA418A380029B0E4AA3718D
:1008E000009B2260E771A3606FE701F01DFB4FE7FB
:1008F000240100D073170020B40C002000ED00E0AC
:10090000CD01001000A1FFFFE40C002000E0FFFF7C
:1009100001BDFFFFAAAA00000148804701BD0000F9
:10092000F0B5DE4657464E464546E0B50C0083B06E
:10093000EFF3108872B65D4A1368002BFCD0BFF34A
:100940005F8F5B4B5B499A68030010339F00D5595A
:100950008D4239D0A5424AD0574EAA1B2F2A33D8F0
:1009600001229246824091464846544A12681040FD
:1009700001904846524A1060BFF35F8FEFF3058243
:100980009346002A35D0934201D001F0CDFA2A00D7
:1009900053469A439068844208D175E04B005B1837
:1009A0009B00F3189868A04234D01A0006215156D3
:1009B0000029F3DA844253D0019B002B26D04A460B
:1009C000404B1A603D4B1A60394B9B68DD51BFF3B9
:1009D0005F8FBFF35F8F0022344B1A6088F310885B
:1009E00003B0F0BCBB46B246A946A046F0BD0D0020
:1009F000EAE72A0053469A4390688442D6D10620FB
:100A000010561300002809DA0D0031E04A462C4B3D
:100A10001A60D9E706201856002822DB4200111878
:100A2000890074188A46A1689960E179D971062114
:100A300061569971002925DBA488F11A64052415F3
:100A400054440919E0240905490D240221439980E1
:100A500013181D4A9B001178F31899711070ABE7B9
:100A600013005946002914D1FF3191711749918023
:100A700015490A789A71164A9B1B5B415A43120D1D
:100A80000A7099E71349E2E7062010561300002880
:100A9000C4DA114A1149D21A083A5002400D0143F2
:100AA00099800F4952080A43DA8085E7240100D073
:100AB00000ED00E0CD010010B40C002000E100E0EA
:100AC00080E100E080E200E07317002001BDFFFF3D
:100AD000AAAA000001BD0000EE0C002000F0FFFFFC
:100AE00000F8FFFF70B5EFF3058101240443EFF335
:100AF000108C72B6214A1368002BFCD0BFF35F8FB5
:100B00001F4B05001F4AED1A6D416A43120D1E4D21
:100B10008900AE6852B27658A6421CD006215956BA
:100B200091421CD012215956914222D01E21595671
:100B3000914220D02A2159560324914210D0134BC0
:100B400019781A708171BFF35F8F00220B4B1A6006
:100B50008CF3108870BDAB680D4C5C50EFE700243F
:100B60006100091989005B18FF2199710949998071
:100B7000E5E70124F4E70224F2E7C046240100D0AF
:100B8000B40C0020AAAA000000ED00E073170020BA
:100B9000CD01001001BDFFFF054B064A1360064A58
:100BA000136053609360D360136153619361704726
:100BB0008080808000E400E004E400E0024B9C467A
:100BC00061448900016070474000003410B50400A2
:100BD000FFF74AFD01002000FFF7F0FFFF2323711C
:100BE000BFF35F8F10BDC04610B50400FFF73CFD9A
:100BF00001002000FFF7E2FFFF23A380BFF35F8F18
:100C000010BDC04610B504000120FFF739FD034BAD
:100C1000C3189B002360BFF35F8F10BD40000034FA
:100C200083680B4810B5844661446244120109018F
:100C300059189B185C684A680120944201D802D078
:100C40000020C0B210BD1A680B689A42F9D8F7E7C5
:100C5000FFFFFF0F0A4B1968EFF3108072B60A68A6
:100C6000002AFCD0BFF35F8F1B68BFF35F8F0022A9
:100C70001A6080F3108840BF002000217047C046F2
:100C80004C170020F8B5574645464E46DE46E0B5BF
:100C900098460CAB1C780DAB1B78070091469A4622
:100CA0000568002C5ED1AC7B002C3BD06600296827
:100CB0003619033E89194B78AB73002B00D1EB73C7
:100CC00000238B704B700B702D4BE218BB68120128
:100CD0009B184A461A6042465A600A9A9A600B9AD2
:100CE000DA6000238B704B700B706B7B9B46002B84
:100CF0002BD022005946A8686B6898472A680028BC
:100D000016D05B4658465B005B449619033BB070B7
:100D1000D118D35C002B00D073705B460C706B73E2
:100D20005C4513D0F0BCBB46B246A946A046F8BD10
:100D30005B465B005B44033BD3189C709119925D4A
:100D4000002A00D05A705B460B706C734A464346CB
:100D5000387D00F059FB051E0AD10E9B002BE1D017
:100D60001D70DFE7660029683619033E8919ABE775
:100D70005346002BF1D12100386800F069FDECE703
:100D8000FFFFFF0FF0B5DE4657464E4645460023AF
:100D9000E0B58BB00893684B8200D45800239B4683
:100DA000099000F0ADFA02000B006068EFF3108AC2
:100DB00072B6564601680029FCD0B246BFF35F8F79
:100DC00021684F7B8C46002F2ED0A5685B49A94631
:100DD00079180901894449460868496805000E00E8
:100DE000AD1A9E41002E5FDD02000B00099800F055
:100DF0000BFB002300229946002306920793002351
:100E000098466368BFF35F8F5A461A608AF310886A
:100E10004346002B12D10028C3D10BB0F0BCBB4617
:100E2000B246A946A046F0BD002300229946002301
:100E300006920793002300209846E2E7089B494664
:100E400018023843C047626805000E00EFF3108AAD
:100E500072B61368002BFCD0BFF35F8F002E41DB0E
:100E60002B00334302D02369002B56D12368D97B52
:100E7000002905D01A68480041185218033A5770E3
:100E80009A7B002A00D19F73DF73E268013FD35D34
:100E90000133D3555B4623616368BFF35F8F5A46C6
:100EA0001A608AF310887CE7002E02D1002D00D052
:100EB0009AE70021604600F049FC4B461A685B68DF
:100EC000069207934B469B6898464B46DB689946CB
:100ED000E368DB19013B1B7808931B020343236182
:100EE00000208EE72369002BC0D0069A079B802143
:100EF000521BB34109068B4202D30122104B5242CE
:100F0000002104910131039149460191414620009D
:100F100002970091FFF7B6FEBCE700F0F1F92A0056
:100F2000330012184B41802109068B42E8D301227D
:100F3000034B5242E4E7C04638160020FFFFFF0F84
:100F4000FFFFFF7F10B5144C6368002B04D00A210B
:100F50001248FFF733FE10BD2300114A102120680C
:100F600000F00AFB032000F0BFF9032000F0B4FA00
:100F700003200C4900F002FAFFF776FB0A4B9C466F
:100F800003232375D0231B061B6860446375074B3E
:100F900080006060DC60DAE7FC0C00204C17002069
:100FA000210C0010850D0010400000343816002080
:100FB00000487047FC0C0020F0B557464E464546A9
:100FC000DE46E0B585B0019310AB1B7806000393B5
:100FD00000239A46984600927268EFF3108B72B61F
:100FE0001368002BFCD0BFF35F8F3568AC7B002CFF
:100FF00000D16FE067002B683F19033FDB195A7877
:10100000AA73002A00D1EA734B4AA118B2680901F9
:10101000521800980199106051600E9991600F99D3
:10102000D16042469A705A701A706B7B9946002BB9
:1010300000D170E022004946A8686B6898472A688A
:1010400000285BD04B4648465B004B44D719033B16
:10105000B870D118D35C002B00D07B704B460C705D
:101060006B734C4558D0F3681B19013B18787368B3
:10107000BFF35F8F42461A608BF310885346002BF4
:1010800008D10002204305B0F0BCBB46B246A946D9
:10109000A046F0BD039B002B4BD00E9B00200F9968
:1010A0009847030004000D000B4342D000291ADAD0
:1010B000009A019B121BAB41009201938022120601
:1010C000934204D301231D4C5B4200930194039B84
:1010D0009A4681E77368BFF35F8F1C608BF31088BB
:1010E00001204042CFE700F00BF9802224184D4147
:1010F0001206009401959542E9D3E3E74B465B0065
:101100004B44033BD3189C70D119D25D002A00D008
:101110005A704B460B706C73307D009A019B00F047
:1011200073F9824600289ED02100306800F090FBC1
:1011300099E70020A7E7C046FFFFFF0FFFFFFF7FF3
:10114000F0B5EFF30583CE46474680B505000C00A9
:1011500085B0002B0DD0324A0020536A9C4203D840
:10116000926A0130AA4232D305B0C0BCB946B0463B
:10117000F0BD2C4E029301932B4B020000933000E4
:101180000B00FFF719FF031EE5DD20BF7168EFF3C9
:10119000108772B60A68002AFCD0BFF35F8FDAB2FC
:1011A00094463068427B624516D0FF2201681A409F
:1011B000894651008846494690444144033989781C
:1011C00000290BD13269934210D131610EE0E31A4C
:1011D0005A1E9341D8B2C7E7FF221A40F1681B0A92
:1011E0008A18013A1278DBB29A4214D07368BFF3BE
:1011F0005F8F00221A6087F31088094B00205A6A1B
:101200009442B1D89B6A0130AB42ADD2A41A631E9E
:101210009C41E0B2A8E7614600F01AFBE6E7C04651
:1012200000400540FC0C0020550C0010F0B5EFF319
:101230000582D6464F4646461000C0B51038EFF33B
:10124000108872B6214C2368002BFCD0BFF35F8F4F
:101250000123190081401E4D1F006963AA461D4DE0
:1012600029601D4D2E78AC463500C5402F402B42DD
:1012700015D053465F6A194B8500EB589F4218D32F
:101280006246174B8E43EB581670BFF35F8F0022F8
:10129000226088F31088002B06D0984704E0BFF343
:1012A0005F8F276088F31088E0BCBA46B146A84635
:1012B000F0BD0C4B92009C46624413681360BFF370
:1012C0005F8F0023236088F31088EDE7280100D0AA
:1012D000004005403C700540751700205417002061
:1012E000C0110020D03F054010B5034B010018008D
:1012F000024AFFF73BF910BD72170020143E0010A0
:10130000034B596A0A00986A596A8A42FAD17047AF
:101310000040054070B504000D00174A536A1900DB
:10132000966A536A8B42FAD13000190024184D4155
:10133000AB4216D813D0104B2A005B6A9D4203D9EA
:101340000D494B6A9342FCD3934207D10A4A02E00B
:10135000516A994202D1916AA142F9D370BDA64265
:10136000E9D9054B5B6A1C005A1CEFD0012201240D
:101370006442E5175242E3E70040054070B50400BF
:101380000D00EFF3108672B61A4A1368002BFCD0DA
:10139000BFF35F8F002D1BD02000FFF795F9164992
:1013A00081420AD02000FFF797F901212000FFF7C2
:1013B00079F90123A340114A1360114BA400E550B1
:1013C000BFF35F8F00220B4B1A6086F3108870BD4D
:1013D0000121A1400A4BA200D5500A4B20001A78E7
:1013E0008A4305491A70FFF79BFA00212000FFF796
:1013F00059F9E5E7280100D02D12001038600540AA
:10140000C011002075170020F0B54F46D64646465D
:10141000C0B507002B4C616A0D00A66A616AA9423B
:10142000FAD18B4208D805D00120E0BCBA46B146BB
:10143000A846F0BDB242F7D9EFF3108A72B622483F
:1014400001680029FCD0BFF35F8F0125BD401F4913
:101450001C4C8846097889462943C9B28C464146C6
:1014600060460870391D890065630A511849B80043
:101470004350216A0020294219D0616A0800A66AF7
:10148000616A8142FAD18B4219D801D1B24216D891
:10149000CC450BD00B4B1F221D625D6301233A40EC
:1014A00093400C4A136043464A461A700120BFF32A
:1014B0005F8F0022044B1A608AF31088B5E7002082
:1014C000F5E7C04600400540280100D07517002010
:1014D0005417002080E200E0EFF3108C72B60A4946
:1014E0000B68002BFCD0BFF35F8F01238340074ABA
:1014F0000748136202789A430270BFF35F8F00239C
:101500000B608CF310887047280100D00040054024
:101510007517002070B505000E001400002923D0B7
:10152000002A12D080686B689847296800280ED07E
:1015300063001B197200033B9219CB18033A9E708B
:1015400088188A5C002A11D10470300070BD7300C5
:101550009B196200033B1219CB18033A9C70881840
:101560008A5C002A05D106702000EFE75A700470EB
:10157000EBE75A700670F7E730B583600023CCB212
:1015800043730133047342608373C4730D000068B6
:10159000012C06D9421C0133DBB2137003329C428A
:1015A000F9D1FF2129404B005B18C01800230338F4
:1015B000437030BD70B505000C1E07D06300016894
:1015C0001B19033BCB185A78002A01D1200070BDAB
:1015D000500080180338091800204E784870210008
:1015E00058702800FFF796FF310004002800FFF72D
:1015F000E1FF0600002C26D00028E7D021003200B1
:10160000A8686B689847296800280ED073009B195A
:101610006200033B1219CB18033A9C7088188A5C4D
:10162000002A00D05A700670D0E763001B197200C0
:10163000033B9219CB18033A9E7088188A5C002AE3
:1016400000D05A7004703400C0E7C046F0B5574669
:101650004546DE464E46E0B50D006F0001687F1935
:10166000033F0400C85D83B00192CA19002850D01E
:1016700043001B18033BCB185E78B446002E1AD1EA
:10168000019E002E42D0E67B002E04D073009B19F1
:10169000CB18033B5D70A37B002B00D1A573E573D2
:1016A00000282FD10023537003B0F0BCBB46B246D4
:1016B000A946A046F0BD72006244033A8A185178E8
:1016C000884600215170894659703200010020007F
:1016D000FFF720FF43468246002B07D05B002168BE
:1016E0004344033BCB185A78002A16D14246514650
:1016F0002000FFF70FFF2168019BCA19002BC2D100
:101700000028CFD043001B18033BCB180021997051
:10171000C8E7019B002BB6D1C4E7500080180338FE
:10172000091848788346484648705870414620005A
:10173000FFF7F0FE594680462000FFF73BFF414689
:1017400002002000FFF7E6FE8046CFE7F0B55746DF
:101750004546DE464E46E0B583B00191457B040028
:101760006F0000687F19033FC15DC219002952D084
:101770004B005B18033BC3185E78B446002E1CD1A7
:10178000019E002E44D0E67B002E04D073009B19EE
:10179000C318033B5D70A37B002B00D1A573E573D9
:1017A000002931D1002328005370617303B0F0BCCD
:1017B000BB46B246A946A046F0BD72006244033A59
:1017C0008218507880460020507081465870320050
:1017D0002000FFF79FFE43468246002B07D05B00A8
:1017E00021684344033BCB185A78002A17D142465C
:1017F00051462000FFF78EFE019B01002068C219B0
:10180000002BC0D10029CDD04B005B18033BC3187F
:1018100000209870C6E7019B002BB4D1C2E75000AE
:10182000801803380918487883464846487058702D
:1018300041462000FFF76EFE594680462000FFF724
:10184000B9FE414602002000FFF764FE8046CEE765
:1018500070B5050000292CD0437B8B422ED04C0064
:1018600000686418033C0419A278002A21D05300B0
:101870009B18033BC25CC6188A4202D11BE0002AB7
:1018800008D053009B18033BC3185A788A42F6D1FC
:1018900062785A70002301222800A3706370FFF75A
:1018A000D5FE697B02002800FFF734FE6873012033
:1018B00000E0002070BD63783370EBE7012219006F
:1018C000FFF7C4FEF2E7C046F8B5CE46474604002F
:1018D00080B506200E0000F01FFA051E51D0524BB5
:1018E0005249E21853425A418023DB039C46920539
:1018F0004F4B62441A604F4B1A6010008B6898433C
:10190000FBD1494B4C4AE31859424B4180215B00C3
:1019100049000620995200F0FFF93100C00000F0A4
:1019200063FBC30932D14022012190466162A36268
:10193000256BEB0736D427008026E36A00232C377B
:1019400076013E4333600620256300F0E5F9414609
:10195000800000F049FB236B05009846DB073BD471
:101960006023E26A5A400E331340336043462363D8
:10197000802310229B013B431A60304B23630323D7
:10198000A3642800C0BCB946B046F8BD2C4A9342B7
:101990003FD900232B492C4A6162A362256B9046F4
:1019A000EB07C8D52200C02330329B011343234AE2
:1019B00006201A60666AA36AB601F61800F0ACF950
:1019C000224900F011FBB6020100300000F00CFBD0
:1019D0000021FFF79FFCAEE72200C02330329B01BD
:1019E0001343164A06201A60636AA26A9B0199464D
:1019F000914400F091F94B4614499B02994600F03E
:101A0000F3FA0100484600F0EFFA0021FFF782FCEC
:101A1000A6E77F2299018846024001325208190048
:101A20009044130082E7C0460080FCBF00C0004025
:101A300000E0004000F000406417002001030000B7
:101A4000FEFF0000FFFF0000C0FF3F004E0E000041
:101A500010B50C2082B000F0B5F9FEF779FD002832
:101A600010D08B4B8B488B498B4A1860596098601B
:101A7000D960186159619861D961186259625A62D6
:101A800002B010BD854CA06700F0A4F90122844B80
:101A90001A60636C012BFCD10322824B1A607F4ACF
:101AA000936B012BFCD1013301217F4A7F480093C6
:101AB000043300F037F905237D4A009301217D4866
:101AC00000F030F97C4B5A68FF2A02D8802252007D
:101AD0005A608022734B6E4C12011A6021690029F2
:101AE00007D0606900F080FA013043001B18033B07
:101AF000FDD2E022704B714819680A400260022250
:101B00001968514001320A40042102609A6811426A
:101B1000FCD080216A4A09011160802252005A607B
:101B2000684B2361684B5968FF2900D85A6003222B
:101B300001215B4B1A60644A93681942FCD0E02390
:101B40001068034061480360126803234A40022181
:101B500013405D4A036093681942FCD080215C4BBE
:101B60000901196080215B4B4900516063615A4B48
:101B70005A68FF2A00D859608022584B12011A6017
:101B8000E169002907D0606900F02EFA01304300B6
:101B90001B18033BFDD2E0234F4A11680B4050490C
:101BA0000B6080214F4B090119608021394B49009E
:101BB0005160E3614C4B5A68FF2A00D8596080227B
:101BC0004A4B12011A60216A002907D0606900F0AF
:101BD0000BFA013043001B18033BFDD2E023424ABD
:101BE00011680B4042490B608021424B090119608A
:101BF00080235B0053608022264BD20223623E4B3F
:101C00005968914200D25A6080223C4B12011A60FE
:101C1000616A002907D0606900F0E6F901304300ED
:101C20001B18033BFDD2E023334A11680B403449B3
:101C30000B608021334B090119608023DB02536064
:101C4000154B6362304B5A68FF2A02D8802252003B
:101C50005A6080222D4B12011A60A169002907D019
:101C6000606900F0C1F9013043001B18033BFDD24D
:101C7000E023254A11680B4025490B608021254B44
:101C80000901196080235B005360124BA361F7E6E2
:101C9000C00D0020006CDC021BB70000008000407B
:101CA0003CB0004030B00040002F68590080024036
:101CB000008C864700C002403080004030900040D9
:101CC00030A00040001BB7003C8000403C9000402A
:101CD0003CA00040405973075480004054B000407D
:101CE0005490004054A000406080004060B000402C
:101CF0006090004060A000406C8000406CB00040EC
:101D00006C9000406CA000404880004048B000400B
:101D10004890004048A00040014B8000C0587047E8
:101D2000C00D0020F8B5040021481D0017000E006A
:101D300000F05AF90100380000F056F9069B29041A
:101D40001B0319432368002B20DB1A4B1A4DE218A2
:101D500053425A4180235B019C461203174B624455
:101D60001A60174B1A601700AB689F43FBD1C02263
:101D7000231D92011A4321232660A060136023686B
:101D8000002BFCDA0823E1601360F8BD3F232268D2
:101D90001340B342D9D1A3681B051B0D8342D4D194
:101DA000EE22E368D20213408B42CED1EDE7C0466B
:101DB000001BB7000040FDBF00C0004000E0004035
:101DC00000F000408023024A9B000343D362704727
:101DD00000800540AA23064A1B0113602133FF330C
:101DE000D3600449044B19605368002BFCDA704738
:101DF0000040024000B0FA00006002402C4B2D4A27
:101E000070B51A602C4A2D4B2D491A6014008B684E
:101E10009C43FBD12B4D2C4EB54208D2013E761B84
:101E2000B60808CD984723000134B342F9D1FFF733
:101E30000FFE264A214B1A60214A9368DB43DB01DF
:101E4000DD09002BF9D14022214B224C224E9A670A
:101E50005A671A67DA66B44208D223682000002B5A
:101E600020D00834FEF7C0FEB442F6D31B4C1C4E03
:101E7000C022B168200000F0B1FBB460FEF7E6FBC1
:101E8000FEF78AFEFFF75EF8164C174EB44208D2F2
:101E9000013E361BB60808CC98472B0001359E4200
:101EA000F9D170BD0834FEF791FEB442D5D3DDE719
:101EB00000E00040BFCDFBFEFE7F3C0000F0004094
:101EC00000C00040980D0020A80D0020FFFFFF017A
:101ED00000F00140900D0020980D0020000000202F
:101EE00000ED00E0A80D0020B00D002000BEFDE7D1
:101EF00010B5FFF7FBFFC0460FB400B5084883B02C
:101F000000F01CFC049B002B07D005A918000191D0
:101F100000F018F8034800F011FC0120FFF7E6FF7D
:101F2000383E0010483E001010B50148FFF7E4FFAE
:101F30004C3E001010B5002800D110BD00F0B2FBDF
:101F4000FBE7C04610B5094A0300146884B0002CB2
:101F500008D0012200910648524203A9A04701205F
:101F600004B010BD00F0EAFB0020F9E72C160020B9
:101F7000351F001001480421014B1847300D002087
:101F8000A51F0010142310B50100188804331B8806
:101F9000984710BD162310B50100188802331B881E
:101FA000984710BDF8B54746CE4680B50F1E19D0EC
:101FB00014239946043304000025012698464B4615
:101FC0001888434621681B88984701C4431E9841DE
:101FD000013540420640AF42F1D13000C0BCB946A5
:101FE000B046F8BD0126F8E7114A936F9B0813D25B
:101FF00010665166002905D0FFE7FFE7FFE7516F44
:10200000106F704704B5002801D00020C04301F0D4
:1020100097FE002104BDC046F0B5146E556E576F93
:10202000166FFFF7E5FF1466556657671667F0BD34
:10203000000000D094464A4A926F9208624601D24C
:1020400028E0C046F0B5464E346E756E776F366F39
:1020500000F020F89446424A1466556657671667A2
:102060006246F0BD94463E4A926F9208624601D2A3
:1020700054E0C046F0B53A4E346E756E776F366FE9
:1020800000F04CF89446364A146655665767166752
:102090006246F0BD002B24DB11D000293EDA00B5EA
:1020A000C943404200D1013100F038F8C9434042F1
:1020B00000D10131DB43524200D1013300BD002A7F
:1020C000EBD1002801D1002905D00020C90FC90794
:1020D00001D1C043410800B501F022FE00220023D7
:1020E00000BD00B500290ADBDB43524200D10133B9
:1020F00000F014F8C943404200D1013100BDC9438A
:10210000404200D10131DB43524200D1013300F0A3
:1021100005F8DB43524200D1013300BD002923D131
:10212000002B18D1002A0CD0BC460D4F38667A66B9
:1021300000210023FFE7FFE7FFE77A6F386F67466C
:102140007047002801D00748010000B501F0E8FD04
:102150000022002300BD02000B0000200021704778
:10216000000000D0FFFFFFFF002B00D0BFE0130CEA
:1021700028D1002AE7D080B4114F39667A66FFE78C
:10218000FFE730B4040C7B6F396F1B0423433B66BD
:102190007A66FFE7FFE7FFE7C04684B27B6F3D6FDB
:1021A0001B0423433B667A66FFE7FFE7C046002334
:1021B0002C042D0C7A6F386F00196941B0BC704740
:1021C000000000D0F0B594460025140E01D1120293
:1021D0000835140F01D112010435940F01D192007A
:1021E0000235D40F01D152000135D40B0134254FF3
:1021F0007C66254C3C660E0C93B2FFE7FFE7FFE7D9
:102200003C6F6643360C7703BE467343DF0B5B04BB
:10221000C01AB941130C7343DB18C91ACE086643C0
:10222000360CB64493B273431F0F1B01C01AB94159
:10223000130C73431F0B1B05C01AB941860D8F0287
:102240003E436643360C092D24DB520A7243801A42
:102250007703460A6643360C16235B1BDE40DF40DD
:10226000BF1964466643821B70460435063301007D
:10227000D940A840C01900D30131A24206D20023A0
:10228000F0BD0000000000D0FFFFFFFF121B013077
:10229000F3D3F1E709277F1BFE406446A2B27243E5
:1022A000801A00D20139220C7243130C1204821AD4
:1022B00099410B007046043513370100F940A840DE
:1022C000801900D30131002B02D1A2420AD2F0BD05
:1022D000013000D30131121BFAD2013BF8D1A242E6
:1022E00000D2F0BD013000D30131121BF7E7F0B589
:1022F0001C0C00D080E00CB400251C0A04D11B0289
:10230000160E3343120208351C0B04D11B01160FA5
:102310003343120104359C0B04D19B00960F3343C9
:1023200092000235DC0B02D192185B4101351C0092
:10233000971864410134464F7C66464C3C660E0C4F
:10234000FFE7FFE7FFE7C0463C6F6643360C7703C5
:10235000BE4697B27743C01B00D20139C01B00D2E2
:1023600001399FB27743C91BC91B170C77437E0401
:10237000FF0B801BB941CE086643360C0C2D33DBB6
:10238000B644120B1F053A431B0B97B27743C01B91
:1023900000D201399FB27743C91B170C77433E0423
:1023A0003F0C801BB941860D8F023E4366432927AF
:1023B0007F1BFE400C3D7746AF40BF1930BCA2B238
:1023C000ABB272437343801A9941220C7243130CCF
:1023D0001204801A994102000B000137001BA94129
:1023E000F9D2781E0021F0BD0C277F1BFE407746F6
:1023F0007F0BAF40FF19E0E700245D1C07D0144FAE
:102400007D663966FFE7FFE7FFE7FFE73C6F95B2C0
:102410009EB265436643401BB141150C1E0C6543DB
:10242000664336042F0C3E432D04401BB1419942B4
:1024300004D202000B0020000021F0BD01D1904227
:10244000F7D3801A994101349942F2D3F6E700009C
:10245000000000D0FFFFFFFF10B50148FFF74CFD63
:10246000583E0010132370B51D78012D15D010DDD6
:102470001B48FFF78FFD1B4C01008022200000F05D
:10248000ADF8022D06D01848FFF77CFD174B1860F9
:1024900070BD144C164BA364F5E7164B114C23602A
:1024A0006360A360E36023616361A361E36123620E
:1024B0006362A362E36223636363A363E3632364EE
:1024C0006364A364E36423656365A365E3652366CE
:1024D0006366A366E36623676367A367E367D9E779
:1024E00053440000E80E00204C3300004816002042
:1024F000F92400105924001007B5604601880A0A23
:102500000230DF2AFAD1C9B2820804D30288408897
:102510000004104300E00068014A5050039007BDDA
:10252000E80E002051434343C9188C46110C83B276
:102530004B4310B4040C614392B280B250436243E7
:102540001C041B0C001910BC59411304120CC018B8
:10255000514161447047000010B50148FFF7CCFCC1
:10256000743F0010132310B510481C78FFF712FDBC
:102570000100012C0AD003DD80220D4800F02EF866
:102580000C48FFF7FFFC0C4B186010BD084C5422A0
:10259000200000F023F82200084980322368002B35
:1025A00000D1216004349442F8D1E9E75346000099
:1025B0004C1600204C33000048160020592500100E
:1025C00001480421014B1847400D0020A51F0010B1
:1025D000014B1B6818470000400D0020014B5B6851
:1025E00018470000400D0020F0B546464F46D6463D
:1025F000C0B5437D80460E001700002B4BD0002A4B
:1026000032DD274B01259A464B1E002400209946B7
:1026100007E0335D0A2B2CD02B0001340135BB427F
:1026200013DA002CF5D133780A2BF5D143461B7D04
:10263000002BF1D14346504602211B6898472800E1
:102640002B0001340135BB42EBDB874204DD4346FE
:10265000391A1B6830189847F619013E33780D3B3C
:102660005A42534142461375E0BCBA46B146A846A9
:10267000F0BD4B461B5D0D2BCED0A042DADA4346AF
:10268000211A1B68301898474346504602211B68A0
:1026900098472800D4E70368110030009847E3E723
:1026A000E83E0010F0B5CE46474680B583B06B4695
:1026B0000600DD1D2870FEF723FE00231A4A1218BB
:1026C0004B41802109068B4202D30122174B524213
:1026D00017490800884601F043FB164B81461C68E9
:1026E000002C14D0144F02E02469002C0FD0236872
:1026F000002BF9D03B68002B01D0A342F4D120007D
:1027000001222900FFF770FF2469002CEFD14B460E
:10271000002B05D1300003B0C0BCB946B046F0BDB7
:10272000404601F0F5FAF5E740420F00FFFFFF7F5A
:10273000900D00201C12002024120020F0B5DE466F
:1027400057464E464546E0B585B0070001F0A0FA71
:102750000600FEF7D5FD00232B4A12184B418021BD
:1027600009068B4202D30122284B52422849080015
:102770008B4601F0F5FA274B01901C689A46002C15
:102780003BD0254B984602ABDD1D0A23994602E05B
:102790002469002C17D02368002BF9D043461B680E
:1027A000002B01D0A342F3D1200032003900FFF703
:1027B0001BFF4B462000012229002B70FFF714FF5E
:1027C0002469002CE7D1019B002B18D153461C68CB
:1027D000002C06D06368002B0BD098472469002C8E
:1027E000F8D1300005B0F0BCBB46B246A946A046C1
:1027F000F0BD2469002CEDD1F3E70028F1D0584654
:1028000001F086FAE2E7C04640420F00FFFFFF7F7B
:10281000900D00201C120020241200200A4A136888
:10282000002B05D10CE01A001B691032002B07D0D9
:102830009842F8D1002902D1036913600161704701
:102840000029FCD01060FAE71C120020F0B5002926
:1028500015DD0E4B0D271A680D4B0E4CD3185D423B
:102860006B41451820215B001E5F0478A64207D00B
:1028700093691942FCD101301460A842F5D1F0BD32
:1028800093691942FCD11760F2E7C0466C1700202B
:102890000080FCBF6417002030B504000D1E30DD41
:1028A00000201021204B013C1A689369194217D16E
:1028B000013093691942FCD1136823548542F4D145
:1028C0001A4B1B68002B09D0502338219363536B9C
:1028D0003432194080235B011343196028000FE054
:1028E000124B1B68002B09D0502338219363536B84
:1028F0003432194080235B011A431160002810D044
:1029000030BD0A4B1B68002B0BD050223821064BE0
:102910001B689A635A6B343311408022520113436F
:10292000196003204042EBE76C170020D011002013
:10293000064B10B51B68002B06D00021044A126814
:102940009163044A1068984710BDC046D01100201A
:102950006C170020D41100201D4BF0B51A68C64634
:1029600098461C4B0E00D31859424B411A4F143352
:102970001C00050000B53B68002807D0002B11D0D3
:10298000164B3D601E6080BCB846F0BD002BF7D0F2
:10299000906300212000FDF785FE20001049FDF71F
:1029A000BFFFEDE720000E49FDF796FE0121200054
:1029B000FDF778FE4346502238211B689A635A6B14
:1029C000343311408022520113431960D8E7C046C6
:1029D0006C1700200080FCBFD0110020D411002013
:1029E0003129001070B50C4E0D001C003060002A1B
:1029F00003DB02211000FDF753FD002C03DB022155
:102A00002000FDF74DFD29003068FEF75DFF012134
:102A10000248FFF703FF70BD6C170020500D002027
:102A200010B5114C114B22689A4210D1104B6268BC
:102A30009A420CD10F4BA2689A4208D100230E484B
:102A40002360FFF79FFA0021030000209847074BFF
:102A500000212360064B09486360064BA360FEF724
:102A600059FC0023236010BDB00D0020DE8116F05C
:102A7000299B72BD7ABE59D355420000400D030018
:102A8000E12110B5044B05480022186049020123DA
:102A9000FFF7A8FF10BDC0466817002000400340A4
:102AA0007047C04610B501210520FDF7FBFD10BDA4
:102AB00010B500220021024800F0D6F810BDC04633
:102AC0004C1200208022024B5202DA647047C0464A
:102AD00000201150F0B5C64600B5060000F09EF883
:102AE0000C231B4DFF22AB6705201A49FDF71EFE84
:102AF00040239846184C402200212000FFF768FD33
:102B000043460127238321210023144A6770A260D2
:102B1000136063545F3161844146218705396354F2
:102B20000F4A10496360E260A1620B606362E26277
:102B300001F0FEF880239B052F64EB6490230A4A82
:102B40003000EA50FFF7BEFF80BCB846F0BDC0467B
:102B500000001150290300202C1200208400105086
:102B6000000110508000105010D001000B785B065F
:102B700002D14B78052B00D070478A78014B1A6040
:102B8000FAE7C0460000115010B501F0D1F810BDB1
:102B900010B57F200C0020404000E409110000190E
:102BA0001A00034B4001C01800F05EF8012010BD70
:102BB0002C1200207F23180010B508400B420BD0C8
:102BC000C90980224000074B401840010021C0186D
:102BD000120101F0D5F810BD0223034AC9095B1A9E
:102BE0009366EEE72C120020002011507F22130084
:102BF00010B50B400A4200D110BDC9095B005B183B
:102C000004485B01C018002300220349C37001F08F
:102C1000B7F8F1E72C120020FFF7FFFF80220D4BE1
:102C2000520410B51A600C4B0C491A6010008B68E6
:102C30009843FBD10A4C9C2200212000FFF7C8FCDE
:102C40008022002152010748FFF7C2FC0923636775
:102C500010BDC04600E0004000F0004000C0004051
:102C60000000115000001050002310B5C382013342
:102C7000828283760161040001F042F8002804D0CA
:102C800080219023074A8902D150200001F030F8BA
:102C9000002802D00123237710BD200001F068F83E
:102CA000FAE7C04600201150034B1878FF38431E46
:102CB0009841C0B27047C0468C0D0020F0B5C646A2
:102CC00000B52A4E05003378FF2B01D001203FE0EC
:102CD000532200212648FFF77BFC264C2000FDF7FD
:102CE00075FF254B1C60254C2000143CFDF78AFF26
:102CF000200000F0C1FE224B224F1C60224B984660
:102D0000002B1DD0380000E000BF204B18603B783E
:102D100042460024002A15D01D4A904642469C4255
:102D200019D3904701343B78E4B2A342F6D228008D
:102D30003570FFF7CFFE2800FFF7B4FE012007E053
:102D40003B78E5E700F09AFD3B78002BEFD00020C0
:102D500080BCB846F0BD0D4A630012681B19DB0049
:102D6000D318002BF3D01A68DBE7C0468C0D002087
:102D7000A41000205C100020F8100020840D00201A
:102D8000FC1000207017002000000000041000203C
:102D90007D380010F0B5DE4657464E464546E0B554
:102DA0008FB000F0B9FD002800D117E1CA4BCB4E1F
:102DB0009B46CB4B0BAC9946CA4B9A4635686A6921
:102DC000EFF3108172B61368002BFCD0BFF35F8F56
:102DD000A9612800210000F0BDFD6A69AB69BFF35D
:102DE0005F8F0021116083F31088002800D1F5E087
:102DF0006378082BE2D85A469B00D3589F466368F5
:102E0000002BDBD0A0689847D8E77F222179B44D0A
:102E10000A405300C809EB181B181D000127303564
:102E2000E878B843E870E8780337B843E870002AD8
:102E300000D1F0E0AC4ADB7C002A06D0AB4A127825
:102E4000934200D262E19B1ADBB2002B00D0C5E0B6
:102E50000025A36862792078A847AFE70122A04D3A
:102E600001202B78042113432B703323EA5C824327
:102E7000EA54EA5C8A43EA540133EA5C8243EA5446
:102E8000EA5C00208A43EA542378019300F068FC4E
:102E9000602322791340602B0DD0402B00D1C0E07D
:102EA000D206D20E012A00D13BE1022A00D1D5E0A0
:102EB000002A00D1C4E020780021FFF77BFE8021AA
:102EC0002078FFF777FE79E74B461B78DB0700D4C5
:102ED00074E7874B002B00D170E7FDF789FA6DE7A7
:102EE0007F4D2B78DB0700D468E7824B002B00D1A5
:102EF00064E728780007C00FFDF772FA5EE72378D1
:102F00007A4F794A984600253B78002A4BD05246A2
:102F1000B2463E0017003A00AB4266D840469047A2
:102F200001353378EDB2AB42F5D25646BA466C4D18
:102F3000532200212800FFF74BFB1022FF21E81C41
:102F4000FFF746FB28002022FF211330FFF740FB4C
:102F50002FE02378654F644A984600253B78002A85
:102F600030D05246B2463E0017003A009D4247D349
:102F70004046904701353378EDB2AB42F5D2564624
:102F8000BA46574D532200212800FFF721FB10229B
:102F9000FF21E81CFFF71CFB28002022FF21133033
:102FA000FFF716FB15E0404600F06AFC3B78002B6B
:102FB000BDD000F0CBFB504B002B00D1FEE6FDF75F
:102FC00009FAFBE6404600F05BFC3B78002BD8D0CA
:102FD000434D00F0BBFB2379AB70EFE60FB0F0BCC4
:102FE000BB46B246A946A046F0BD444A6B001268F3
:102FF0005B19DB00D318002B00D1ABE15A688DE7D9
:103000003E4A6B0012685B19DB00D318002B00D11D
:10301000A3E15A68ACE7A3686279207800F0B4FBBA
:10302000CCE63748002800D145E700F099FB0121A4
:1030300001980CAA00E000BF002800D0BEE63AE7E5
:10304000202B00D1A2E0002B00D034E76379092BBC
:1030500000D930E72B4A9B00D3589F467022217A33
:103060000A4200D027E70F320A405200CF09A818C1
:10307000C019C07C029284461B48002808D01B4817
:103080000078844500D2A3E06246101AC2B294468A
:103090006046002800D096E0002B00D056E11A4B85
:1030A000984660790222030003909343012B00D1DC
:1030B00056E1002800D0FEE6029B0AAAEB18DB19B5
:1030C0003033DB7802329B07DB0F13800198022339
:1030D0000CA900F0E5FA71E6803F0010FC1000201A
:1030E000A41000208138001000000000701700209C
:1030F000F1030010E1030010D503001004100020BC
:1031000000000000A43F00100C400010BF4A58000F
:103110001268C318DB00D318002B00D15EE71D69CD
:1031200097E6237A0F2B00D9C5E6B94AEB18DB786E
:10313000002A05D0B74A1278934265D39B1ADBB2B6
:10314000002B00D0B7E6B448B44D00F009FB0121D4
:10315000EB6801980CAA9847002800D02EE6602260
:10316000150023791D401A4200D0A4E663790A3B7A
:10317000012B00D99FE600F0F3FA63790A2B00D106
:103180002EE101980CA900F075FA17E6237A0F2BAF
:1031900000D990E69E4AEB18DB78002A06D09D4ABB
:1031A0001278934200D2FCE09B1ADBB2002B00D0D5
:1031B00081E69948994D00F0D3FA0121EB68019816
:1031C0000CAA984738E79846002B00D169E772E6C9
:1031D000624652009046C44462468C48D200006861
:1031E0009446020062449046002B00D159E7002A21
:1031F00000D160E6D06800F0B3FA43460121DB68F5
:1032000001980CAA984717E7804A59001568CB180F
:10321000DB00ED18002D00D14DE6E86895E7E38866
:10322000012B00D047E608222B78019893430CA984
:103230002B7000F01FFAC1E5022029780AAB9A1C16
:103240008B068908DB0F01400B433EE7A37904930B
:103250001A006B789A4207D06B78002B00D044E1BB
:10326000049B002B00D0E5E0049B01980CA96B7037
:1032700000F000FAA2E56B780AAA023213700198F6
:1032800001230CA900F00CFA98E5E3881A0AD8B2D9
:103290000F2A00D90FE662499300CB589F460CA82D
:1032A00000F064FAA1790198FFF702FC02222B7862
:1032B00013432B7082E5E388012B00D0FBE5082245
:1032C0002B78019813430CA92B7000F0D3F975E506
:1032D000544B002B00D1EEE500E000BF021E00D1F0
:1032E000E9E5D37891781B020B4301980CA900F013
:1032F000D7F9A1E64C4B002B00D1DCE500E000BF84
:10330000021E00D1D7E5137801980CA900F0C8F986
:1033100092E62189FDF782F8021EF4D1CBE5022A5C
:1033200000D160E1414B002B00D1C4E500E000BFBB
:103330000200002A00D1BEE5D3E7FDF767F81223AB
:1033400002000CA9019800F0ABF975E6334B324846
:10335000984650E75646BA462BE65646BA4637E6F2
:10336000E388002B08D1012826D0029BEA18D71940
:103370003037FB789B073CD54746002F00D11DE531
:10338000F86800F0EDF9FB6801210CAA0198984754
:10339000002000F0E5F93423EB5CDB0700D50DE5F8
:1033A000EFE61A4A59001568CB18DB00ED18002D1E
:1033B00000D180E5E868FEE6029BEA18D7193037AD
:1033C000FB789B07D8D51A4B1878FFF70FFC022221
:1033D000FB789343FB70FB78039A9343FB70CBE736
:1033E0000AAB9A1C019801230CA9157000F058F93A
:1033F000E4E40F4B1878FFF7DDFB0222FB78134360
:103400000122FB70FB781343FB70B5E7041000202A
:103410000000000070170020A93800100C400010B8
:10342000CC3F001000000000000000000000000081
:103430008C0D0020581EC0B2FCF7ECFF002800D114
:1034400039E54378022B00D035E50121C279070028
:10345000931152110B400A4012015B0113432A7869
:103460002F318A4313432B70C37882781B02134396
:10347000C3180693644B09370593644B029609936E
:10348000019B98465B46AB460393069BBB4200D824
:10349000ADE001227B7807920B2B03D1FB780793D9
:1034A0003B78FF187B78042B63D10025069BDB1B40
:1034B0009BB20193059B1A78554B0893099BAB422D
:1034C0004CD0089BAA4200D984E0019E390032000A
:1034D00040469847082801D9864259D2059B0135B4
:1034E0001A78EDB2AA42ECD243E0019B180098464C
:1034F000FFF74AFB0021AB78434F444A0393029104
:103500003B78002A21D0434A01920299019A8B42CA
:1035100033D840469047029B0133DBB21A00029336
:103520003B789342F1D24346019353220021280075
:10353000FFF74EF81022FF213748FFF749F8202205
:10354000FF213648FFF744F805E0019800F098F9AC
:103550003B78002BE9D0039BAB7081E639004046F5
:10356000019A00F08FF90600082802D9019B8342D6
:103570000FD2039B029E9B469DE48C46284B4A003B
:103580001B686244D2009B18002B20D05A68C0E709
:1035900006000022584609E0BB78D318DBB2C318F6
:1035A000D978FF29E5D10132DD70D2B2079B9A426A
:1035B000F2D12B00390083463200184800F0B0F9F0
:1035C000059BBF191B78AB4200D35EE7D1E74346AA
:1035D0000193C0E71822124B6A431B689B18002B0B
:1035E000C7D09B6871E7FCF715FF0200A1E64346D0
:1035F0000193039B5D469B460A4B029E002B00D124
:1036000032E6FCF7DFFE2FE6701700200000000016
:103610008538001081380010A7100020B710002056
:1036200004100020C503001070B57F240F480C4023
:1036300064000419CD0964193034E078C00701D55D
:10364000002070BD0126E578094835430078E57013
:10365000FFF79EFA0028F4D10122E3789343E37048
:10366000E37803329343E370EAE7C046A4100020F6
:103670008C0D002070B5094C0600082220000D00BA
:10368000FEF7ACFF00238021E360A3602B783000BD
:10369000994300220023FFF7C7FF70BD08100020E8
:1036A000F8B5CE4647469046264E80B5814608225C
:1036B00030000D001F00FEF791FF4346B36000236A
:1036C000F381EC79AB7924021C43231CBC4200D962
:1036D0003B1C9FB2B381002C0ED0002F18D0434664
:1036E000002B2CD03B1C402F1BD89FB233787F2B54
:1036F0001CD80021144A0FE080212B780022994326
:1037000048460023FFF790FFC0BCB946B046F8BD5D
:103710007F230022317899433B004846FFF784FF1E
:10372000F2E740239FB233787F2BE2D9064C3A0070
:1037300041462000FEF752FF80212200ECE70020E6
:10374000E2E7C046081000206410002010B51422E3
:1037500000210248FEF73CFF10BDC04608100020C3
:10376000014B18617047C0460810002010B5054C89
:10377000010008222000FEF731FF0023A360E36070
:1037800010BDC0460810002070B5394C1D002378CC
:103790000600DA09C9098A4213D00020002D00D0A2
:1037A00070BD344B002B03D021003000FFF7DEF951
:1037B0002369002B03D02200032130009847012009
:1037C000EEE77F2B06D8A068002834D02A002A49CB
:1037D000FEF704FFE289A1685219E38892B2491901
:1037E000E281A160934214D03F2D12D9A389981A87
:1037F000051C80B240282AD82078ADB27F2828D86E
:1038000000219A4232D01C4A2B003000FFF70CFFF7
:10381000C6E72369002B05D022000221300098471B
:1038200000280AD080212378002299433000002309
:10383000FFF7FAFEB4E70020B2E700213000FFF7FF
:10384000B9F930008021FFF7B5F90120A8E740253C
:10385000D2E79A4207D0084C2A002000FEF7BEFEAD
:1038600080212200D0E780210022CDE70022CBE793
:10387000081000206D2B0010641000207047C04617
:103880007047C0468B790020012B02D1CB79012BE8
:1038900000D070470B780930C9184B78212BF8D12C
:1038A00008780930F5E7C04630B50500140083B04C
:1038B00001291CD11F23127800201340012B17D19E
:1038C0005F3319001140134214D0202910D16378BE
:1038D000002B18D0032B0BD1062200216846FEF7DF
:1038E00077FE06236A4621002800FFF7D9FE012053
:1038F00003B030BD63780B2BFAD121002800FFF70D
:10390000B9FE0120F4E721002800FFF7B3FEFCF721
:1039100077FD0120ECE7C04610B5FFF7C5F910BDF3
:103920008A1870B5914207D27F264C78052C04D0B6
:103930000C7809198A42F8D870BD34008D782C4073
:1039400064000419ED0963550C7809198A42ECD812
:10395000F2E7C04670B5040000690E00002803D0ED
:103960000121494200F0F4F925896089A288A9B2B1
:1039700083B285422BD3CD1AADB2002D2DD0AA42F1
:1039800008D291422FD3891A8BB263819A4203D80D
:103990009B1A9BB29A42FBD9E28821685204520CCE
:1039A00053433000C918FEF719FE63890125591CDD
:1039B00089B2A2888B4212D95200891A89B2206931
:1039C0006181002801D000F0A3F9280070BD5500E6
:1039D000ED1A4D19ADB2002DD1D1618989B25200D5
:1039E0009142ECDBE9E789188BB26381CEE7C046F0
:1039F000F8B50400C0680E00002803D00121494238
:103A000000F0A6F9258920896189A288ADB283B228
:103A10008FB2884228D3DB1B9BB29A4209D8E77940
:103A2000FF0906D1E068002801D000F071F93800E4
:103A3000F8BD2B00954203D39B1A9BB29342FBD255
:103A4000E28820685204520C53433100C018FEF73C
:103A5000C5FDA2886B1C9BB252009D4209D99B1ADE
:103A60009BB201272381DDE75100C91B5B189BB284
:103A7000D3E79342F5DBF2E710B50400C0680028F5
:103A800003D00121494200F063F92069002803D0E6
:103A90000121494200F05CF90023E0686381238141
:103AA000002801D000F034F92069002801D000F08E
:103AB0002FF9012010BDC04680210A4A4902136D2A
:103AC0000B42FCD0092353670422074B00201A60E5
:103AD000064B00211A68064BDA67064B1A68064B3C
:103AE0001A647047000011508030115028120020D5
:103AF000004001403416002000C0014070B5102085
:103B000084B0FCF7E5FC082862D0334B334DDB6F03
:103B1000334C2B60334B01221B6C01210F2023609F
:103B2000FCF7E0FC02210F20FCF700FD2E4B0321E7
:103B30001A6808235A40173313402C4A0F20136089
:103B4000FCF7E2FC02220421294BDA677E3299500D
:103B5000284B743A5A671B6D1B079B0F012B34D1FE
:103B6000FDF726FA0600FDF7CBFBFA2200239200B0
:103B700012184B41802109068B4202D301221E4BB1
:103B8000524201210291002101911C493000009113
:103B9000FDF712FA002801DB04B070BDFA20002105
:103BA0008000FDF7B7FB8021124A4902136D0B42DA
:103BB000FCD0092353670422114B1A602A68064B74
:103BC000DA672268074B1A64E6E7FEF7ADF9C7E744
:103BD000FEF7AAF999E7C0460040014028120020EC
:103BE0003416002000C001407C4001407C50014060
:103BF0000020115000001150FFFFFF7FB93A001064
:103C000080301150074B10B51B6D1B079B0F03D164
:103C1000FA200021800010BDFFF770FF0020002176
:103C2000F9E7C0460000115010B584B0FCF798FCCD
:103C3000012801D004B010BDFDF7BAF90400FDF76A
:103C40005FFBFA220023920012184B4180210906E3
:103C50008B4202D301220B4B5242012102910021DF
:103C60000191094920000091FDF7A6F90028E1DA49
:103C7000032206490B6D9B081A42FBD0FFF73EFF5B
:103C8000D8E7C046FFFFFF7F053C00100000115041
:103C900010B583070AD00300032102E001330B4271
:103CA00005D01A78002AF9D1181A10BD0300196836
:103CB0000C4A0D4C8A188A4322420FD15968094A8E
:103CC00004338A188A43224208D15968054A0433CA
:103CD0008A188A432242F1D000E001331A78002A80
:103CE000FBD1E1E7FFFEFEFE80808080F8B5C04694
:103CF00001B40248844601BC604700BF710800203F
:103D000001B40248844601BC604700BF4908002056
:103D100001B40248844601BC604700BFED010020A9
:103D200001B40248844601BC604700BF110C00206A
:103D300001B40248844601BC604700BF1502002060
:103D400001B40248844601BC604700BF110C00204A
:103D500001B40248844601BC604700BF5D010020F9
:103D600001B40248844601BC604700BFC100002086
:103D700001B40248844601BC604700BFE509002049
:103D800001B40248844601BC604700BF8D09002091
:103D900054696E795553420054696E7955534220E7
:103DA000446576696365000031323334353600008E
:103DB00054696E79555342204446552072756E748D
:103DC000696D65000904000009021B000101008003
:103DD000320904000000FE01010409210DE803007E
:103DE000100101001201000200000040FECA004064
:103DF00000010102030100004E6F207370696E6CB8
:103E00006F636B732061726520617661696C6162BA
:103E10006C650000486172647761726520616C6155
:103E2000726D20256420616C726561647920636C19
:103E300061696D65640000000A2A2A2A2050414EFB
:103E40004943202A2A2A0A000A00000048617264B5
:103E500020617373657274006D697373696E672096
:103E6000646F75626C652066756E6374696F6E0051
:103E700052656C6561736500626F6F74325F773293
:103E80003571303830000000312E352E3100000001
:103E900061646166727569745F6B623230343000E0
:103EA00074696E797573625F6465765F6466755F69
:103EB00072756E74696D65004F63742031372032FE
:103EC0003032330006005250D3F07542703E00107D
:103ED00006005250E182887F783E00100600525062
:103EE000BBFF3CB6903E00100D0A0000646F756287
:103EF0006C65207265736574202D3E20424F4F54CF
:103F000053454C000600525053B4F4A1EC3E00104F
:103F10000800525012000000556E68616E646C65B6
:103F2000642049525120307825780A006570202598
:103F3000642025732077617320616C7265616479F8
:103F400020617661696C61626C65000043616E2777
:103F50007420636F6E74696E756520786665722073
:103F60006F6E20696E6163746976652065702025C7
:103F700064202573000000006F757400696E0000F6
:103F8000BC2D0010522F0010FE2E0010BC2D001072
:103F9000E02E0010C82E00105C2E00100A2E00101B
:103FA000FE2D0010383200101E320010B62E001008
:103FB000B6320010B62E00109E3200108A32001069
:103FC000B62E0010763200104C320010B62E0010C3
:103FD0003A3300101E33001012330010B62E0010BA
:103FE000B62E0010F43200101E330010B62E001052
:103FF000B62E0010B62E0010B62E0010B62E0010F1
:10400000B62E0010B62E0010D03200107D380010F1
:104010008138001085380010A93800100000000019
:04402000000000009C
:10402400C43E0010D03E001088020010DC3E001098
:1040340094020010A0020010AC020010043F001013
:04404400103F001019
:10404800F0B5C646150000B504001E000268EFF37F
:10405800108172B61368002BFCD0BFF35F8F042366
:10406800E356002B2DDB2268BFF35F8F0020106022
:1040780081F31088D0221206127852B290469A42E2
:1040880003D1002080BCB846F0BD00270BE02368B0
:10409800BFF35F8F1F6081F310882800310000F0A4
:1040A80093FD0028EDD12268EFF3108172B61368F2
:1040B800002BFCD0BFF35F8F23797F2BE7D94346D2
:1040C80002E0D0231B061B6823712368BFF35F8FB0
:1040D80000221A6081F310880120D3E7F0B5C646A4
:1040E80000B50D00040000F05FFDFA2206000F0085
:1040F800002328000021920000F05EFD802336187E
:104108004F411B069F4202D30126174F7642D02308
:104118001B061B68002598460BE02368BFF35F8FDA
:104128001D6081F310883000390000F04DFD002833
:1041380018D12268EFF3108172B61368002BFCD0F7
:10414800BFF35F8F23797F2BE7D943462371236819
:10415800BFF35F8F00221A6081F31088012080BCB2
:10416800B846F0BD0020FAE7FFFFFF7F0268EFF3D3
:10417800108172B61368002BFCD0BFF35F8FFF234A
:1041880003710368BFF35F8F00221A6081F3108800
:1041980040BF70470022154B10B59A60DA601A616B
:1041A8005A619A61DA611A625A629A62DA621A6329
:1041B8005A639A63DA631A645A649A64DA641A6509
:1041C8005A659A65DA651A665A669A66DA661A67E9
:1041D8005A679A67DA67F03292000021044800F0C3
:1041E800DBFC044B044A1A6010BDC04600001050A6
:1041F8006C1200203016002080011050F0B5574690
:10420800DE464E464546E0B5244B87B09F6D002FED
:1042180023D0234B0024994601239846214B01269D
:104228009A4604E001347600E4B2202C15D03E42D0
:10423800F8D04B469E65434665086D00A343ED18CC
:104248006D015544280000F0C3FB00280CD101344F
:10425800B743E4B27600002FE7D107B0F0BCBB4605
:10426800B246A946A046F0BDAB7802A89B46EB8AA9
:10427800062200210630019300F08EFCE023594607
:1042880002AADB009380019B117203A80121059308
:1042980000F0C6FB280000F033FBD8E700001150FF
:1042A800003011502C1200209823CB4AF0B5D55875
:1042B80080232C009B02102685B01C401D427AD01A
:1042C800C64BC74C9A6AC74B00261A603B23E35C6F
:1042D800022B00D1E4E07B23E35C022B00D1BFE199
:1042E800BB23E35C022B00D1AFE1FB23E35C022B91
:1042F80000D19FE13C23FF33E35C022B00D15DE159
:104308007C23FF33E35C022B00D14AE1BC23FF335B
:10431800E35C022B00D137E1FC23FF33E35C022B83
:1043280000D124E1B04BE35C022B00D113E1AF4B89
:10433800E35C022B00D102E1AD4BE35C022B00D120
:10434800F1E0AC4BE35C022B00D1E0E0AA4BE35C6C
:10435800022B00D1CFE0A94BE35C022B00D1B0E0E7
:10436800A74BE35C022B00D185E1A64BE35C022B53
:1043780000D19CE1002E08D1A34B1B78002B04D15F
:104388008021A24A90338902D150934B0A229C6C17
:104398006B460021981D00F0FFFBC023640501AEA9
:1043A8009B00640D3380300002940121802400F0CA
:1043B80037FB974EA402EB0600D56DE080235B0225
:1043C8001D4214D0012223211C43854B5A54DA7014
:1043D800C023904ADB00019302AB03CA03C3012147
:1043E80001A800F01DFB8022884B92021A65EB049D
:1043F80033D48023DB011D421CD180231B021D42C4
:1044080004D1AC4200D0D2E105B0F0BD1C436B46EC
:104418000A220021981D00F0BFFBA02301AEDB009B
:1044280033800121300000F0FBFA8022774B120123
:104438001A65E6E71C436B460A220021981D00F026
:10444800ABFB802301AEDB0033800121300000F09C
:10445800E7FA10226D4B1A65CFE700235E4E01AFD5
:104468003360FFF797FE6B460A220021981D00F083
:1044780093FB80235B003B800121380000F0D0FAD9
:104488008022624B12031A65F36CDB0300D520E12E
:1044980080235B011C43ACE7FFF7B0FE34008DE7D7
:1044A8003833E65C002E00D115E70233E25C002ABF
:1044B80000D110E7200000222030E25400F052FA28
:1044C80009E7554BE75C002F00D149E70233E25C6E
:1044D800002A00D064E14A4BE35C022B00D1DCE007
:1044E800484BE35C022B00D04FE74C4BE35C002BBE
:1044F80000D0E1E049E74A4BE75C002F00D12AE70A
:104508000233E25C002A00D042E13E0023E7454B3B
:10451800E75C002F00D119E70233E25C002A00D0E3
:104528002EE13E0012E7404BE75C002F00D108E780
:104538000233E25C002A00D01AE13E0001E73B4B5F
:10454800E75C002F00D1F7E60233E25C002A00D0D6
:1045580006E13E00F0E6364BE75C002F00D1E6E6C8
:104568000233E25C002A00D0F2E03E00DFE6F933D5
:10457800FF33E75C002F00D1D4E60233E25C002A67
:1045880000D0DCE03E00CDE6B933FF33E75C002F16
:1045980000D1C1E60233E25C002A00D0C6E03E004A
:1045A800BAE67933FF33E75C002F00D1AEE6023379
:1045B800E25C002A00D0B0E03E00A7E63933FF33C2
:1045C800E75C002F00D19BE60233E25C002A00D0B2
:1045D8009AE03E0094E6C0460000115000400540B5
:1045E8002C120020201200203B0200007B02000059
:1045F800BB020000FB0200003B0300007B0300003D
:10460800BB030000FB0300007117002000301150AD
:1046180010000200000010507A030000FA030000A6
:104628003A030000FA020000BA0200007A02000011
:104638003A020000F833E75C002F00D15AE6023353
:10464800E25C002A58D13E0054E6B833E75C002FFC
:1046580000D14AE60233E25C002A45D13E0044E636
:104668007833E75C002F00D13AE60233E25C002A97
:1046780032D13E0034E6504BE35C002B00D174E6A7
:10468800EF239B00E25C002A00D129E70022E254D4
:104698001C3BE01800F066F922E7474BE35C002B6F
:1046A800EED1464BE35C022B00D06EE63E00444B55
:1046B800E35C002B00D15DE6FF239B00E25C002A4F
:1046C80000D162E60022E2541C3BE01800F04AF9EF
:1046D8005BE600F091FADBE6200000226030E2544D
:1046E8003E0000F03FF9FBE520000022A030E25434
:1046F8003E0000F037F9F8E520000022E030E254EF
:104708003E0000F02FF9F5E5200000222130FF30AF
:10471800E2543E0000F026F9F2E520000022613064
:10472800FF30E2543E0000F01DF9EFE520000022C2
:10473800A130FF30E2543E0000F014F9ECE520000F
:104748000022E130FF30E2543E0000F00BF9E9E5C9
:104758000022E2541C3BE01800F004F93E00E6E5B4
:104768000022E2541C3BE01800F0FCF83E00E3E5B0
:104778000022E2541C3BE01800F0F4F83E00E0E5AB
:104788000022E2541C3BE01800F0ECF83E00DDE5A6
:104798000022E2541C3BE01800F0E4F83E00DAE5A1
:1047A8000022E2541C3BE01800F0DCF893E62100FC
:1047B8000448694000F010FABA030000FB03000047
:1047C800FA030000183F0010084A0300126C00208A
:1047D800920703D49A78D209012A00D07047D87E6C
:1047E800023843425841C0B2F8E7C04600001150B1
:1047F80010B5FFF7E9FF00280CD00749074B8C4696
:10480800074A9B6A126863449B1A0020C6229A4290
:104818004041C0B210BDC046E0FCFFFF004005406B
:1048280020120020F8B5028B838A04000F00161CA2
:104838009A4200D91E1CE27880211500681E854125
:10484800B6B2C90031436D030D4301214A409B1B99
:10485800E27062789BB2A382002A09D0002B02D1B1
:104868008023DB011D43002F00D02D042800F8BD54
:10487800E068BB01C0183200216900F0C5F923695E
:104888009B19236180231B021D43A38AE6E7C046C8
:10489800836870B504001D68002900D02D0C63786A
:1048A800AD05AD0D002B09D1E38AEB18E382238B0C
:1048B800AB4201D90023A382280070BDE3688901B7
:1048C80059182A00206900F09FF9E38AEB18E3825F
:1048D80023695B192361EAE710B5040083680021A6
:1048E8001B68FFF7D5FF63681B685B0002D5238B45
:1048F800834200D010BD01212000FFF7C9FFF9E76E
:1049080000238376436103617047C04610B583680E
:10491800002901D01C682140002A11D08024E4001D
:10492800114322420CD01A6822420BD10A4A0A408B
:104938001A60FFE7FFE7FFE7FFE7FFE7FFE78368A6
:10494800196010BD81787F20CA09044B920001408C
:10495800D258034800F040F9FFFBFFFF680D002024
:104968002C3F0010436870B5002180251E680400A4
:10497800FFF758FF134B6D011B6C05439B070FD5C1
:10498800A3785B060FD0104B1E4080239B05334352
:1049980062680021136020002A00FFF7B7FF70BD8E
:1049A800A378DB09EFD0A38A002BECD001212000EB
:1049B800FFF738FFA023054ADB05324005431343C0
:1049C800E6E7C04600001150FFFFFFAFFFFFFFDF23
:1049D80070B5857E0400002D14D0FFF77DFFA38AF3
:1049E800002B01D1280070BD2000FFF701FF00282F
:1049F80003D0012300252377F4E72000FFF7B2FF57
:104A08000025EFE781787F20CA09034B9200014017
:104A1800D258024800F0E0F8680D00204C3F001022
:104A2800F0B54378050085B0042B00D175E046D871
:104A3800022B00D183E0032B55D1504E504A00245D
:104A48003378002A00D192E04E4F03E00134E4B2FB
:104A58009C4213D8A342F9D9620039681219D200CE
:104A68008A18002AF2D05269002AEFD0696828789B
:104A7800904701343378E4B29C42EBD9424B1A7820
:104A8800520748D504211A788A431A706B460A22BD
:104A98000021981D00F080F86A462B7813710523D1
:104AA80053713A4B1C686269EFF3108172B6136850
:104AB800002BFCD0BFF35F8FA16101A920E0052B7B
:104AC80011D1314B1A78D20725D504211A788A4397
:104AD8001A702E4B1C686269EFF3108172B6136866
:104AE800002B09D1FBE7294B1C686269EFF31081A1
:104AF80072B61368002BFCD0BFF35F8FA161290049
:104B0800200000F071F86269A369BFF35F8F00218C
:104B1800116083F3108805B0F0BD1B4B1A78D207DB
:104B2800F9D504211A780A431A70184B1C6862696F
:104B3800EFF3108172B61368002BDDD1FBE701207B
:104B4800114A11788143117011789943002311702B
:104B58000421537013788B4313700C4B1C686269E3
:104B6800EFF3108172B61368002BC5D1FBE7002262
:104B78000132D2B29A42FBD980E7C04670170020B2
:104B88000000000004100020A4100020FC100020E9
:104B98007047C0460000000001B40248844601BCCA
:104BA800604700BFD125001001B40248844601BC0B
:104BB800604700BF0113001001B40248844601BCDD
:104BC800604700BF2525001001B40248844601BC97
:104BD800604700BF4111001001B40248844601BC7F
:104BE800604700BFF91E001001B40248844601BCAA
:104BF800604700BFF139001001B40248844601BC87
:104C0800604700BF293C001001B40248844601BC3B
:104C1800604700BFDD250010FA000000C43D001009
:104C2800903D0010983D0010A83D0010B03D0010C8
:104C3800100000000000000000000100000000005B
:104C4800000000000000020000000000000000005A
:104C58000000030000000000000000000000FF004A
:104C68000000000001B5486801318E4600477046D3
:104C780009380149884701BDE50A0010140D0020D4
:104C880000000000E80D0020DC11002000000000FA
:104C980000000000EC1100200000000000000000EF
:104CA80010000000000000000000000000000000EC
:104CB800503300004C3300005433000052330000DE
:104CC8004D5300004D4300005334000043340000AE
:104CD8004D280010000000009928001059290010E4
:104CE8000000000000010000783F00107C3F001029
:104CF8000011002010000C0000000000000000005F
:104D0800000000000000000000000000FF0000009C
:104D18000000000000000000C1250010751F0010F1
:104D2800652400106525001031030010212A0010A9
:04000005100001E9FD
:00000001FF
